{
  "contractName": "Cards",
  "abi": [
    {
      "inputs": [],
      "stateMutability": "nonpayable",
      "type": "constructor"
    },
    {
      "anonymous": false,
      "inputs": [
        {
          "indexed": true,
          "internalType": "address",
          "name": "owner",
          "type": "address"
        },
        {
          "indexed": true,
          "internalType": "address",
          "name": "approved",
          "type": "address"
        },
        {
          "indexed": true,
          "internalType": "uint256",
          "name": "tokenId",
          "type": "uint256"
        }
      ],
      "name": "Approval",
      "type": "event"
    },
    {
      "anonymous": false,
      "inputs": [
        {
          "indexed": true,
          "internalType": "address",
          "name": "owner",
          "type": "address"
        },
        {
          "indexed": true,
          "internalType": "address",
          "name": "operator",
          "type": "address"
        },
        {
          "indexed": false,
          "internalType": "bool",
          "name": "approved",
          "type": "bool"
        }
      ],
      "name": "ApprovalForAll",
      "type": "event"
    },
    {
      "anonymous": false,
      "inputs": [
        {
          "indexed": true,
          "internalType": "address",
          "name": "from",
          "type": "address"
        },
        {
          "indexed": true,
          "internalType": "address",
          "name": "to",
          "type": "address"
        },
        {
          "indexed": true,
          "internalType": "uint256",
          "name": "tokenId",
          "type": "uint256"
        }
      ],
      "name": "Transfer",
      "type": "event"
    },
    {
      "anonymous": false,
      "inputs": [
        {
          "indexed": false,
          "internalType": "string",
          "name": "",
          "type": "string"
        }
      ],
      "name": "evento",
      "type": "event"
    },
    {
      "inputs": [
        {
          "internalType": "address",
          "name": "",
          "type": "address"
        },
        {
          "internalType": "uint256",
          "name": "",
          "type": "uint256"
        }
      ],
      "name": "accountCollection",
      "outputs": [
        {
          "internalType": "address",
          "name": "owner",
          "type": "address"
        },
        {
          "internalType": "string",
          "name": "name",
          "type": "string"
        },
        {
          "internalType": "string",
          "name": "urlPic",
          "type": "string"
        },
        {
          "internalType": "uint256",
          "name": "date",
          "type": "uint256"
        },
        {
          "internalType": "string",
          "name": "description",
          "type": "string"
        },
        {
          "internalType": "enum Cards.Rareness",
          "name": "rareness",
          "type": "uint8"
        },
        {
          "internalType": "bool",
          "name": "isForSelling",
          "type": "bool"
        },
        {
          "internalType": "string",
          "name": "nationality",
          "type": "string"
        },
        {
          "internalType": "string",
          "name": "team",
          "type": "string"
        },
        {
          "internalType": "uint256",
          "name": "amountMinted",
          "type": "uint256"
        },
        {
          "internalType": "uint256",
          "name": "price",
          "type": "uint256"
        },
        {
          "internalType": "uint256",
          "name": "tokenId",
          "type": "uint256"
        }
      ],
      "stateMutability": "view",
      "type": "function",
      "constant": true
    },
    {
      "inputs": [],
      "name": "admin",
      "outputs": [
        {
          "internalType": "address",
          "name": "",
          "type": "address"
        }
      ],
      "stateMutability": "view",
      "type": "function",
      "constant": true
    },
    {
      "inputs": [
        {
          "internalType": "address",
          "name": "",
          "type": "address"
        }
      ],
      "name": "admins",
      "outputs": [
        {
          "internalType": "bool",
          "name": "",
          "type": "bool"
        }
      ],
      "stateMutability": "view",
      "type": "function",
      "constant": true
    },
    {
      "inputs": [
        {
          "internalType": "address",
          "name": "to",
          "type": "address"
        },
        {
          "internalType": "uint256",
          "name": "tokenId",
          "type": "uint256"
        }
      ],
      "name": "approve",
      "outputs": [],
      "stateMutability": "nonpayable",
      "type": "function"
    },
    {
      "inputs": [
        {
          "internalType": "address",
          "name": "owner",
          "type": "address"
        }
      ],
      "name": "balanceOf",
      "outputs": [
        {
          "internalType": "uint256",
          "name": "",
          "type": "uint256"
        }
      ],
      "stateMutability": "view",
      "type": "function",
      "constant": true
    },
    {
      "inputs": [
        {
          "internalType": "uint256",
          "name": "tokenId",
          "type": "uint256"
        }
      ],
      "name": "getApproved",
      "outputs": [
        {
          "internalType": "address",
          "name": "",
          "type": "address"
        }
      ],
      "stateMutability": "view",
      "type": "function",
      "constant": true
    },
    {
      "inputs": [
        {
          "internalType": "address",
          "name": "owner",
          "type": "address"
        },
        {
          "internalType": "address",
          "name": "operator",
          "type": "address"
        }
      ],
      "name": "isApprovedForAll",
      "outputs": [
        {
          "internalType": "bool",
          "name": "",
          "type": "bool"
        }
      ],
      "stateMutability": "view",
      "type": "function",
      "constant": true
    },
    {
      "inputs": [],
      "name": "name",
      "outputs": [
        {
          "internalType": "string",
          "name": "",
          "type": "string"
        }
      ],
      "stateMutability": "view",
      "type": "function",
      "constant": true
    },
    {
      "inputs": [],
      "name": "nextTokenId",
      "outputs": [
        {
          "internalType": "uint256",
          "name": "",
          "type": "uint256"
        }
      ],
      "stateMutability": "view",
      "type": "function",
      "constant": true
    },
    {
      "inputs": [
        {
          "internalType": "uint256",
          "name": "tokenId",
          "type": "uint256"
        }
      ],
      "name": "ownerOf",
      "outputs": [
        {
          "internalType": "address",
          "name": "",
          "type": "address"
        }
      ],
      "stateMutability": "view",
      "type": "function",
      "constant": true
    },
    {
      "inputs": [
        {
          "internalType": "address",
          "name": "from",
          "type": "address"
        },
        {
          "internalType": "address",
          "name": "to",
          "type": "address"
        },
        {
          "internalType": "uint256",
          "name": "tokenId",
          "type": "uint256"
        }
      ],
      "name": "safeTransferFrom",
      "outputs": [],
      "stateMutability": "nonpayable",
      "type": "function"
    },
    {
      "inputs": [
        {
          "internalType": "address",
          "name": "from",
          "type": "address"
        },
        {
          "internalType": "address",
          "name": "to",
          "type": "address"
        },
        {
          "internalType": "uint256",
          "name": "tokenId",
          "type": "uint256"
        },
        {
          "internalType": "bytes",
          "name": "_data",
          "type": "bytes"
        }
      ],
      "name": "safeTransferFrom",
      "outputs": [],
      "stateMutability": "nonpayable",
      "type": "function"
    },
    {
      "inputs": [
        {
          "internalType": "address",
          "name": "operator",
          "type": "address"
        },
        {
          "internalType": "bool",
          "name": "approved",
          "type": "bool"
        }
      ],
      "name": "setApprovalForAll",
      "outputs": [],
      "stateMutability": "nonpayable",
      "type": "function"
    },
    {
      "inputs": [
        {
          "internalType": "bytes4",
          "name": "interfaceId",
          "type": "bytes4"
        }
      ],
      "name": "supportsInterface",
      "outputs": [
        {
          "internalType": "bool",
          "name": "",
          "type": "bool"
        }
      ],
      "stateMutability": "view",
      "type": "function",
      "constant": true
    },
    {
      "inputs": [],
      "name": "symbol",
      "outputs": [
        {
          "internalType": "string",
          "name": "",
          "type": "string"
        }
      ],
      "stateMutability": "view",
      "type": "function",
      "constant": true
    },
    {
      "inputs": [
        {
          "internalType": "uint256",
          "name": "index",
          "type": "uint256"
        }
      ],
      "name": "tokenByIndex",
      "outputs": [
        {
          "internalType": "uint256",
          "name": "",
          "type": "uint256"
        }
      ],
      "stateMutability": "view",
      "type": "function",
      "constant": true
    },
    {
      "inputs": [
        {
          "internalType": "address",
          "name": "owner",
          "type": "address"
        },
        {
          "internalType": "uint256",
          "name": "index",
          "type": "uint256"
        }
      ],
      "name": "tokenOfOwnerByIndex",
      "outputs": [
        {
          "internalType": "uint256",
          "name": "",
          "type": "uint256"
        }
      ],
      "stateMutability": "view",
      "type": "function",
      "constant": true
    },
    {
      "inputs": [
        {
          "internalType": "uint256",
          "name": "tokenId",
          "type": "uint256"
        }
      ],
      "name": "tokenURI",
      "outputs": [
        {
          "internalType": "string",
          "name": "",
          "type": "string"
        }
      ],
      "stateMutability": "view",
      "type": "function",
      "constant": true
    },
    {
      "inputs": [],
      "name": "totalSupply",
      "outputs": [
        {
          "internalType": "uint256",
          "name": "",
          "type": "uint256"
        }
      ],
      "stateMutability": "view",
      "type": "function",
      "constant": true
    },
    {
      "inputs": [
        {
          "internalType": "address",
          "name": "from",
          "type": "address"
        },
        {
          "internalType": "address",
          "name": "to",
          "type": "address"
        },
        {
          "internalType": "uint256",
          "name": "tokenId",
          "type": "uint256"
        }
      ],
      "name": "transferFrom",
      "outputs": [],
      "stateMutability": "nonpayable",
      "type": "function"
    },
    {
      "inputs": [
        {
          "internalType": "uint256",
          "name": "i",
          "type": "uint256"
        }
      ],
      "name": "getyMyCards",
      "outputs": [
        {
          "components": [
            {
              "internalType": "address",
              "name": "owner",
              "type": "address"
            },
            {
              "internalType": "string",
              "name": "name",
              "type": "string"
            },
            {
              "internalType": "string",
              "name": "urlPic",
              "type": "string"
            },
            {
              "internalType": "uint256",
              "name": "date",
              "type": "uint256"
            },
            {
              "internalType": "string",
              "name": "description",
              "type": "string"
            },
            {
              "internalType": "enum Cards.Rareness",
              "name": "rareness",
              "type": "uint8"
            },
            {
              "internalType": "bool",
              "name": "isForSelling",
              "type": "bool"
            },
            {
              "internalType": "string",
              "name": "nationality",
              "type": "string"
            },
            {
              "internalType": "string",
              "name": "team",
              "type": "string"
            },
            {
              "internalType": "uint256",
              "name": "amountMinted",
              "type": "uint256"
            },
            {
              "internalType": "uint256",
              "name": "price",
              "type": "uint256"
            },
            {
              "internalType": "uint256",
              "name": "tokenId",
              "type": "uint256"
            }
          ],
          "internalType": "struct Cards.Card",
          "name": "",
          "type": "tuple"
        }
      ],
      "stateMutability": "view",
      "type": "function",
      "constant": true
    },
    {
      "inputs": [
        {
          "internalType": "uint256",
          "name": "i",
          "type": "uint256"
        }
      ],
      "name": "getCardMarket",
      "outputs": [
        {
          "components": [
            {
              "internalType": "address",
              "name": "owner",
              "type": "address"
            },
            {
              "internalType": "string",
              "name": "name",
              "type": "string"
            },
            {
              "internalType": "string",
              "name": "urlPic",
              "type": "string"
            },
            {
              "internalType": "uint256",
              "name": "date",
              "type": "uint256"
            },
            {
              "internalType": "string",
              "name": "description",
              "type": "string"
            },
            {
              "internalType": "enum Cards.Rareness",
              "name": "rareness",
              "type": "uint8"
            },
            {
              "internalType": "bool",
              "name": "isForSelling",
              "type": "bool"
            },
            {
              "internalType": "string",
              "name": "nationality",
              "type": "string"
            },
            {
              "internalType": "string",
              "name": "team",
              "type": "string"
            },
            {
              "internalType": "uint256",
              "name": "amountMinted",
              "type": "uint256"
            },
            {
              "internalType": "uint256",
              "name": "price",
              "type": "uint256"
            },
            {
              "internalType": "uint256",
              "name": "tokenId",
              "type": "uint256"
            }
          ],
          "internalType": "struct Cards.Card",
          "name": "",
          "type": "tuple"
        }
      ],
      "stateMutability": "view",
      "type": "function",
      "constant": true
    },
    {
      "inputs": [
        {
          "internalType": "string",
          "name": "name",
          "type": "string"
        },
        {
          "internalType": "string",
          "name": "urlPic",
          "type": "string"
        },
        {
          "internalType": "string",
          "name": "description",
          "type": "string"
        },
        {
          "internalType": "enum Cards.Rareness",
          "name": "rareness",
          "type": "uint8"
        },
        {
          "internalType": "string",
          "name": "nationality",
          "type": "string"
        },
        {
          "internalType": "string",
          "name": "team",
          "type": "string"
        },
        {
          "internalType": "uint256",
          "name": "amountMinted",
          "type": "uint256"
        },
        {
          "internalType": "uint256",
          "name": "price",
          "type": "uint256"
        }
      ],
      "name": "mint",
      "outputs": [],
      "stateMutability": "nonpayable",
      "type": "function"
    },
    {
      "inputs": [
        {
          "internalType": "uint256",
          "name": "i",
          "type": "uint256"
        },
        {
          "internalType": "bool",
          "name": "isForSelling",
          "type": "bool"
        }
      ],
      "name": "setIsForSelling",
      "outputs": [],
      "stateMutability": "nonpayable",
      "type": "function"
    },
    {
      "inputs": [
        {
          "internalType": "uint256",
          "name": "cardId",
          "type": "uint256"
        }
      ],
      "name": "buyCard",
      "outputs": [],
      "stateMutability": "payable",
      "type": "function",
      "payable": true
    }
  ],
  "bytecode": "0x60806040523480156200001157600080fd5b506040518060400160405280600981526020017f506978656c2041727400000000000000000000000000000000000000000000008152506040518060400160405280600381526020017f5041520000000000000000000000000000000000000000000000000000000000815250816000908051906020019062000096929190620000f9565b508060019080519060200190620000af929190620000f9565b50505033600b60006101000a81548173ffffffffffffffffffffffffffffffffffffffff021916908373ffffffffffffffffffffffffffffffffffffffff1602179055506200020e565b8280546200010790620001a9565b90600052602060002090601f0160209004810192826200012b576000855562000177565b82601f106200014657805160ff191683800117855562000177565b8280016001018555821562000177579182015b828111156200017657825182559160200191906001019062000159565b5b5090506200018691906200018a565b5090565b5b80821115620001a55760008160009055506001016200018b565b5090565b60006002820490506001821680620001c257607f821691505b60208210811415620001d957620001d8620001df565b5b50919050565b7f4e487b7100000000000000000000000000000000000000000000000000000000600052602260045260246000fd5b6152e9806200021e6000396000f3fe6080604052600436106101665760003560e01c80636352211e116100d1578063a43e119c1161008a578063c70f5eaa11610064578063c70f5eaa146105a3578063c87b56dd146105bf578063e985e9c5146105fc578063f851a4401461063957610166565b8063a43e119c14610500578063a80c02481461053d578063b88d4fde1461057a57610166565b80636352211e146103bf57806370a08231146103fc57806375794a3c1461043957806395d89b41146104645780639f67c3b51461048f578063a22cb465146104d757610166565b80632971b137116101235780632971b1371461028d5780632f745c59146102b657806342127909146102f357806342842e0e1461031c578063429b62e5146103455780634f6ccce71461038257610166565b806301ffc9a71461016b57806306fdde03146101a8578063081812fc146101d3578063095ea7b31461021057806318160ddd1461023957806323b872dd14610264575b600080fd5b34801561017757600080fd5b50610192600480360381019061018d9190613e0b565b610664565b60405161019f9190614af6565b60405180910390f35b3480156101b457600080fd5b506101bd6106de565b6040516101ca9190614b11565b60405180910390f35b3480156101df57600080fd5b506101fa60048036038101906101f59190613f87565b610770565b60405161020791906149b2565b60405180910390f35b34801561021c57600080fd5b5061023760048036038101906102329190613dcf565b6107f5565b005b34801561024557600080fd5b5061024e61090d565b60405161025b9190614df5565b60405180910390f35b34801561027057600080fd5b5061028b60048036038101906102869190613cc9565b61091a565b005b34801561029957600080fd5b506102b460048036038101906102af9190613e5d565b61097a565b005b3480156102c257600080fd5b506102dd60048036038101906102d89190613dcf565b610ece565b6040516102ea9190614df5565b60405180910390f35b3480156102ff57600080fd5b5061031a60048036038101906103159190613fb0565b610f73565b005b34801561032857600080fd5b50610343600480360381019061033e9190613cc9565b611010565b005b34801561035157600080fd5b5061036c60048036038101906103679190613c64565b611030565b6040516103799190614af6565b60405180910390f35b34801561038e57600080fd5b506103a960048036038101906103a49190613f87565b611050565b6040516103b69190614df5565b60405180910390f35b3480156103cb57600080fd5b506103e660048036038101906103e19190613f87565b6110e7565b6040516103f391906149b2565b60405180910390f35b34801561040857600080fd5b50610423600480360381019061041e9190613c64565b611199565b6040516104309190614df5565b60405180910390f35b34801561044557600080fd5b5061044e611251565b60405161045b9190614df5565b60405180910390f35b34801561047057600080fd5b50610479611257565b6040516104869190614b11565b60405180910390f35b34801561049b57600080fd5b506104b660048036038101906104b19190613dcf565b6112e9565b6040516104ce9c9b9a99989796959493929190614a19565b60405180910390f35b3480156104e357600080fd5b506104fe60048036038101906104f99190613d93565b611638565b005b34801561050c57600080fd5b5061052760048036038101906105229190613f87565b6117b9565b6040516105349190614dd3565b60405180910390f35b34801561054957600080fd5b50610564600480360381019061055f9190613f87565b611c1e565b6040516105719190614dd3565b60405180910390f35b34801561058657600080fd5b506105a1600480360381019061059c9190613d18565b612046565b005b6105bd60048036038101906105b89190613f87565b6120a8565b005b3480156105cb57600080fd5b506105e660048036038101906105e19190613f87565b6127b8565b6040516105f39190614b11565b60405180910390f35b34801561060857600080fd5b50610623600480360381019061061e9190613c8d565b61285f565b6040516106309190614af6565b60405180910390f35b34801561064557600080fd5b5061064e6128f3565b60405161065b91906149b2565b60405180910390f35b60007f780e9d63000000000000000000000000000000000000000000000000000000007bffffffffffffffffffffffffffffffffffffffffffffffffffffffff1916827bffffffffffffffffffffffffffffffffffffffffffffffffffffffff191614806106d757506106d682612919565b5b9050919050565b6060600080546106ed9061508b565b80601f01602080910402602001604051908101604052809291908181526020018280546107199061508b565b80156107665780601f1061073b57610100808354040283529160200191610766565b820191906000526020600020905b81548152906001019060200180831161074957829003601f168201915b5050505050905090565b600061077b826129fb565b6107ba576040517f08c379a00000000000000000000000000000000000000000000000000000000081526004016107b190614cb3565b60405180910390fd5b6004600083815260200190815260200160002060009054906101000a900473ffffffffffffffffffffffffffffffffffffffff169050919050565b6000610800826110e7565b90508073ffffffffffffffffffffffffffffffffffffffff168373ffffffffffffffffffffffffffffffffffffffff161415610871576040517f08c379a000000000000000000000000000000000000000000000000000000000815260040161086890614d73565b60405180910390fd5b8073ffffffffffffffffffffffffffffffffffffffff16610890612a67565b73ffffffffffffffffffffffffffffffffffffffff1614806108bf57506108be816108b9612a67565b61285f565b5b6108fe576040517f08c379a00000000000000000000000000000000000000000000000000000000081526004016108f590614c33565b60405180910390fd5b6109088383612a6f565b505050565b6000600880549050905090565b61092b610925612a67565b82612b28565b61096a576040517f08c379a000000000000000000000000000000000000000000000000000000000815260040161096190614d93565b60405180910390fd5b610975838383612c06565b505050565b600b60009054906101000a900473ffffffffffffffffffffffffffffffffffffffff1673ffffffffffffffffffffffffffffffffffffffff163373ffffffffffffffffffffffffffffffffffffffff161480610a1f5750600c60003373ffffffffffffffffffffffffffffffffffffffff1673ffffffffffffffffffffffffffffffffffffffff16815260200190815260200160002060009054906101000a900460ff165b610a5e576040517f08c379a0000000000000000000000000000000000000000000000000000000008152600401610a5590614bb3565b60405180910390fd5b610a6a30600a54612e62565b60006040518061018001604052803073ffffffffffffffffffffffffffffffffffffffff1681526020018a8152602001898152602001428152602001888152602001876003811115610ae5577f4e487b7100000000000000000000000000000000000000000000000000000000600052602160045260246000fd5b8152602001600115158152602001868152602001858152602001848152602001838152602001600a54815250905080600d60003073ffffffffffffffffffffffffffffffffffffffff1673ffffffffffffffffffffffffffffffffffffffff1681526020019081526020016000206000600a54815260200190815260200160002060008201518160000160006101000a81548173ffffffffffffffffffffffffffffffffffffffff021916908373ffffffffffffffffffffffffffffffffffffffff1602179055506020820151816001019080519060200190610bc99291906138f5565b506040820151816002019080519060200190610be69291906138f5565b50606082015181600301556080820151816004019080519060200190610c0d9291906138f5565b5060a08201518160050160006101000a81548160ff02191690836003811115610c5f577f4e487b7100000000000000000000000000000000000000000000000000000000600052602160045260246000fd5b021790555060c08201518160050160016101000a81548160ff02191690831515021790555060e0820151816006019080519060200190610ca09291906138f5565b50610100820151816007019080519060200190610cbe9291906138f5565b506101208201518160080155610140820151816009015561016082015181600a015590505080600e6000600a54815260200190815260200160002060008201518160000160006101000a81548173ffffffffffffffffffffffffffffffffffffffff021916908373ffffffffffffffffffffffffffffffffffffffff1602179055506020820151816001019080519060200190610d5c9291906138f5565b506040820151816002019080519060200190610d799291906138f5565b50606082015181600301556080820151816004019080519060200190610da09291906138f5565b5060a08201518160050160006101000a81548160ff02191690836003811115610df2577f4e487b7100000000000000000000000000000000000000000000000000000000600052602160045260246000fd5b021790555060c08201518160050160016101000a81548160ff02191690831515021790555060e0820151816006019080519060200190610e339291906138f5565b50610100820151816007019080519060200190610e519291906138f5565b506101208201518160080155610140820151816009015561016082015181600a0155905050600a6000815480929190610e89906150bd565b91905055507f7a894dd537735ba01f7e127b6c5047ea98a0ee75cbb4734c586b46de70649856604051610ebb90614b33565b60405180910390a1505050505050505050565b6000610ed983611199565b8210610f1a576040517f08c379a0000000000000000000000000000000000000000000000000000000008152600401610f1190614b53565b60405180910390fd5b600660008473ffffffffffffffffffffffffffffffffffffffff1673ffffffffffffffffffffffffffffffffffffffff168152602001908152602001600020600083815260200190815260200160002054905092915050565b80600d60003373ffffffffffffffffffffffffffffffffffffffff1673ffffffffffffffffffffffffffffffffffffffff168152602001908152602001600020600084815260200190815260200160002060050160016101000a81548160ff02191690831515021790555080600e600084815260200190815260200160002060050160016101000a81548160ff0219169083151502179055505050565b61102b83838360405180602001604052806000815250612046565b505050565b600c6020528060005260406000206000915054906101000a900460ff1681565b600061105a61090d565b821061109b576040517f08c379a000000000000000000000000000000000000000000000000000000000815260040161109290614db3565b60405180910390fd5b600882815481106110d5577f4e487b7100000000000000000000000000000000000000000000000000000000600052603260045260246000fd5b90600052602060002001549050919050565b6000806002600084815260200190815260200160002060009054906101000a900473ffffffffffffffffffffffffffffffffffffffff169050600073ffffffffffffffffffffffffffffffffffffffff168173ffffffffffffffffffffffffffffffffffffffff161415611190576040517f08c379a000000000000000000000000000000000000000000000000000000000815260040161118790614c73565b60405180910390fd5b80915050919050565b60008073ffffffffffffffffffffffffffffffffffffffff168273ffffffffffffffffffffffffffffffffffffffff16141561120a576040517f08c379a000000000000000000000000000000000000000000000000000000000815260040161120190614c53565b60405180910390fd5b600360008373ffffffffffffffffffffffffffffffffffffffff1673ffffffffffffffffffffffffffffffffffffffff168152602001908152602001600020549050919050565b600a5481565b6060600180546112669061508b565b80601f01602080910402602001604051908101604052809291908181526020018280546112929061508b565b80156112df5780601f106112b4576101008083540402835291602001916112df565b820191906000526020600020905b8154815290600101906020018083116112c257829003601f168201915b5050505050905090565b600d602052816000526040600020602052806000526040600020600091509150508060000160009054906101000a900473ffffffffffffffffffffffffffffffffffffffff169080600101805461133f9061508b565b80601f016020809104026020016040519081016040528092919081815260200182805461136b9061508b565b80156113b85780601f1061138d576101008083540402835291602001916113b8565b820191906000526020600020905b81548152906001019060200180831161139b57829003601f168201915b5050505050908060020180546113cd9061508b565b80601f01602080910402602001604051908101604052809291908181526020018280546113f99061508b565b80156114465780601f1061141b57610100808354040283529160200191611446565b820191906000526020600020905b81548152906001019060200180831161142957829003601f168201915b5050505050908060030154908060040180546114619061508b565b80601f016020809104026020016040519081016040528092919081815260200182805461148d9061508b565b80156114da5780601f106114af576101008083540402835291602001916114da565b820191906000526020600020905b8154815290600101906020018083116114bd57829003601f168201915b5050505050908060050160009054906101000a900460ff16908060050160019054906101000a900460ff16908060060180546115159061508b565b80601f01602080910402602001604051908101604052809291908181526020018280546115419061508b565b801561158e5780601f106115635761010080835404028352916020019161158e565b820191906000526020600020905b81548152906001019060200180831161157157829003601f168201915b5050505050908060070180546115a39061508b565b80601f01602080910402602001604051908101604052809291908181526020018280546115cf9061508b565b801561161c5780601f106115f15761010080835404028352916020019161161c565b820191906000526020600020905b8154815290600101906020018083116115ff57829003601f168201915b50505050509080600801549080600901549080600a015490508c565b611640612a67565b73ffffffffffffffffffffffffffffffffffffffff168273ffffffffffffffffffffffffffffffffffffffff1614156116ae576040517f08c379a00000000000000000000000000000000000000000000000000000000081526004016116a590614bf3565b60405180910390fd5b80600560006116bb612a67565b73ffffffffffffffffffffffffffffffffffffffff1673ffffffffffffffffffffffffffffffffffffffff16815260200190815260200160002060008473ffffffffffffffffffffffffffffffffffffffff1673ffffffffffffffffffffffffffffffffffffffff16815260200190815260200160002060006101000a81548160ff0219169083151502179055508173ffffffffffffffffffffffffffffffffffffffff16611768612a67565b73ffffffffffffffffffffffffffffffffffffffff167f17307eab39ab6107e8899845ad3d59bd9653f200f220920489ca2b5937696c31836040516117ad9190614af6565b60405180910390a35050565b6117c161397b565b600d60003373ffffffffffffffffffffffffffffffffffffffff1673ffffffffffffffffffffffffffffffffffffffff1681526020019081526020016000206000838152602001908152602001600020604051806101800160405290816000820160009054906101000a900473ffffffffffffffffffffffffffffffffffffffff1673ffffffffffffffffffffffffffffffffffffffff1673ffffffffffffffffffffffffffffffffffffffff1681526020016001820180546118839061508b565b80601f01602080910402602001604051908101604052809291908181526020018280546118af9061508b565b80156118fc5780601f106118d1576101008083540402835291602001916118fc565b820191906000526020600020905b8154815290600101906020018083116118df57829003601f168201915b505050505081526020016002820180546119159061508b565b80601f01602080910402602001604051908101604052809291908181526020018280546119419061508b565b801561198e5780601f106119635761010080835404028352916020019161198e565b820191906000526020600020905b81548152906001019060200180831161197157829003601f168201915b50505050508152602001600382015481526020016004820180546119b19061508b565b80601f01602080910402602001604051908101604052809291908181526020018280546119dd9061508b565b8015611a2a5780601f106119ff57610100808354040283529160200191611a2a565b820191906000526020600020905b815481529060010190602001808311611a0d57829003601f168201915b505050505081526020016005820160009054906101000a900460ff166003811115611a7e577f4e487b7100000000000000000000000000000000000000000000000000000000600052602160045260246000fd5b6003811115611ab6577f4e487b7100000000000000000000000000000000000000000000000000000000600052602160045260246000fd5b81526020016005820160019054906101000a900460ff16151515158152602001600682018054611ae59061508b565b80601f0160208091040260200160405190810160405280929190818152602001828054611b119061508b565b8015611b5e5780601f10611b3357610100808354040283529160200191611b5e565b820191906000526020600020905b815481529060010190602001808311611b4157829003601f168201915b50505050508152602001600782018054611b779061508b565b80601f0160208091040260200160405190810160405280929190818152602001828054611ba39061508b565b8015611bf05780601f10611bc557610100808354040283529160200191611bf0565b820191906000526020600020905b815481529060010190602001808311611bd357829003601f168201915b505050505081526020016008820154815260200160098201548152602001600a820154815250509050919050565b611c2661397b565b600e6000838152602001908152602001600020604051806101800160405290816000820160009054906101000a900473ffffffffffffffffffffffffffffffffffffffff1673ffffffffffffffffffffffffffffffffffffffff1673ffffffffffffffffffffffffffffffffffffffff168152602001600182018054611cab9061508b565b80601f0160208091040260200160405190810160405280929190818152602001828054611cd79061508b565b8015611d245780601f10611cf957610100808354040283529160200191611d24565b820191906000526020600020905b815481529060010190602001808311611d0757829003601f168201915b50505050508152602001600282018054611d3d9061508b565b80601f0160208091040260200160405190810160405280929190818152602001828054611d699061508b565b8015611db65780601f10611d8b57610100808354040283529160200191611db6565b820191906000526020600020905b815481529060010190602001808311611d9957829003601f168201915b5050505050815260200160038201548152602001600482018054611dd99061508b565b80601f0160208091040260200160405190810160405280929190818152602001828054611e059061508b565b8015611e525780601f10611e2757610100808354040283529160200191611e52565b820191906000526020600020905b815481529060010190602001808311611e3557829003601f168201915b505050505081526020016005820160009054906101000a900460ff166003811115611ea6577f4e487b7100000000000000000000000000000000000000000000000000000000600052602160045260246000fd5b6003811115611ede577f4e487b7100000000000000000000000000000000000000000000000000000000600052602160045260246000fd5b81526020016005820160019054906101000a900460ff16151515158152602001600682018054611f0d9061508b565b80601f0160208091040260200160405190810160405280929190818152602001828054611f399061508b565b8015611f865780601f10611f5b57610100808354040283529160200191611f86565b820191906000526020600020905b815481529060010190602001808311611f6957829003601f168201915b50505050508152602001600782018054611f9f9061508b565b80601f0160208091040260200160405190810160405280929190818152602001828054611fcb9061508b565b80156120185780601f10611fed57610100808354040283529160200191612018565b820191906000526020600020905b815481529060010190602001808311611ffb57829003601f168201915b505050505081526020016008820154815260200160098201548152602001600a820154815250509050919050565b612057612051612a67565b83612b28565b612096576040517f08c379a000000000000000000000000000000000000000000000000000000000815260040161208d90614d93565b60405180910390fd5b6120a284848484613030565b50505050565b600e600082815260200190815260200160002060000160009054906101000a900473ffffffffffffffffffffffffffffffffffffffff1673ffffffffffffffffffffffffffffffffffffffff163373ffffffffffffffffffffffffffffffffffffffff16141561214d576040517f08c379a000000000000000000000000000000000000000000000000000000000815260040161214490614d53565b60405180910390fd5b600e600082815260200190815260200160002060050160019054906101000a900460ff166121b0576040517f08c379a00000000000000000000000000000000000000000000000000000000081526004016121a790614d33565b60405180910390fd5b600e600082815260200190815260200160002060090154341015612209576040517f08c379a000000000000000000000000000000000000000000000000000000000815260040161220090614cd3565b60405180910390fd5b6000612214826110e7565b90508073ffffffffffffffffffffffffffffffffffffffff166108fc349081150290604051600060405180830381858888f1935050505015801561225c573d6000803e3d6000fd5b50600d600061226a846110e7565b73ffffffffffffffffffffffffffffffffffffffff1673ffffffffffffffffffffffffffffffffffffffff1681526020019081526020016000206000838152602001908152602001600020600d60003373ffffffffffffffffffffffffffffffffffffffff1673ffffffffffffffffffffffffffffffffffffffff16815260200190815260200160002060008481526020019081526020016000206000820160009054906101000a900473ffffffffffffffffffffffffffffffffffffffff168160000160006101000a81548173ffffffffffffffffffffffffffffffffffffffff021916908373ffffffffffffffffffffffffffffffffffffffff16021790555060018201816001019080546123809061508b565b61238b929190613a2c565b5060028201816002019080546123a09061508b565b6123ab929190613a2c565b506003820154816003015560048201816004019080546123ca9061508b565b6123d5929190613a2c565b506005820160009054906101000a900460ff168160050160006101000a81548160ff02191690836003811115612434577f4e487b7100000000000000000000000000000000000000000000000000000000600052602160045260246000fd5b02179055506005820160019054906101000a900460ff168160050160016101000a81548160ff021916908315150217905550600682018160060190805461247a9061508b565b612485929190613a2c565b50600782018160070190805461249a9061508b565b6124a5929190613a2c565b506008820154816008015560098201548160090155600a82015481600a01559050506000600d60003373ffffffffffffffffffffffffffffffffffffffff1673ffffffffffffffffffffffffffffffffffffffff168152602001908152602001600020600084815260200190815260200160002060050160016101000a81548160ff02191690831515021790555033600d60003373ffffffffffffffffffffffffffffffffffffffff1673ffffffffffffffffffffffffffffffffffffffff168152602001908152602001600020600084815260200190815260200160002060000160006101000a81548173ffffffffffffffffffffffffffffffffffffffff021916908373ffffffffffffffffffffffffffffffffffffffff160217905550600d60006125d2846110e7565b73ffffffffffffffffffffffffffffffffffffffff1673ffffffffffffffffffffffffffffffffffffffff1681526020019081526020016000206000838152602001908152602001600020600080820160006101000a81549073ffffffffffffffffffffffffffffffffffffffff02191690556001820160006126559190613ab9565b6002820160006126659190613ab9565b600382016000905560048201600061267d9190613ab9565b6005820160006101000a81549060ff02191690556005820160016101000a81549060ff02191690556006820160006126b59190613ab9565b6007820160006126c59190613ab9565b60088201600090556009820160009055600a8201600090555050600e6000838152602001908152602001600020600080820160006101000a81549073ffffffffffffffffffffffffffffffffffffffff021916905560018201600061272a9190613ab9565b60028201600061273a9190613ab9565b60038201600090556004820160006127529190613ab9565b6005820160006101000a81549060ff02191690556005820160016101000a81549060ff021916905560068201600061278a9190613ab9565b60078201600061279a9190613ab9565b60088201600090556009820160009055600a82016000905550505050565b60606127c3826129fb565b612802576040517f08c379a00000000000000000000000000000000000000000000000000000000081526004016127f990614d13565b60405180910390fd5b600061280c61308c565b9050600081511161282c5760405180602001604052806000815250612857565b80612836846130a3565b60405160200161284792919061498e565b6040516020818303038152906040525b915050919050565b6000600560008473ffffffffffffffffffffffffffffffffffffffff1673ffffffffffffffffffffffffffffffffffffffff16815260200190815260200160002060008373ffffffffffffffffffffffffffffffffffffffff1673ffffffffffffffffffffffffffffffffffffffff16815260200190815260200160002060009054906101000a900460ff16905092915050565b600b60009054906101000a900473ffffffffffffffffffffffffffffffffffffffff1681565b60007f80ac58cd000000000000000000000000000000000000000000000000000000007bffffffffffffffffffffffffffffffffffffffffffffffffffffffff1916827bffffffffffffffffffffffffffffffffffffffffffffffffffffffff191614806129e457507f5b5e139f000000000000000000000000000000000000000000000000000000007bffffffffffffffffffffffffffffffffffffffffffffffffffffffff1916827bffffffffffffffffffffffffffffffffffffffffffffffffffffffff1916145b806129f457506129f382613250565b5b9050919050565b60008073ffffffffffffffffffffffffffffffffffffffff166002600084815260200190815260200160002060009054906101000a900473ffffffffffffffffffffffffffffffffffffffff1673ffffffffffffffffffffffffffffffffffffffff1614159050919050565b600033905090565b816004600083815260200190815260200160002060006101000a81548173ffffffffffffffffffffffffffffffffffffffff021916908373ffffffffffffffffffffffffffffffffffffffff160217905550808273ffffffffffffffffffffffffffffffffffffffff16612ae2836110e7565b73ffffffffffffffffffffffffffffffffffffffff167f8c5be1e5ebec7d5bd14f71427d1e84f3dd0314c0f7b2291e5b200ac8c7c3b92560405160405180910390a45050565b6000612b33826129fb565b612b72576040517f08c379a0000000000000000000000000000000000000000000000000000000008152600401612b6990614c13565b60405180910390fd5b6000612b7d836110e7565b90508073ffffffffffffffffffffffffffffffffffffffff168473ffffffffffffffffffffffffffffffffffffffff161480612bec57508373ffffffffffffffffffffffffffffffffffffffff16612bd484610770565b73ffffffffffffffffffffffffffffffffffffffff16145b80612bfd5750612bfc818561285f565b5b91505092915050565b8273ffffffffffffffffffffffffffffffffffffffff16612c26826110e7565b73ffffffffffffffffffffffffffffffffffffffff1614612c7c576040517f08c379a0000000000000000000000000000000000000000000000000000000008152600401612c7390614cf3565b60405180910390fd5b600073ffffffffffffffffffffffffffffffffffffffff168273ffffffffffffffffffffffffffffffffffffffff161415612cec576040517f08c379a0000000000000000000000000000000000000000000000000000000008152600401612ce390614bd3565b60405180910390fd5b612cf78383836132ba565b612d02600082612a6f565b6001600360008573ffffffffffffffffffffffffffffffffffffffff1673ffffffffffffffffffffffffffffffffffffffff1681526020019081526020016000206000828254612d529190614f7c565b925050819055506001600360008473ffffffffffffffffffffffffffffffffffffffff1673ffffffffffffffffffffffffffffffffffffffff1681526020019081526020016000206000828254612da99190614ef5565b92505081905550816002600083815260200190815260200160002060006101000a81548173ffffffffffffffffffffffffffffffffffffffff021916908373ffffffffffffffffffffffffffffffffffffffff160217905550808273ffffffffffffffffffffffffffffffffffffffff168473ffffffffffffffffffffffffffffffffffffffff167fddf252ad1be2c89b69c2b068fc378daa952ba7f163c4a11628f55a4df523b3ef60405160405180910390a4505050565b600073ffffffffffffffffffffffffffffffffffffffff168273ffffffffffffffffffffffffffffffffffffffff161415612ed2576040517f08c379a0000000000000000000000000000000000000000000000000000000008152600401612ec990614c93565b60405180910390fd5b612edb816129fb565b15612f1b576040517f08c379a0000000000000000000000000000000000000000000000000000000008152600401612f1290614b93565b60405180910390fd5b612f27600083836132ba565b6001600360008473ffffffffffffffffffffffffffffffffffffffff1673ffffffffffffffffffffffffffffffffffffffff1681526020019081526020016000206000828254612f779190614ef5565b92505081905550816002600083815260200190815260200160002060006101000a81548173ffffffffffffffffffffffffffffffffffffffff021916908373ffffffffffffffffffffffffffffffffffffffff160217905550808273ffffffffffffffffffffffffffffffffffffffff16600073ffffffffffffffffffffffffffffffffffffffff167fddf252ad1be2c89b69c2b068fc378daa952ba7f163c4a11628f55a4df523b3ef60405160405180910390a45050565b61303b848484612c06565b613047848484846133ce565b613086576040517f08c379a000000000000000000000000000000000000000000000000000000000815260040161307d90614b73565b60405180910390fd5b50505050565b606060405180602001604052806000815250905090565b606060008214156130eb576040518060400160405280600181526020017f3000000000000000000000000000000000000000000000000000000000000000815250905061324b565b600082905060005b6000821461311d578080613106906150bd565b915050600a826131169190614f4b565b91506130f3565b60008167ffffffffffffffff81111561315f577f4e487b7100000000000000000000000000000000000000000000000000000000600052604160045260246000fd5b6040519080825280601f01601f1916602001820160405280156131915781602001600182028036833780820191505090505b5090505b60008514613244576001826131aa9190614f7c565b9150600a856131b99190615106565b60306131c59190614ef5565b60f81b818381518110613201577f4e487b7100000000000000000000000000000000000000000000000000000000600052603260045260246000fd5b60200101907effffffffffffffffffffffffffffffffffffffffffffffffffffffffffffff1916908160001a905350600a8561323d9190614f4b565b9450613195565b8093505050505b919050565b60007f01ffc9a7000000000000000000000000000000000000000000000000000000007bffffffffffffffffffffffffffffffffffffffffffffffffffffffff1916827bffffffffffffffffffffffffffffffffffffffffffffffffffffffff1916149050919050565b6132c5838383613565565b600073ffffffffffffffffffffffffffffffffffffffff168373ffffffffffffffffffffffffffffffffffffffff161415613308576133038161356a565b613347565b8173ffffffffffffffffffffffffffffffffffffffff168373ffffffffffffffffffffffffffffffffffffffff16146133465761334583826135b3565b5b5b600073ffffffffffffffffffffffffffffffffffffffff168273ffffffffffffffffffffffffffffffffffffffff16141561338a5761338581613720565b6133c9565b8273ffffffffffffffffffffffffffffffffffffffff168273ffffffffffffffffffffffffffffffffffffffff16146133c8576133c78282613863565b5b5b505050565b60006133ef8473ffffffffffffffffffffffffffffffffffffffff166138e2565b15613558578373ffffffffffffffffffffffffffffffffffffffff1663150b7a02613418612a67565b8786866040518563ffffffff1660e01b815260040161343a94939291906149cd565b602060405180830381600087803b15801561345457600080fd5b505af192505050801561348557506040513d601f19601f820116820180604052508101906134829190613e34565b60015b613508573d80600081146134b5576040519150601f19603f3d011682016040523d82523d6000602084013e6134ba565b606091505b50600081511415613500576040517f08c379a00000000000000000000000000000000000000000000000000000000081526004016134f790614b73565b60405180910390fd5b805181602001fd5b63150b7a0260e01b7bffffffffffffffffffffffffffffffffffffffffffffffffffffffff1916817bffffffffffffffffffffffffffffffffffffffffffffffffffffffff19161491505061355d565b600190505b949350505050565b505050565b6008805490506009600083815260200190815260200160002081905550600881908060018154018082558091505060019003906000526020600020016000909190919091505550565b600060016135c084611199565b6135ca9190614f7c565b90506000600760008481526020019081526020016000205490508181146136af576000600660008673ffffffffffffffffffffffffffffffffffffffff1673ffffffffffffffffffffffffffffffffffffffff168152602001908152602001600020600084815260200190815260200160002054905080600660008773ffffffffffffffffffffffffffffffffffffffff1673ffffffffffffffffffffffffffffffffffffffff168152602001908152602001600020600084815260200190815260200160002081905550816007600083815260200190815260200160002081905550505b6007600084815260200190815260200160002060009055600660008573ffffffffffffffffffffffffffffffffffffffff1673ffffffffffffffffffffffffffffffffffffffff16815260200190815260200160002060008381526020019081526020016000206000905550505050565b600060016008805490506137349190614f7c565b905060006009600084815260200190815260200160002054905060006008838154811061378a577f4e487b7100000000000000000000000000000000000000000000000000000000600052603260045260246000fd5b9060005260206000200154905080600883815481106137d2577f4e487b7100000000000000000000000000000000000000000000000000000000600052603260045260246000fd5b906000526020600020018190555081600960008381526020019081526020016000208190555060096000858152602001908152602001600020600090556008805480613847577f4e487b7100000000000000000000000000000000000000000000000000000000600052603160045260246000fd5b6001900381819060005260206000200160009055905550505050565b600061386e83611199565b905081600660008573ffffffffffffffffffffffffffffffffffffffff1673ffffffffffffffffffffffffffffffffffffffff168152602001908152602001600020600083815260200190815260200160002081905550806007600084815260200190815260200160002081905550505050565b600080823b905060008111915050919050565b8280546139019061508b565b90600052602060002090601f016020900481019282613923576000855561396a565b82601f1061393c57805160ff191683800117855561396a565b8280016001018555821561396a579182015b8281111561396957825182559160200191906001019061394e565b5b5090506139779190613af9565b5090565b604051806101800160405280600073ffffffffffffffffffffffffffffffffffffffff16815260200160608152602001606081526020016000815260200160608152602001600060038111156139fa577f4e487b7100000000000000000000000000000000000000000000000000000000600052602160045260246000fd5b815260200160001515815260200160608152602001606081526020016000815260200160008152602001600081525090565b828054613a389061508b565b90600052602060002090601f016020900481019282613a5a5760008555613aa8565b82601f10613a6b5780548555613aa8565b82800160010185558215613aa857600052602060002091601f016020900482015b82811115613aa7578254825591600101919060010190613a8c565b5b509050613ab59190613af9565b5090565b508054613ac59061508b565b6000825580601f10613ad75750613af6565b601f016020900490600052602060002090810190613af59190613af9565b5b50565b5b80821115613b12576000816000905550600101613afa565b5090565b6000613b29613b2484614e41565b614e10565b905082815260208101848484011115613b4157600080fd5b613b4c848285615049565b509392505050565b6000613b67613b6284614e71565b614e10565b905082815260208101848484011115613b7f57600080fd5b613b8a848285615049565b509392505050565b600081359050613ba181615247565b92915050565b600081359050613bb68161525e565b92915050565b600081359050613bcb81615275565b92915050565b600081519050613be081615275565b92915050565b600082601f830112613bf757600080fd5b8135613c07848260208601613b16565b91505092915050565b600081359050613c1f8161528c565b92915050565b600082601f830112613c3657600080fd5b8135613c46848260208601613b54565b91505092915050565b600081359050613c5e8161529c565b92915050565b600060208284031215613c7657600080fd5b6000613c8484828501613b92565b91505092915050565b60008060408385031215613ca057600080fd5b6000613cae85828601613b92565b9250506020613cbf85828601613b92565b9150509250929050565b600080600060608486031215613cde57600080fd5b6000613cec86828701613b92565b9350506020613cfd86828701613b92565b9250506040613d0e86828701613c4f565b9150509250925092565b60008060008060808587031215613d2e57600080fd5b6000613d3c87828801613b92565b9450506020613d4d87828801613b92565b9350506040613d5e87828801613c4f565b925050606085013567ffffffffffffffff811115613d7b57600080fd5b613d8787828801613be6565b91505092959194509250565b60008060408385031215613da657600080fd5b6000613db485828601613b92565b9250506020613dc585828601613ba7565b9150509250929050565b60008060408385031215613de257600080fd5b6000613df085828601613b92565b9250506020613e0185828601613c4f565b9150509250929050565b600060208284031215613e1d57600080fd5b6000613e2b84828501613bbc565b91505092915050565b600060208284031215613e4657600080fd5b6000613e5484828501613bd1565b91505092915050565b600080600080600080600080610100898b031215613e7a57600080fd5b600089013567ffffffffffffffff811115613e9457600080fd5b613ea08b828c01613c25565b985050602089013567ffffffffffffffff811115613ebd57600080fd5b613ec98b828c01613c25565b975050604089013567ffffffffffffffff811115613ee657600080fd5b613ef28b828c01613c25565b9650506060613f038b828c01613c10565b955050608089013567ffffffffffffffff811115613f2057600080fd5b613f2c8b828c01613c25565b94505060a089013567ffffffffffffffff811115613f4957600080fd5b613f558b828c01613c25565b93505060c0613f668b828c01613c4f565b92505060e0613f778b828c01613c4f565b9150509295985092959890939650565b600060208284031215613f9957600080fd5b6000613fa784828501613c4f565b91505092915050565b60008060408385031215613fc357600080fd5b6000613fd185828601613c4f565b9250506020613fe285828601613ba7565b9150509250929050565b613ff581614fb0565b82525050565b61400481614fb0565b82525050565b61401381614fc2565b82525050565b61402281614fc2565b82525050565b600061403382614ea1565b61403d8185614eb7565b935061404d818560208601615058565b61405681615222565b840191505092915050565b61406a81615037565b82525050565b61407981615037565b82525050565b600061408a82614eac565b6140948185614ec8565b93506140a4818560208601615058565b6140ad81615222565b840191505092915050565b60006140c382614eac565b6140cd8185614ed9565b93506140dd818560208601615058565b6140e681615222565b840191505092915050565b60006140fc82614eac565b6141068185614eea565b9350614116818560208601615058565b80840191505092915050565b600061412f600d83614ed9565b91507f6576656e746f2063726961646f000000000000000000000000000000000000006000830152602082019050919050565b600061416f602b83614ed9565b91507f455243373231456e756d657261626c653a206f776e657220696e646578206f7560008301527f74206f6620626f756e64730000000000000000000000000000000000000000006020830152604082019050919050565b60006141d5603283614ed9565b91507f4552433732313a207472616e7366657220746f206e6f6e20455243373231526560008301527f63656976657220696d706c656d656e74657200000000000000000000000000006020830152604082019050919050565b600061423b601c83614ed9565b91507f4552433732313a20746f6b656e20616c7265616479206d696e746564000000006000830152602082019050919050565b600061427b601783614ed9565b91507f6d73672073656e646572206e6f7420616c6c6f776564210000000000000000006000830152602082019050919050565b60006142bb602483614ed9565b91507f4552433732313a207472616e7366657220746f20746865207a65726f2061646460008301527f72657373000000000000000000000000000000000000000000000000000000006020830152604082019050919050565b6000614321601983614ed9565b91507f4552433732313a20617070726f766520746f2063616c6c6572000000000000006000830152602082019050919050565b6000614361602c83614ed9565b91507f4552433732313a206f70657261746f7220717565727920666f72206e6f6e657860008301527f697374656e7420746f6b656e00000000000000000000000000000000000000006020830152604082019050919050565b60006143c7603883614ed9565b91507f4552433732313a20617070726f76652063616c6c6572206973206e6f74206f7760008301527f6e6572206e6f7220617070726f76656420666f7220616c6c00000000000000006020830152604082019050919050565b600061442d602a83614ed9565b91507f4552433732313a2062616c616e636520717565727920666f7220746865207a6560008301527f726f2061646472657373000000000000000000000000000000000000000000006020830152604082019050919050565b6000614493602983614ed9565b91507f4552433732313a206f776e657220717565727920666f72206e6f6e657869737460008301527f656e7420746f6b656e00000000000000000000000000000000000000000000006020830152604082019050919050565b60006144f9602083614ed9565b91507f4552433732313a206d696e7420746f20746865207a65726f20616464726573736000830152602082019050919050565b6000614539602c83614ed9565b91507f4552433732313a20617070726f76656420717565727920666f72206e6f6e657860008301527f697374656e7420746f6b656e00000000000000000000000000000000000000006020830152604082019050919050565b600061459f601a83614ed9565b91507f796f7572207061796d656e74206973206e6f7420656e6f7567680000000000006000830152602082019050919050565b60006145df602983614ed9565b91507f4552433732313a207472616e73666572206f6620746f6b656e2074686174206960008301527f73206e6f74206f776e00000000000000000000000000000000000000000000006020830152604082019050919050565b6000614645602f83614ed9565b91507f4552433732314d657461646174613a2055524920717565727920666f72206e6f60008301527f6e6578697374656e7420746f6b656e00000000000000000000000000000000006020830152604082019050919050565b60006146ab601483614ed9565b91507f63617264206973206e6f7420666f722073616c650000000000000000000000006000830152602082019050919050565b60006146eb601e83614ed9565b91507f796f752061726520746865206f776e6572206f662074686973206361726400006000830152602082019050919050565b600061472b602183614ed9565b91507f4552433732313a20617070726f76616c20746f2063757272656e74206f776e6560008301527f72000000000000000000000000000000000000000000000000000000000000006020830152604082019050919050565b6000614791603183614ed9565b91507f4552433732313a207472616e736665722063616c6c6572206973206e6f74206f60008301527f776e6572206e6f7220617070726f7665640000000000000000000000000000006020830152604082019050919050565b60006147f7602c83614ed9565b91507f455243373231456e756d657261626c653a20676c6f62616c20696e646578206f60008301527f7574206f6620626f756e647300000000000000000000000000000000000000006020830152604082019050919050565b6000610180830160008301516148696000860182613fec565b5060208301518482036020860152614881828261407f565b9150506040830151848203604086015261489b828261407f565b91505060608301516148b06060860182614970565b50608083015184820360808601526148c8828261407f565b91505060a08301516148dd60a0860182614061565b5060c08301516148f060c086018261400a565b5060e083015184820360e0860152614908828261407f565b915050610100830151848203610100860152614924828261407f565b91505061012083015161493b610120860182614970565b50610140830151614950610140860182614970565b50610160830151614965610160860182614970565b508091505092915050565b6149798161502d565b82525050565b6149888161502d565b82525050565b600061499a82856140f1565b91506149a682846140f1565b91508190509392505050565b60006020820190506149c76000830184613ffb565b92915050565b60006080820190506149e26000830187613ffb565b6149ef6020830186613ffb565b6149fc604083018561497f565b8181036060830152614a0e8184614028565b905095945050505050565b600061018082019050614a2f600083018f613ffb565b8181036020830152614a41818e6140b8565b90508181036040830152614a55818d6140b8565b9050614a64606083018c61497f565b8181036080830152614a76818b6140b8565b9050614a8560a083018a614070565b614a9260c0830189614019565b81810360e0830152614aa481886140b8565b9050818103610100830152614ab981876140b8565b9050614ac961012083018661497f565b614ad761014083018561497f565b614ae561016083018461497f565b9d9c50505050505050505050505050565b6000602082019050614b0b6000830184614019565b92915050565b60006020820190508181036000830152614b2b81846140b8565b905092915050565b60006020820190508181036000830152614b4c81614122565b9050919050565b60006020820190508181036000830152614b6c81614162565b9050919050565b60006020820190508181036000830152614b8c816141c8565b9050919050565b60006020820190508181036000830152614bac8161422e565b9050919050565b60006020820190508181036000830152614bcc8161426e565b9050919050565b60006020820190508181036000830152614bec816142ae565b9050919050565b60006020820190508181036000830152614c0c81614314565b9050919050565b60006020820190508181036000830152614c2c81614354565b9050919050565b60006020820190508181036000830152614c4c816143ba565b9050919050565b60006020820190508181036000830152614c6c81614420565b9050919050565b60006020820190508181036000830152614c8c81614486565b9050919050565b60006020820190508181036000830152614cac816144ec565b9050919050565b60006020820190508181036000830152614ccc8161452c565b9050919050565b60006020820190508181036000830152614cec81614592565b9050919050565b60006020820190508181036000830152614d0c816145d2565b9050919050565b60006020820190508181036000830152614d2c81614638565b9050919050565b60006020820190508181036000830152614d4c8161469e565b9050919050565b60006020820190508181036000830152614d6c816146de565b9050919050565b60006020820190508181036000830152614d8c8161471e565b9050919050565b60006020820190508181036000830152614dac81614784565b9050919050565b60006020820190508181036000830152614dcc816147ea565b9050919050565b60006020820190508181036000830152614ded8184614850565b905092915050565b6000602082019050614e0a600083018461497f565b92915050565b6000604051905081810181811067ffffffffffffffff82111715614e3757614e366151f3565b5b8060405250919050565b600067ffffffffffffffff821115614e5c57614e5b6151f3565b5b601f19601f8301169050602081019050919050565b600067ffffffffffffffff821115614e8c57614e8b6151f3565b5b601f19601f8301169050602081019050919050565b600081519050919050565b600081519050919050565b600082825260208201905092915050565b600082825260208201905092915050565b600082825260208201905092915050565b600081905092915050565b6000614f008261502d565b9150614f0b8361502d565b9250827fffffffffffffffffffffffffffffffffffffffffffffffffffffffffffffffff03821115614f4057614f3f615137565b5b828201905092915050565b6000614f568261502d565b9150614f618361502d565b925082614f7157614f70615166565b5b828204905092915050565b6000614f878261502d565b9150614f928361502d565b925082821015614fa557614fa4615137565b5b828203905092915050565b6000614fbb8261500d565b9050919050565b60008115159050919050565b60007fffffffff0000000000000000000000000000000000000000000000000000000082169050919050565b600081905061500882615233565b919050565b600073ffffffffffffffffffffffffffffffffffffffff82169050919050565b6000819050919050565b600061504282614ffa565b9050919050565b82818337600083830152505050565b60005b8381101561507657808201518184015260208101905061505b565b83811115615085576000848401525b50505050565b600060028204905060018216806150a357607f821691505b602082108114156150b7576150b66151c4565b5b50919050565b60006150c88261502d565b91507fffffffffffffffffffffffffffffffffffffffffffffffffffffffffffffffff8214156150fb576150fa615137565b5b600182019050919050565b60006151118261502d565b915061511c8361502d565b92508261512c5761512b615166565b5b828206905092915050565b7f4e487b7100000000000000000000000000000000000000000000000000000000600052601160045260246000fd5b7f4e487b7100000000000000000000000000000000000000000000000000000000600052601260045260246000fd5b7f4e487b7100000000000000000000000000000000000000000000000000000000600052602160045260246000fd5b7f4e487b7100000000000000000000000000000000000000000000000000000000600052602260045260246000fd5b7f4e487b7100000000000000000000000000000000000000000000000000000000600052604160045260246000fd5b6000601f19601f8301169050919050565b6004811061524457615243615195565b5b50565b61525081614fb0565b811461525b57600080fd5b50565b61526781614fc2565b811461527257600080fd5b50565b61527e81614fce565b811461528957600080fd5b50565b6004811061529957600080fd5b50565b6152a58161502d565b81146152b057600080fd5b5056fea26469706673582212209b4e510232bb761d575f9339740e5e8a844c64aef97360a8074d8b295dbdacf264736f6c63430008000033",
  "immutableReferences": {},
  "source": "// SPDX-License-Identifier: MIT\npragma solidity >=0.7.0 <0.9.0;\n\n// import \"../node_modules/@openzeppelin/contracts/token/ERC721/extensions/IERC721Enumerable.sol\";\nimport \"../node_modules/@openzeppelin/contracts/token/ERC721/extensions/ERC721Enumerable.sol\";\nimport \"../node_modules/@openzeppelin/contracts/token/ERC721/ERC721.sol\";\n\ncontract Cards is ERC721Enumerable{\n    uint256 public nextTokenId;\n    address public admin;\n\n    constructor() ERC721(\"Pixel Art\", \"PAR\") {\n        admin = msg.sender;\n    }\n\n    enum Rareness {\n        Normal,\n        Rare,\n        Festive,\n        Relic\n    }\n\n  struct Card {\n    address owner;\n    string name;\n    string urlPic;\n    uint256 date;\n    string description;\n    Rareness rareness;\n    bool isForSelling;\n    string nationality;\n    // string league;\n    string team;\n    uint256 amountMinted;\n    uint256 price;\n    uint tokenId;\n  }\n\n\n    mapping(address => bool) public admins;\n    mapping(address => mapping(uint256 => Card)) public accountCollection;\n    mapping(uint256 => Card) market;\n\n    event evento( string );\n\n    function getyMyCards(uint256 i) external view returns (Card memory) {\n        return accountCollection[msg.sender][i];\n    }\n\n    function getCardMarket(uint256 i) external view returns (Card memory) {\n        return market[i];\n    }\n    \n    function mint(string memory name, \n        string memory urlPic,\n        string memory description,\n        Rareness rareness,\n        string memory nationality,\n        // string memory league,\n        string memory team,\n        uint amountMinted,\n        uint price\n        ) external {\n        require(msg.sender == admin || admins[msg.sender], 'msg sender not allowed!');\n        //safeMint is not working, fix it later?\n        // _safeMint(address(this), nextTokenId);\n        _mint(address(this), nextTokenId);\n\n        Card memory card = Card({\n            owner: address(this),\n            name: name,\n            urlPic: urlPic,\n            date: block.timestamp,\n            description: description,\n            rareness: rareness,\n\n            isForSelling: true,\n            nationality: nationality,\n            // league: league,\n            team: team,\n            amountMinted: amountMinted,\n            price: price,\n            tokenId: nextTokenId\n        });\n        \n        accountCollection[address(this)][nextTokenId] = card;\n        market[nextTokenId] = card;\n        nextTokenId++;\n        emit evento(\"evento criado\");\n     }\n\n     function setIsForSelling(uint i, bool isForSelling) external {\n         accountCollection[msg.sender][i].isForSelling = isForSelling;\n         market[i].isForSelling = isForSelling;\n     }\n\n    // buy any card from market\n     function buyCard(uint cardId) external payable{\n         require(msg.sender != market[cardId].owner, 'you are the owner of this card');\n         require(market[cardId].isForSelling, 'card is not for sale');\n         require(msg.value >= market[cardId].price, 'your payment is not enough');\n    \n        address payable seller_address = payable(address(ownerOf(cardId)));\n        seller_address.transfer(msg.value);\n        //copying card from seller account to new owne\n         accountCollection[msg.sender][cardId] = accountCollection[ownerOf(cardId)][cardId];\n         accountCollection[msg.sender][cardId].isForSelling = false;\n         accountCollection[msg.sender][cardId].owner = msg.sender;\n        //now deleting the card from the previous owner and also from the market\n         delete accountCollection[ownerOf(cardId)][cardId];\n         delete market[cardId];\n        //  add some event of buying here\n     }\n\n    // function _baseURI() internal pure override returns (string memory) {\n    //     return \"\";\n    // }\n}\n",
  "sourcePath": "/Volumes/APPLE HDD/reactprojects/next-mongodb/contracts/Cards.sol",
  "compiler": {
    "name": "solc",
    "version": "0.8.0+commit.c7dfd78e.Emscripten.clang"
  },
  "schemaVersion": "3.4.3",
  "updatedAt": "2021-09-14T02:35:15.880Z",
  "networkType": "ethereum",
  "devdoc": {
    "kind": "dev",
    "methods": {
      "approve(address,uint256)": {
        "details": "See {IERC721-approve}."
      },
      "balanceOf(address)": {
        "details": "See {IERC721-balanceOf}."
      },
      "getApproved(uint256)": {
        "details": "See {IERC721-getApproved}."
      },
      "isApprovedForAll(address,address)": {
        "details": "See {IERC721-isApprovedForAll}."
      },
      "name()": {
        "details": "See {IERC721Metadata-name}."
      },
      "ownerOf(uint256)": {
        "details": "See {IERC721-ownerOf}."
      },
      "safeTransferFrom(address,address,uint256)": {
        "details": "See {IERC721-safeTransferFrom}."
      },
      "safeTransferFrom(address,address,uint256,bytes)": {
        "details": "See {IERC721-safeTransferFrom}."
      },
      "setApprovalForAll(address,bool)": {
        "details": "See {IERC721-setApprovalForAll}."
      },
      "supportsInterface(bytes4)": {
        "details": "See {IERC165-supportsInterface}."
      },
      "symbol()": {
        "details": "See {IERC721Metadata-symbol}."
      },
      "tokenByIndex(uint256)": {
        "details": "See {IERC721Enumerable-tokenByIndex}."
      },
      "tokenOfOwnerByIndex(address,uint256)": {
        "details": "See {IERC721Enumerable-tokenOfOwnerByIndex}."
      },
      "tokenURI(uint256)": {
        "details": "See {IERC721Metadata-tokenURI}."
      },
      "totalSupply()": {
        "details": "See {IERC721Enumerable-totalSupply}."
      },
      "transferFrom(address,address,uint256)": {
        "details": "See {IERC721-transferFrom}."
      }
    },
    "version": 1
  },
  "userdoc": {
    "kind": "user",
    "methods": {},
    "version": 1
  }
}