{
  "contractName": "Cards",
  "abi": [
    {
      "inputs": [],
      "stateMutability": "nonpayable",
      "type": "constructor"
    },
    {
      "anonymous": false,
      "inputs": [
        {
          "indexed": true,
          "internalType": "address",
          "name": "owner",
          "type": "address"
        },
        {
          "indexed": true,
          "internalType": "address",
          "name": "approved",
          "type": "address"
        },
        {
          "indexed": true,
          "internalType": "uint256",
          "name": "tokenId",
          "type": "uint256"
        }
      ],
      "name": "Approval",
      "type": "event"
    },
    {
      "anonymous": false,
      "inputs": [
        {
          "indexed": true,
          "internalType": "address",
          "name": "owner",
          "type": "address"
        },
        {
          "indexed": true,
          "internalType": "address",
          "name": "operator",
          "type": "address"
        },
        {
          "indexed": false,
          "internalType": "bool",
          "name": "approved",
          "type": "bool"
        }
      ],
      "name": "ApprovalForAll",
      "type": "event"
    },
    {
      "anonymous": false,
      "inputs": [
        {
          "indexed": true,
          "internalType": "address",
          "name": "from",
          "type": "address"
        },
        {
          "indexed": true,
          "internalType": "address",
          "name": "to",
          "type": "address"
        },
        {
          "indexed": true,
          "internalType": "uint256",
          "name": "tokenId",
          "type": "uint256"
        }
      ],
      "name": "Transfer",
      "type": "event"
    },
    {
      "anonymous": false,
      "inputs": [
        {
          "indexed": false,
          "internalType": "string",
          "name": "",
          "type": "string"
        }
      ],
      "name": "evento",
      "type": "event"
    },
    {
      "inputs": [],
      "name": "admin",
      "outputs": [
        {
          "internalType": "address",
          "name": "",
          "type": "address"
        }
      ],
      "stateMutability": "view",
      "type": "function",
      "constant": true
    },
    {
      "inputs": [
        {
          "internalType": "address",
          "name": "",
          "type": "address"
        }
      ],
      "name": "admins",
      "outputs": [
        {
          "internalType": "bool",
          "name": "",
          "type": "bool"
        }
      ],
      "stateMutability": "view",
      "type": "function",
      "constant": true
    },
    {
      "inputs": [
        {
          "internalType": "address",
          "name": "to",
          "type": "address"
        },
        {
          "internalType": "uint256",
          "name": "tokenId",
          "type": "uint256"
        }
      ],
      "name": "approve",
      "outputs": [],
      "stateMutability": "nonpayable",
      "type": "function"
    },
    {
      "inputs": [
        {
          "internalType": "address",
          "name": "owner",
          "type": "address"
        }
      ],
      "name": "balanceOf",
      "outputs": [
        {
          "internalType": "uint256",
          "name": "",
          "type": "uint256"
        }
      ],
      "stateMutability": "view",
      "type": "function",
      "constant": true
    },
    {
      "inputs": [
        {
          "internalType": "uint256",
          "name": "tokenId",
          "type": "uint256"
        }
      ],
      "name": "getApproved",
      "outputs": [
        {
          "internalType": "address",
          "name": "",
          "type": "address"
        }
      ],
      "stateMutability": "view",
      "type": "function",
      "constant": true
    },
    {
      "inputs": [
        {
          "internalType": "address",
          "name": "owner",
          "type": "address"
        },
        {
          "internalType": "address",
          "name": "operator",
          "type": "address"
        }
      ],
      "name": "isApprovedForAll",
      "outputs": [
        {
          "internalType": "bool",
          "name": "",
          "type": "bool"
        }
      ],
      "stateMutability": "view",
      "type": "function",
      "constant": true
    },
    {
      "inputs": [
        {
          "internalType": "address",
          "name": "",
          "type": "address"
        },
        {
          "internalType": "uint256",
          "name": "",
          "type": "uint256"
        }
      ],
      "name": "myRepository",
      "outputs": [
        {
          "internalType": "address",
          "name": "owner",
          "type": "address"
        },
        {
          "internalType": "string",
          "name": "name",
          "type": "string"
        },
        {
          "internalType": "string",
          "name": "urlPic",
          "type": "string"
        },
        {
          "internalType": "string",
          "name": "description",
          "type": "string"
        }
      ],
      "stateMutability": "view",
      "type": "function",
      "constant": true
    },
    {
      "inputs": [],
      "name": "name",
      "outputs": [
        {
          "internalType": "string",
          "name": "",
          "type": "string"
        }
      ],
      "stateMutability": "view",
      "type": "function",
      "constant": true
    },
    {
      "inputs": [],
      "name": "nextTokenId",
      "outputs": [
        {
          "internalType": "uint256",
          "name": "",
          "type": "uint256"
        }
      ],
      "stateMutability": "view",
      "type": "function",
      "constant": true
    },
    {
      "inputs": [
        {
          "internalType": "uint256",
          "name": "tokenId",
          "type": "uint256"
        }
      ],
      "name": "ownerOf",
      "outputs": [
        {
          "internalType": "address",
          "name": "",
          "type": "address"
        }
      ],
      "stateMutability": "view",
      "type": "function",
      "constant": true
    },
    {
      "inputs": [
        {
          "internalType": "address",
          "name": "from",
          "type": "address"
        },
        {
          "internalType": "address",
          "name": "to",
          "type": "address"
        },
        {
          "internalType": "uint256",
          "name": "tokenId",
          "type": "uint256"
        }
      ],
      "name": "safeTransferFrom",
      "outputs": [],
      "stateMutability": "nonpayable",
      "type": "function"
    },
    {
      "inputs": [
        {
          "internalType": "address",
          "name": "from",
          "type": "address"
        },
        {
          "internalType": "address",
          "name": "to",
          "type": "address"
        },
        {
          "internalType": "uint256",
          "name": "tokenId",
          "type": "uint256"
        },
        {
          "internalType": "bytes",
          "name": "_data",
          "type": "bytes"
        }
      ],
      "name": "safeTransferFrom",
      "outputs": [],
      "stateMutability": "nonpayable",
      "type": "function"
    },
    {
      "inputs": [
        {
          "internalType": "address",
          "name": "operator",
          "type": "address"
        },
        {
          "internalType": "bool",
          "name": "approved",
          "type": "bool"
        }
      ],
      "name": "setApprovalForAll",
      "outputs": [],
      "stateMutability": "nonpayable",
      "type": "function"
    },
    {
      "inputs": [
        {
          "internalType": "bytes4",
          "name": "interfaceId",
          "type": "bytes4"
        }
      ],
      "name": "supportsInterface",
      "outputs": [
        {
          "internalType": "bool",
          "name": "",
          "type": "bool"
        }
      ],
      "stateMutability": "view",
      "type": "function",
      "constant": true
    },
    {
      "inputs": [],
      "name": "symbol",
      "outputs": [
        {
          "internalType": "string",
          "name": "",
          "type": "string"
        }
      ],
      "stateMutability": "view",
      "type": "function",
      "constant": true
    },
    {
      "inputs": [
        {
          "internalType": "uint256",
          "name": "index",
          "type": "uint256"
        }
      ],
      "name": "tokenByIndex",
      "outputs": [
        {
          "internalType": "uint256",
          "name": "",
          "type": "uint256"
        }
      ],
      "stateMutability": "view",
      "type": "function",
      "constant": true
    },
    {
      "inputs": [
        {
          "internalType": "address",
          "name": "owner",
          "type": "address"
        },
        {
          "internalType": "uint256",
          "name": "index",
          "type": "uint256"
        }
      ],
      "name": "tokenOfOwnerByIndex",
      "outputs": [
        {
          "internalType": "uint256",
          "name": "",
          "type": "uint256"
        }
      ],
      "stateMutability": "view",
      "type": "function",
      "constant": true
    },
    {
      "inputs": [
        {
          "internalType": "uint256",
          "name": "tokenId",
          "type": "uint256"
        }
      ],
      "name": "tokenURI",
      "outputs": [
        {
          "internalType": "string",
          "name": "",
          "type": "string"
        }
      ],
      "stateMutability": "view",
      "type": "function",
      "constant": true
    },
    {
      "inputs": [],
      "name": "totalSupply",
      "outputs": [
        {
          "internalType": "uint256",
          "name": "",
          "type": "uint256"
        }
      ],
      "stateMutability": "view",
      "type": "function",
      "constant": true
    },
    {
      "inputs": [
        {
          "internalType": "address",
          "name": "from",
          "type": "address"
        },
        {
          "internalType": "address",
          "name": "to",
          "type": "address"
        },
        {
          "internalType": "uint256",
          "name": "tokenId",
          "type": "uint256"
        }
      ],
      "name": "transferFrom",
      "outputs": [],
      "stateMutability": "nonpayable",
      "type": "function"
    },
    {
      "inputs": [
        {
          "internalType": "uint256",
          "name": "i",
          "type": "uint256"
        }
      ],
      "name": "getyMyCards",
      "outputs": [
        {
          "components": [
            {
              "internalType": "address",
              "name": "owner",
              "type": "address"
            },
            {
              "internalType": "string",
              "name": "name",
              "type": "string"
            },
            {
              "internalType": "string",
              "name": "urlPic",
              "type": "string"
            },
            {
              "internalType": "string",
              "name": "description",
              "type": "string"
            }
          ],
          "internalType": "struct Cards.Card",
          "name": "",
          "type": "tuple"
        }
      ],
      "stateMutability": "view",
      "type": "function",
      "constant": true
    },
    {
      "inputs": [
        {
          "internalType": "uint256",
          "name": "i",
          "type": "uint256"
        }
      ],
      "name": "getCardMarket",
      "outputs": [
        {
          "components": [
            {
              "internalType": "address",
              "name": "owner",
              "type": "address"
            },
            {
              "internalType": "string",
              "name": "name",
              "type": "string"
            },
            {
              "internalType": "string",
              "name": "urlPic",
              "type": "string"
            },
            {
              "internalType": "string",
              "name": "description",
              "type": "string"
            }
          ],
          "internalType": "struct Cards.Card",
          "name": "",
          "type": "tuple"
        }
      ],
      "stateMutability": "view",
      "type": "function",
      "constant": true
    },
    {
      "inputs": [],
      "name": "mint",
      "outputs": [],
      "stateMutability": "nonpayable",
      "type": "function"
    }
  ],
  "bytecode": "0x60806040523480156200001157600080fd5b506040518060400160405280600981526020017f506978656c2041727400000000000000000000000000000000000000000000008152506040518060400160405280600381526020017f5041520000000000000000000000000000000000000000000000000000000000815250816000908051906020019062000096929190620000f9565b508060019080519060200190620000af929190620000f9565b50505033600b60006101000a81548173ffffffffffffffffffffffffffffffffffffffff021916908373ffffffffffffffffffffffffffffffffffffffff1602179055506200020e565b8280546200010790620001a9565b90600052602060002090601f0160209004810192826200012b576000855562000177565b82601f106200014657805160ff191683800117855562000177565b8280016001018555821562000177579182015b828111156200017657825182559160200191906001019062000159565b5b5090506200018691906200018a565b5090565b5b80821115620001a55760008160009055506001016200018b565b5090565b60006002820490506001821680620001c257607f821691505b60208210811415620001d957620001d8620001df565b5b50919050565b7f4e487b7100000000000000000000000000000000000000000000000000000000600052602260045260246000fd5b613b63806200021e6000396000f3fe608060405234801561001057600080fd5b506004361061014d5760003560e01c80636352211e116100c3578063a43e119c1161007c578063a43e119c146103c7578063a80c0248146103f7578063b88d4fde14610427578063c87b56dd14610443578063e985e9c514610473578063f851a440146104a35761014d565b80636352211e146102dc57806370a082311461030c57806375794a3c1461033c578063827e3f8b1461035a57806395d89b411461038d578063a22cb465146103ab5761014d565b806318160ddd1161011557806318160ddd146101f657806323b872dd146102145780632f745c591461023057806342842e0e14610260578063429b62e51461027c5780634f6ccce7146102ac5761014d565b806301ffc9a71461015257806306fdde0314610182578063081812fc146101a0578063095ea7b3146101d05780631249c58b146101ec575b600080fd5b61016c60048036038101906101679190612b36565b6104c1565b604051610179919061344d565b60405180910390f35b61018a61053b565b6040516101979190613468565b60405180910390f35b6101ba60048036038101906101b59190612b88565b6105cd565b6040516101c7919061338c565b60405180910390f35b6101ea60048036038101906101e59190612afa565b610652565b005b6101f461076a565b005b6101fe610a2e565b60405161020b91906136cc565b60405180910390f35b61022e600480360381019061022991906129f4565b610a3b565b005b61024a60048036038101906102459190612afa565b610a9b565b60405161025791906136cc565b60405180910390f35b61027a600480360381019061027591906129f4565b610b40565b005b6102966004803603810190610291919061298f565b610b60565b6040516102a3919061344d565b60405180910390f35b6102c660048036038101906102c19190612b88565b610b80565b6040516102d391906136cc565b60405180910390f35b6102f660048036038101906102f19190612b88565b610c17565b604051610303919061338c565b60405180910390f35b6103266004803603810190610321919061298f565b610cc9565b60405161033391906136cc565b60405180910390f35b610344610d81565b60405161035191906136cc565b60405180910390f35b610374600480360381019061036f9190612afa565b610d87565b60405161038494939291906133f3565b60405180910390f35b610395610f7c565b6040516103a29190613468565b60405180910390f35b6103c560048036038101906103c09190612abe565b61100e565b005b6103e160048036038101906103dc9190612b88565b61118f565b6040516103ee91906136aa565b60405180910390f35b610411600480360381019061040c9190612b88565b611405565b60405161041e91906136aa565b60405180910390f35b610441600480360381019061043c9190612a43565b61163e565b005b61045d60048036038101906104589190612b88565b6116a0565b60405161046a9190613468565b60405180910390f35b61048d600480360381019061048891906129b8565b611747565b60405161049a919061344d565b60405180910390f35b6104ab6117db565b6040516104b8919061338c565b60405180910390f35b60007f780e9d63000000000000000000000000000000000000000000000000000000007bffffffffffffffffffffffffffffffffffffffffffffffffffffffff1916827bffffffffffffffffffffffffffffffffffffffffffffffffffffffff19161480610534575061053382611801565b5b9050919050565b60606000805461054a9061390d565b80601f01602080910402602001604051908101604052809291908181526020018280546105769061390d565b80156105c35780601f10610598576101008083540402835291602001916105c3565b820191906000526020600020905b8154815290600101906020018083116105a657829003601f168201915b5050505050905090565b60006105d8826118e3565b610617576040517f08c379a000000000000000000000000000000000000000000000000000000000815260040161060e906135ea565b60405180910390fd5b6004600083815260200190815260200160002060009054906101000a900473ffffffffffffffffffffffffffffffffffffffff169050919050565b600061065d82610c17565b90508073ffffffffffffffffffffffffffffffffffffffff168373ffffffffffffffffffffffffffffffffffffffff1614156106ce576040517f08c379a00000000000000000000000000000000000000000000000000000000081526004016106c59061364a565b60405180910390fd5b8073ffffffffffffffffffffffffffffffffffffffff166106ed61194f565b73ffffffffffffffffffffffffffffffffffffffff16148061071c575061071b8161071661194f565b611747565b5b61075b576040517f08c379a00000000000000000000000000000000000000000000000000000000081526004016107529061356a565b60405180910390fd5b6107658383611957565b505050565b61077630600a54611a10565b600060405180608001604052803073ffffffffffffffffffffffffffffffffffffffff1681526020016040518060400160405280601481526020017f426f7461666f676f20782053616f205061756c6f00000000000000000000000081525081526020016040518060400160405280601281526020017f2e2e2f2e2e2f7075626c69632f6361726432000000000000000000000000000081525081526020016040518060800160405280604b8152602001613ae3604b9139815250905080600d60003073ffffffffffffffffffffffffffffffffffffffff1673ffffffffffffffffffffffffffffffffffffffff1681526020019081526020016000206000600a54815260200190815260200160002060008201518160000160006101000a81548173ffffffffffffffffffffffffffffffffffffffff021916908373ffffffffffffffffffffffffffffffffffffffff16021790555060208201518160010190805190602001906108e99291906127dd565b5060408201518160020190805190602001906109069291906127dd565b5060608201518160030190805190602001906109239291906127dd565b5090505080600e6000600a54815260200190815260200160002060008201518160000160006101000a81548173ffffffffffffffffffffffffffffffffffffffff021916908373ffffffffffffffffffffffffffffffffffffffff16021790555060208201518160010190805190602001906109a09291906127dd565b5060408201518160020190805190602001906109bd9291906127dd565b5060608201518160030190805190602001906109da9291906127dd565b50905050600a60008154809291906109f19061393f565b91905055507f7a894dd537735ba01f7e127b6c5047ea98a0ee75cbb4734c586b46de70649856604051610a239061348a565b60405180910390a150565b6000600880549050905090565b610a4c610a4661194f565b82611bde565b610a8b576040517f08c379a0000000000000000000000000000000000000000000000000000000008152600401610a829061366a565b60405180910390fd5b610a96838383611cbc565b505050565b6000610aa683610cc9565b8210610ae7576040517f08c379a0000000000000000000000000000000000000000000000000000000008152600401610ade906134aa565b60405180910390fd5b600660008473ffffffffffffffffffffffffffffffffffffffff1673ffffffffffffffffffffffffffffffffffffffff168152602001908152602001600020600083815260200190815260200160002054905092915050565b610b5b8383836040518060200160405280600081525061163e565b505050565b600c6020528060005260406000206000915054906101000a900460ff1681565b6000610b8a610a2e565b8210610bcb576040517f08c379a0000000000000000000000000000000000000000000000000000000008152600401610bc29061368a565b60405180910390fd5b60088281548110610c05577f4e487b7100000000000000000000000000000000000000000000000000000000600052603260045260246000fd5b90600052602060002001549050919050565b6000806002600084815260200190815260200160002060009054906101000a900473ffffffffffffffffffffffffffffffffffffffff169050600073ffffffffffffffffffffffffffffffffffffffff168173ffffffffffffffffffffffffffffffffffffffff161415610cc0576040517f08c379a0000000000000000000000000000000000000000000000000000000008152600401610cb7906135aa565b60405180910390fd5b80915050919050565b60008073ffffffffffffffffffffffffffffffffffffffff168273ffffffffffffffffffffffffffffffffffffffff161415610d3a576040517f08c379a0000000000000000000000000000000000000000000000000000000008152600401610d319061358a565b60405180910390fd5b600360008373ffffffffffffffffffffffffffffffffffffffff1673ffffffffffffffffffffffffffffffffffffffff168152602001908152602001600020549050919050565b600a5481565b600d602052816000526040600020602052806000526040600020600091509150508060000160009054906101000a900473ffffffffffffffffffffffffffffffffffffffff1690806001018054610ddd9061390d565b80601f0160208091040260200160405190810160405280929190818152602001828054610e099061390d565b8015610e565780601f10610e2b57610100808354040283529160200191610e56565b820191906000526020600020905b815481529060010190602001808311610e3957829003601f168201915b505050505090806002018054610e6b9061390d565b80601f0160208091040260200160405190810160405280929190818152602001828054610e979061390d565b8015610ee45780601f10610eb957610100808354040283529160200191610ee4565b820191906000526020600020905b815481529060010190602001808311610ec757829003601f168201915b505050505090806003018054610ef99061390d565b80601f0160208091040260200160405190810160405280929190818152602001828054610f259061390d565b8015610f725780601f10610f4757610100808354040283529160200191610f72565b820191906000526020600020905b815481529060010190602001808311610f5557829003601f168201915b5050505050905084565b606060018054610f8b9061390d565b80601f0160208091040260200160405190810160405280929190818152602001828054610fb79061390d565b80156110045780601f10610fd957610100808354040283529160200191611004565b820191906000526020600020905b815481529060010190602001808311610fe757829003601f168201915b5050505050905090565b61101661194f565b73ffffffffffffffffffffffffffffffffffffffff168273ffffffffffffffffffffffffffffffffffffffff161415611084576040517f08c379a000000000000000000000000000000000000000000000000000000000815260040161107b9061352a565b60405180910390fd5b806005600061109161194f565b73ffffffffffffffffffffffffffffffffffffffff1673ffffffffffffffffffffffffffffffffffffffff16815260200190815260200160002060008473ffffffffffffffffffffffffffffffffffffffff1673ffffffffffffffffffffffffffffffffffffffff16815260200190815260200160002060006101000a81548160ff0219169083151502179055508173ffffffffffffffffffffffffffffffffffffffff1661113e61194f565b73ffffffffffffffffffffffffffffffffffffffff167f17307eab39ab6107e8899845ad3d59bd9653f200f220920489ca2b5937696c3183604051611183919061344d565b60405180910390a35050565b611197612863565b600d60003373ffffffffffffffffffffffffffffffffffffffff1673ffffffffffffffffffffffffffffffffffffffff16815260200190815260200160002060008381526020019081526020016000206040518060800160405290816000820160009054906101000a900473ffffffffffffffffffffffffffffffffffffffff1673ffffffffffffffffffffffffffffffffffffffff1673ffffffffffffffffffffffffffffffffffffffff1681526020016001820180546112589061390d565b80601f01602080910402602001604051908101604052809291908181526020018280546112849061390d565b80156112d15780601f106112a6576101008083540402835291602001916112d1565b820191906000526020600020905b8154815290600101906020018083116112b457829003601f168201915b505050505081526020016002820180546112ea9061390d565b80601f01602080910402602001604051908101604052809291908181526020018280546113169061390d565b80156113635780601f1061133857610100808354040283529160200191611363565b820191906000526020600020905b81548152906001019060200180831161134657829003601f168201915b5050505050815260200160038201805461137c9061390d565b80601f01602080910402602001604051908101604052809291908181526020018280546113a89061390d565b80156113f55780601f106113ca576101008083540402835291602001916113f5565b820191906000526020600020905b8154815290600101906020018083116113d857829003601f168201915b5050505050815250509050919050565b61140d612863565b600e60008381526020019081526020016000206040518060800160405290816000820160009054906101000a900473ffffffffffffffffffffffffffffffffffffffff1673ffffffffffffffffffffffffffffffffffffffff1673ffffffffffffffffffffffffffffffffffffffff1681526020016001820180546114919061390d565b80601f01602080910402602001604051908101604052809291908181526020018280546114bd9061390d565b801561150a5780601f106114df5761010080835404028352916020019161150a565b820191906000526020600020905b8154815290600101906020018083116114ed57829003601f168201915b505050505081526020016002820180546115239061390d565b80601f016020809104026020016040519081016040528092919081815260200182805461154f9061390d565b801561159c5780601f106115715761010080835404028352916020019161159c565b820191906000526020600020905b81548152906001019060200180831161157f57829003601f168201915b505050505081526020016003820180546115b59061390d565b80601f01602080910402602001604051908101604052809291908181526020018280546115e19061390d565b801561162e5780601f106116035761010080835404028352916020019161162e565b820191906000526020600020905b81548152906001019060200180831161161157829003601f168201915b5050505050815250509050919050565b61164f61164961194f565b83611bde565b61168e576040517f08c379a00000000000000000000000000000000000000000000000000000000081526004016116859061366a565b60405180910390fd5b61169a84848484611f18565b50505050565b60606116ab826118e3565b6116ea576040517f08c379a00000000000000000000000000000000000000000000000000000000081526004016116e19061362a565b60405180910390fd5b60006116f4611f74565b90506000815111611714576040518060200160405280600081525061173f565b8061171e84611f8b565b60405160200161172f929190613368565b6040516020818303038152906040525b915050919050565b6000600560008473ffffffffffffffffffffffffffffffffffffffff1673ffffffffffffffffffffffffffffffffffffffff16815260200190815260200160002060008373ffffffffffffffffffffffffffffffffffffffff1673ffffffffffffffffffffffffffffffffffffffff16815260200190815260200160002060009054906101000a900460ff16905092915050565b600b60009054906101000a900473ffffffffffffffffffffffffffffffffffffffff1681565b60007f80ac58cd000000000000000000000000000000000000000000000000000000007bffffffffffffffffffffffffffffffffffffffffffffffffffffffff1916827bffffffffffffffffffffffffffffffffffffffffffffffffffffffff191614806118cc57507f5b5e139f000000000000000000000000000000000000000000000000000000007bffffffffffffffffffffffffffffffffffffffffffffffffffffffff1916827bffffffffffffffffffffffffffffffffffffffffffffffffffffffff1916145b806118dc57506118db82612138565b5b9050919050565b60008073ffffffffffffffffffffffffffffffffffffffff166002600084815260200190815260200160002060009054906101000a900473ffffffffffffffffffffffffffffffffffffffff1673ffffffffffffffffffffffffffffffffffffffff1614159050919050565b600033905090565b816004600083815260200190815260200160002060006101000a81548173ffffffffffffffffffffffffffffffffffffffff021916908373ffffffffffffffffffffffffffffffffffffffff160217905550808273ffffffffffffffffffffffffffffffffffffffff166119ca83610c17565b73ffffffffffffffffffffffffffffffffffffffff167f8c5be1e5ebec7d5bd14f71427d1e84f3dd0314c0f7b2291e5b200ac8c7c3b92560405160405180910390a45050565b600073ffffffffffffffffffffffffffffffffffffffff168273ffffffffffffffffffffffffffffffffffffffff161415611a80576040517f08c379a0000000000000000000000000000000000000000000000000000000008152600401611a77906135ca565b60405180910390fd5b611a89816118e3565b15611ac9576040517f08c379a0000000000000000000000000000000000000000000000000000000008152600401611ac0906134ea565b60405180910390fd5b611ad5600083836121a2565b6001600360008473ffffffffffffffffffffffffffffffffffffffff1673ffffffffffffffffffffffffffffffffffffffff1681526020019081526020016000206000828254611b25919061379c565b92505081905550816002600083815260200190815260200160002060006101000a81548173ffffffffffffffffffffffffffffffffffffffff021916908373ffffffffffffffffffffffffffffffffffffffff160217905550808273ffffffffffffffffffffffffffffffffffffffff16600073ffffffffffffffffffffffffffffffffffffffff167fddf252ad1be2c89b69c2b068fc378daa952ba7f163c4a11628f55a4df523b3ef60405160405180910390a45050565b6000611be9826118e3565b611c28576040517f08c379a0000000000000000000000000000000000000000000000000000000008152600401611c1f9061354a565b60405180910390fd5b6000611c3383610c17565b90508073ffffffffffffffffffffffffffffffffffffffff168473ffffffffffffffffffffffffffffffffffffffff161480611ca257508373ffffffffffffffffffffffffffffffffffffffff16611c8a846105cd565b73ffffffffffffffffffffffffffffffffffffffff16145b80611cb35750611cb28185611747565b5b91505092915050565b8273ffffffffffffffffffffffffffffffffffffffff16611cdc82610c17565b73ffffffffffffffffffffffffffffffffffffffff1614611d32576040517f08c379a0000000000000000000000000000000000000000000000000000000008152600401611d299061360a565b60405180910390fd5b600073ffffffffffffffffffffffffffffffffffffffff168273ffffffffffffffffffffffffffffffffffffffff161415611da2576040517f08c379a0000000000000000000000000000000000000000000000000000000008152600401611d999061350a565b60405180910390fd5b611dad8383836121a2565b611db8600082611957565b6001600360008573ffffffffffffffffffffffffffffffffffffffff1673ffffffffffffffffffffffffffffffffffffffff1681526020019081526020016000206000828254611e089190613823565b925050819055506001600360008473ffffffffffffffffffffffffffffffffffffffff1673ffffffffffffffffffffffffffffffffffffffff1681526020019081526020016000206000828254611e5f919061379c565b92505081905550816002600083815260200190815260200160002060006101000a81548173ffffffffffffffffffffffffffffffffffffffff021916908373ffffffffffffffffffffffffffffffffffffffff160217905550808273ffffffffffffffffffffffffffffffffffffffff168473ffffffffffffffffffffffffffffffffffffffff167fddf252ad1be2c89b69c2b068fc378daa952ba7f163c4a11628f55a4df523b3ef60405160405180910390a4505050565b611f23848484611cbc565b611f2f848484846122b6565b611f6e576040517f08c379a0000000000000000000000000000000000000000000000000000000008152600401611f65906134ca565b60405180910390fd5b50505050565b606060405180602001604052806000815250905090565b60606000821415611fd3576040518060400160405280600181526020017f30000000000000000000000000000000000000000000000000000000000000008152509050612133565b600082905060005b60008214612005578080611fee9061393f565b915050600a82611ffe91906137f2565b9150611fdb565b60008167ffffffffffffffff811115612047577f4e487b7100000000000000000000000000000000000000000000000000000000600052604160045260246000fd5b6040519080825280601f01601f1916602001820160405280156120795781602001600182028036833780820191505090505b5090505b6000851461212c576001826120929190613823565b9150600a856120a19190613988565b60306120ad919061379c565b60f81b8183815181106120e9577f4e487b7100000000000000000000000000000000000000000000000000000000600052603260045260246000fd5b60200101907effffffffffffffffffffffffffffffffffffffffffffffffffffffffffffff1916908160001a905350600a8561212591906137f2565b945061207d565b8093505050505b919050565b60007f01ffc9a7000000000000000000000000000000000000000000000000000000007bffffffffffffffffffffffffffffffffffffffffffffffffffffffff1916827bffffffffffffffffffffffffffffffffffffffffffffffffffffffff1916149050919050565b6121ad83838361244d565b600073ffffffffffffffffffffffffffffffffffffffff168373ffffffffffffffffffffffffffffffffffffffff1614156121f0576121eb81612452565b61222f565b8173ffffffffffffffffffffffffffffffffffffffff168373ffffffffffffffffffffffffffffffffffffffff161461222e5761222d838261249b565b5b5b600073ffffffffffffffffffffffffffffffffffffffff168273ffffffffffffffffffffffffffffffffffffffff1614156122725761226d81612608565b6122b1565b8273ffffffffffffffffffffffffffffffffffffffff168273ffffffffffffffffffffffffffffffffffffffff16146122b0576122af828261274b565b5b5b505050565b60006122d78473ffffffffffffffffffffffffffffffffffffffff166127ca565b15612440578373ffffffffffffffffffffffffffffffffffffffff1663150b7a0261230061194f565b8786866040518563ffffffff1660e01b815260040161232294939291906133a7565b602060405180830381600087803b15801561233c57600080fd5b505af192505050801561236d57506040513d601f19601f8201168201806040525081019061236a9190612b5f565b60015b6123f0573d806000811461239d576040519150601f19603f3d011682016040523d82523d6000602084013e6123a2565b606091505b506000815114156123e8576040517f08c379a00000000000000000000000000000000000000000000000000000000081526004016123df906134ca565b60405180910390fd5b805181602001fd5b63150b7a0260e01b7bffffffffffffffffffffffffffffffffffffffffffffffffffffffff1916817bffffffffffffffffffffffffffffffffffffffffffffffffffffffff191614915050612445565b600190505b949350505050565b505050565b6008805490506009600083815260200190815260200160002081905550600881908060018154018082558091505060019003906000526020600020016000909190919091505550565b600060016124a884610cc9565b6124b29190613823565b9050600060076000848152602001908152602001600020549050818114612597576000600660008673ffffffffffffffffffffffffffffffffffffffff1673ffffffffffffffffffffffffffffffffffffffff168152602001908152602001600020600084815260200190815260200160002054905080600660008773ffffffffffffffffffffffffffffffffffffffff1673ffffffffffffffffffffffffffffffffffffffff168152602001908152602001600020600084815260200190815260200160002081905550816007600083815260200190815260200160002081905550505b6007600084815260200190815260200160002060009055600660008573ffffffffffffffffffffffffffffffffffffffff1673ffffffffffffffffffffffffffffffffffffffff16815260200190815260200160002060008381526020019081526020016000206000905550505050565b6000600160088054905061261c9190613823565b9050600060096000848152602001908152602001600020549050600060088381548110612672577f4e487b7100000000000000000000000000000000000000000000000000000000600052603260045260246000fd5b9060005260206000200154905080600883815481106126ba577f4e487b7100000000000000000000000000000000000000000000000000000000600052603260045260246000fd5b90600052602060002001819055508160096000838152602001908152602001600020819055506009600085815260200190815260200160002060009055600880548061272f577f4e487b7100000000000000000000000000000000000000000000000000000000600052603160045260246000fd5b6001900381819060005260206000200160009055905550505050565b600061275683610cc9565b905081600660008573ffffffffffffffffffffffffffffffffffffffff1673ffffffffffffffffffffffffffffffffffffffff168152602001908152602001600020600083815260200190815260200160002081905550806007600084815260200190815260200160002081905550505050565b600080823b905060008111915050919050565b8280546127e99061390d565b90600052602060002090601f01602090048101928261280b5760008555612852565b82601f1061282457805160ff1916838001178555612852565b82800160010185558215612852579182015b82811115612851578251825591602001919060010190612836565b5b50905061285f91906128a1565b5090565b6040518060800160405280600073ffffffffffffffffffffffffffffffffffffffff1681526020016060815260200160608152602001606081525090565b5b808211156128ba5760008160009055506001016128a2565b5090565b60006128d16128cc84613718565b6136e7565b9050828152602081018484840111156128e957600080fd5b6128f48482856138cb565b509392505050565b60008135905061290b81613a86565b92915050565b60008135905061292081613a9d565b92915050565b60008135905061293581613ab4565b92915050565b60008151905061294a81613ab4565b92915050565b600082601f83011261296157600080fd5b81356129718482602086016128be565b91505092915050565b60008135905061298981613acb565b92915050565b6000602082840312156129a157600080fd5b60006129af848285016128fc565b91505092915050565b600080604083850312156129cb57600080fd5b60006129d9858286016128fc565b92505060206129ea858286016128fc565b9150509250929050565b600080600060608486031215612a0957600080fd5b6000612a17868287016128fc565b9350506020612a28868287016128fc565b9250506040612a398682870161297a565b9150509250925092565b60008060008060808587031215612a5957600080fd5b6000612a67878288016128fc565b9450506020612a78878288016128fc565b9350506040612a898782880161297a565b925050606085013567ffffffffffffffff811115612aa657600080fd5b612ab287828801612950565b91505092959194509250565b60008060408385031215612ad157600080fd5b6000612adf858286016128fc565b9250506020612af085828601612911565b9150509250929050565b60008060408385031215612b0d57600080fd5b6000612b1b858286016128fc565b9250506020612b2c8582860161297a565b9150509250929050565b600060208284031215612b4857600080fd5b6000612b5684828501612926565b91505092915050565b600060208284031215612b7157600080fd5b6000612b7f8482850161293b565b91505092915050565b600060208284031215612b9a57600080fd5b6000612ba88482850161297a565b91505092915050565b612bba81613857565b82525050565b612bc981613857565b82525050565b612bd881613869565b82525050565b6000612be982613748565b612bf3818561375e565b9350612c038185602086016138da565b612c0c81613a75565b840191505092915050565b6000612c2282613753565b612c2c818561376f565b9350612c3c8185602086016138da565b612c4581613a75565b840191505092915050565b6000612c5b82613753565b612c658185613780565b9350612c758185602086016138da565b612c7e81613a75565b840191505092915050565b6000612c9482613753565b612c9e8185613791565b9350612cae8185602086016138da565b80840191505092915050565b6000612cc7600d83613780565b91507f6576656e746f2063726961646f000000000000000000000000000000000000006000830152602082019050919050565b6000612d07602b83613780565b91507f455243373231456e756d657261626c653a206f776e657220696e646578206f7560008301527f74206f6620626f756e64730000000000000000000000000000000000000000006020830152604082019050919050565b6000612d6d603283613780565b91507f4552433732313a207472616e7366657220746f206e6f6e20455243373231526560008301527f63656976657220696d706c656d656e74657200000000000000000000000000006020830152604082019050919050565b6000612dd3601c83613780565b91507f4552433732313a20746f6b656e20616c7265616479206d696e746564000000006000830152602082019050919050565b6000612e13602483613780565b91507f4552433732313a207472616e7366657220746f20746865207a65726f2061646460008301527f72657373000000000000000000000000000000000000000000000000000000006020830152604082019050919050565b6000612e79601983613780565b91507f4552433732313a20617070726f766520746f2063616c6c6572000000000000006000830152602082019050919050565b6000612eb9602c83613780565b91507f4552433732313a206f70657261746f7220717565727920666f72206e6f6e657860008301527f697374656e7420746f6b656e00000000000000000000000000000000000000006020830152604082019050919050565b6000612f1f603883613780565b91507f4552433732313a20617070726f76652063616c6c6572206973206e6f74206f7760008301527f6e6572206e6f7220617070726f76656420666f7220616c6c00000000000000006020830152604082019050919050565b6000612f85602a83613780565b91507f4552433732313a2062616c616e636520717565727920666f7220746865207a6560008301527f726f2061646472657373000000000000000000000000000000000000000000006020830152604082019050919050565b6000612feb602983613780565b91507f4552433732313a206f776e657220717565727920666f72206e6f6e657869737460008301527f656e7420746f6b656e00000000000000000000000000000000000000000000006020830152604082019050919050565b6000613051602083613780565b91507f4552433732313a206d696e7420746f20746865207a65726f20616464726573736000830152602082019050919050565b6000613091602c83613780565b91507f4552433732313a20617070726f76656420717565727920666f72206e6f6e657860008301527f697374656e7420746f6b656e00000000000000000000000000000000000000006020830152604082019050919050565b60006130f7602983613780565b91507f4552433732313a207472616e73666572206f6620746f6b656e2074686174206960008301527f73206e6f74206f776e00000000000000000000000000000000000000000000006020830152604082019050919050565b600061315d602f83613780565b91507f4552433732314d657461646174613a2055524920717565727920666f72206e6f60008301527f6e6578697374656e7420746f6b656e00000000000000000000000000000000006020830152604082019050919050565b60006131c3602183613780565b91507f4552433732313a20617070726f76616c20746f2063757272656e74206f776e6560008301527f72000000000000000000000000000000000000000000000000000000000000006020830152604082019050919050565b6000613229603183613780565b91507f4552433732313a207472616e736665722063616c6c6572206973206e6f74206f60008301527f776e6572206e6f7220617070726f7665640000000000000000000000000000006020830152604082019050919050565b600061328f602c83613780565b91507f455243373231456e756d657261626c653a20676c6f62616c20696e646578206f60008301527f7574206f6620626f756e647300000000000000000000000000000000000000006020830152604082019050919050565b60006080830160008301516133006000860182612bb1565b50602083015184820360208601526133188282612c17565b915050604083015184820360408601526133328282612c17565b9150506060830151848203606086015261334c8282612c17565b9150508091505092915050565b613362816138c1565b82525050565b60006133748285612c89565b91506133808284612c89565b91508190509392505050565b60006020820190506133a16000830184612bc0565b92915050565b60006080820190506133bc6000830187612bc0565b6133c96020830186612bc0565b6133d66040830185613359565b81810360608301526133e88184612bde565b905095945050505050565b60006080820190506134086000830187612bc0565b818103602083015261341a8186612c50565b9050818103604083015261342e8185612c50565b905081810360608301526134428184612c50565b905095945050505050565b60006020820190506134626000830184612bcf565b92915050565b600060208201905081810360008301526134828184612c50565b905092915050565b600060208201905081810360008301526134a381612cba565b9050919050565b600060208201905081810360008301526134c381612cfa565b9050919050565b600060208201905081810360008301526134e381612d60565b9050919050565b6000602082019050818103600083015261350381612dc6565b9050919050565b6000602082019050818103600083015261352381612e06565b9050919050565b6000602082019050818103600083015261354381612e6c565b9050919050565b6000602082019050818103600083015261356381612eac565b9050919050565b6000602082019050818103600083015261358381612f12565b9050919050565b600060208201905081810360008301526135a381612f78565b9050919050565b600060208201905081810360008301526135c381612fde565b9050919050565b600060208201905081810360008301526135e381613044565b9050919050565b6000602082019050818103600083015261360381613084565b9050919050565b60006020820190508181036000830152613623816130ea565b9050919050565b6000602082019050818103600083015261364381613150565b9050919050565b60006020820190508181036000830152613663816131b6565b9050919050565b600060208201905081810360008301526136838161321c565b9050919050565b600060208201905081810360008301526136a381613282565b9050919050565b600060208201905081810360008301526136c481846132e8565b905092915050565b60006020820190506136e16000830184613359565b92915050565b6000604051905081810181811067ffffffffffffffff8211171561370e5761370d613a46565b5b8060405250919050565b600067ffffffffffffffff82111561373357613732613a46565b5b601f19601f8301169050602081019050919050565b600081519050919050565b600081519050919050565b600082825260208201905092915050565b600082825260208201905092915050565b600082825260208201905092915050565b600081905092915050565b60006137a7826138c1565b91506137b2836138c1565b9250827fffffffffffffffffffffffffffffffffffffffffffffffffffffffffffffffff038211156137e7576137e66139b9565b5b828201905092915050565b60006137fd826138c1565b9150613808836138c1565b925082613818576138176139e8565b5b828204905092915050565b600061382e826138c1565b9150613839836138c1565b92508282101561384c5761384b6139b9565b5b828203905092915050565b6000613862826138a1565b9050919050565b60008115159050919050565b60007fffffffff0000000000000000000000000000000000000000000000000000000082169050919050565b600073ffffffffffffffffffffffffffffffffffffffff82169050919050565b6000819050919050565b82818337600083830152505050565b60005b838110156138f85780820151818401526020810190506138dd565b83811115613907576000848401525b50505050565b6000600282049050600182168061392557607f821691505b6020821081141561393957613938613a17565b5b50919050565b600061394a826138c1565b91507fffffffffffffffffffffffffffffffffffffffffffffffffffffffffffffffff82141561397d5761397c6139b9565b5b600182019050919050565b6000613993826138c1565b915061399e836138c1565b9250826139ae576139ad6139e8565b5b828206905092915050565b7f4e487b7100000000000000000000000000000000000000000000000000000000600052601160045260246000fd5b7f4e487b7100000000000000000000000000000000000000000000000000000000600052601260045260246000fd5b7f4e487b7100000000000000000000000000000000000000000000000000000000600052602260045260246000fd5b7f4e487b7100000000000000000000000000000000000000000000000000000000600052604160045260246000fd5b6000601f19601f8301169050919050565b613a8f81613857565b8114613a9a57600080fd5b50565b613aa681613869565b8114613ab157600080fd5b50565b613abd81613875565b8114613ac857600080fd5b50565b613ad4816138c1565b8114613adf57600080fd5b5056fe4865726e616e6573206e6f73203220676f6c73206e6120766972616461207175652073616c766f75206f20547269636f6c6f7220646f20726562616978616d656e746f2064652032303137a2646970667358221220bab564c555168d0d45e2f5bc68ad0462c20226963080474a12a40740a872b87364736f6c63430008000033",
  "immutableReferences": {},
  "source": "// SPDX-License-Identifier: MIT\npragma solidity >=0.7.0 <0.9.0;\n\n// import \"../node_modules/@openzeppelin/contracts/token/ERC721/extensions/IERC721Enumerable.sol\";\nimport \"../node_modules/@openzeppelin/contracts/token/ERC721/extensions/ERC721Enumerable.sol\";\nimport \"../node_modules/@openzeppelin/contracts/token/ERC721/ERC721.sol\";\n\ncontract Cards is ERC721Enumerable{\n    uint256 public nextTokenId;\n    address public admin;\n\n    constructor() ERC721(\"Pixel Art\", \"PAR\") {\n        admin = msg.sender;\n    }\n\n    enum Rareness {\n        Normal,\n        Rare,\n        Festive,\n        Relic\n    }\n\n  struct Card {\n    address owner;\n    string name;\n    string urlPic;\n    // uint256 date;\n    string description;\n    // Rareness rareness;\n    // bool isForSelling;\n    // string nationality;\n    // string league;\n    // string team;\n    // uint256 amountMinted;\n    // uint256 price;\n  }\n\n\n    mapping(address => bool) public admins;\n    mapping(address => mapping(uint256 => Card)) public myRepository;\n    mapping(uint256 => Card) market;\n\n    event evento( string );\n\n    function getyMyCards(uint256 i) external view returns (Card memory) {\n        return myRepository[msg.sender][i];\n    }\n\n    function getCardMarket(uint256 i) external view returns (Card memory) {\n        return market[i];\n    }\n    \n    function mint() external  {\n        // _safeMint(address(this), nextTokenId);\n        //safeMint is not working, fix it later?\n        _mint(address(this), nextTokenId);\n\n        Card memory card = Card({\n            owner: address(this),\n            name: \"Botafogo x Sao Paulo\",\n            urlPic: \"../../public/card2\",\n            // date: block.timestamp,\n            description: \"Hernanes nos 2 gols na virada que salvou o Tricolor do rebaixamento de 2017\"\n            // rareness: Rareness.Festive\n            // isForSelling: true,\n            // nationality: nationality,\n            // league: league,\n            // team: team,\n            // amountMinted: amountMinted,\n            // price: price\n        });\n        \n        myRepository[address(this)][nextTokenId] = card;\n        market[nextTokenId] = card;\n        nextTokenId++;\n        emit evento(\"evento criado\");\n     }\n\n    // function _baseURI() internal pure override returns (string memory) {\n    //     return \"\";\n    // }\n}\n",
  "sourcePath": "/Volumes/APPLE HDD/reactprojects/next-mongodb/contracts/Cards.sol",
  "compiler": {
    "name": "solc",
    "version": "0.8.0+commit.c7dfd78e.Emscripten.clang"
  },
  "schemaVersion": "3.4.3",
  "updatedAt": "2021-09-12T01:56:27.375Z",
  "networkType": "ethereum",
  "devdoc": {
    "kind": "dev",
    "methods": {
      "approve(address,uint256)": {
        "details": "See {IERC721-approve}."
      },
      "balanceOf(address)": {
        "details": "See {IERC721-balanceOf}."
      },
      "getApproved(uint256)": {
        "details": "See {IERC721-getApproved}."
      },
      "isApprovedForAll(address,address)": {
        "details": "See {IERC721-isApprovedForAll}."
      },
      "name()": {
        "details": "See {IERC721Metadata-name}."
      },
      "ownerOf(uint256)": {
        "details": "See {IERC721-ownerOf}."
      },
      "safeTransferFrom(address,address,uint256)": {
        "details": "See {IERC721-safeTransferFrom}."
      },
      "safeTransferFrom(address,address,uint256,bytes)": {
        "details": "See {IERC721-safeTransferFrom}."
      },
      "setApprovalForAll(address,bool)": {
        "details": "See {IERC721-setApprovalForAll}."
      },
      "supportsInterface(bytes4)": {
        "details": "See {IERC165-supportsInterface}."
      },
      "symbol()": {
        "details": "See {IERC721Metadata-symbol}."
      },
      "tokenByIndex(uint256)": {
        "details": "See {IERC721Enumerable-tokenByIndex}."
      },
      "tokenOfOwnerByIndex(address,uint256)": {
        "details": "See {IERC721Enumerable-tokenOfOwnerByIndex}."
      },
      "tokenURI(uint256)": {
        "details": "See {IERC721Metadata-tokenURI}."
      },
      "totalSupply()": {
        "details": "See {IERC721Enumerable-totalSupply}."
      },
      "transferFrom(address,address,uint256)": {
        "details": "See {IERC721-transferFrom}."
      }
    },
    "version": 1
  },
  "userdoc": {
    "kind": "user",
    "methods": {},
    "version": 1
  }
}