{
  "contractName": "Cards",
  "abi": [
    {
      "inputs": [],
      "stateMutability": "nonpayable",
      "type": "constructor"
    },
    {
      "anonymous": false,
      "inputs": [
        {
          "indexed": true,
          "internalType": "address",
          "name": "owner",
          "type": "address"
        },
        {
          "indexed": true,
          "internalType": "address",
          "name": "approved",
          "type": "address"
        },
        {
          "indexed": true,
          "internalType": "uint256",
          "name": "tokenId",
          "type": "uint256"
        }
      ],
      "name": "Approval",
      "type": "event"
    },
    {
      "anonymous": false,
      "inputs": [
        {
          "indexed": true,
          "internalType": "address",
          "name": "owner",
          "type": "address"
        },
        {
          "indexed": true,
          "internalType": "address",
          "name": "operator",
          "type": "address"
        },
        {
          "indexed": false,
          "internalType": "bool",
          "name": "approved",
          "type": "bool"
        }
      ],
      "name": "ApprovalForAll",
      "type": "event"
    },
    {
      "anonymous": false,
      "inputs": [
        {
          "indexed": true,
          "internalType": "address",
          "name": "from",
          "type": "address"
        },
        {
          "indexed": true,
          "internalType": "address",
          "name": "to",
          "type": "address"
        },
        {
          "indexed": true,
          "internalType": "uint256",
          "name": "tokenId",
          "type": "uint256"
        }
      ],
      "name": "Transfer",
      "type": "event"
    },
    {
      "inputs": [],
      "name": "admin",
      "outputs": [
        {
          "internalType": "address",
          "name": "",
          "type": "address"
        }
      ],
      "stateMutability": "view",
      "type": "function"
    },
    {
      "inputs": [
        {
          "internalType": "address",
          "name": "",
          "type": "address"
        }
      ],
      "name": "admins",
      "outputs": [
        {
          "internalType": "bool",
          "name": "",
          "type": "bool"
        }
      ],
      "stateMutability": "view",
      "type": "function"
    },
    {
      "inputs": [
        {
          "internalType": "address",
          "name": "to",
          "type": "address"
        },
        {
          "internalType": "uint256",
          "name": "tokenId",
          "type": "uint256"
        }
      ],
      "name": "approve",
      "outputs": [],
      "stateMutability": "nonpayable",
      "type": "function"
    },
    {
      "inputs": [
        {
          "internalType": "address",
          "name": "owner",
          "type": "address"
        }
      ],
      "name": "balanceOf",
      "outputs": [
        {
          "internalType": "uint256",
          "name": "",
          "type": "uint256"
        }
      ],
      "stateMutability": "view",
      "type": "function"
    },
    {
      "inputs": [
        {
          "internalType": "uint256",
          "name": "tokenId",
          "type": "uint256"
        }
      ],
      "name": "getApproved",
      "outputs": [
        {
          "internalType": "address",
          "name": "",
          "type": "address"
        }
      ],
      "stateMutability": "view",
      "type": "function"
    },
    {
      "inputs": [
        {
          "internalType": "address",
          "name": "owner",
          "type": "address"
        },
        {
          "internalType": "address",
          "name": "operator",
          "type": "address"
        }
      ],
      "name": "isApprovedForAll",
      "outputs": [
        {
          "internalType": "bool",
          "name": "",
          "type": "bool"
        }
      ],
      "stateMutability": "view",
      "type": "function"
    },
    {
      "inputs": [
        {
          "internalType": "address",
          "name": "",
          "type": "address"
        },
        {
          "internalType": "uint256",
          "name": "",
          "type": "uint256"
        }
      ],
      "name": "myRepository",
      "outputs": [
        {
          "internalType": "address",
          "name": "owner",
          "type": "address"
        },
        {
          "internalType": "string",
          "name": "name",
          "type": "string"
        },
        {
          "internalType": "string",
          "name": "urlPic",
          "type": "string"
        },
        {
          "internalType": "uint256",
          "name": "date",
          "type": "uint256"
        },
        {
          "internalType": "string",
          "name": "description",
          "type": "string"
        },
        {
          "internalType": "enum Cards.Rareness",
          "name": "rareness",
          "type": "uint8"
        },
        {
          "internalType": "bool",
          "name": "isForSelling",
          "type": "bool"
        },
        {
          "internalType": "string",
          "name": "nationality",
          "type": "string"
        },
        {
          "internalType": "string",
          "name": "league",
          "type": "string"
        },
        {
          "internalType": "string",
          "name": "team",
          "type": "string"
        },
        {
          "internalType": "uint256",
          "name": "amountMinted",
          "type": "uint256"
        },
        {
          "internalType": "uint256",
          "name": "price",
          "type": "uint256"
        }
      ],
      "stateMutability": "view",
      "type": "function"
    },
    {
      "inputs": [],
      "name": "name",
      "outputs": [
        {
          "internalType": "string",
          "name": "",
          "type": "string"
        }
      ],
      "stateMutability": "view",
      "type": "function"
    },
    {
      "inputs": [],
      "name": "nextTokenId",
      "outputs": [
        {
          "internalType": "uint256",
          "name": "",
          "type": "uint256"
        }
      ],
      "stateMutability": "view",
      "type": "function"
    },
    {
      "inputs": [
        {
          "internalType": "uint256",
          "name": "tokenId",
          "type": "uint256"
        }
      ],
      "name": "ownerOf",
      "outputs": [
        {
          "internalType": "address",
          "name": "",
          "type": "address"
        }
      ],
      "stateMutability": "view",
      "type": "function"
    },
    {
      "inputs": [
        {
          "internalType": "address",
          "name": "from",
          "type": "address"
        },
        {
          "internalType": "address",
          "name": "to",
          "type": "address"
        },
        {
          "internalType": "uint256",
          "name": "tokenId",
          "type": "uint256"
        }
      ],
      "name": "safeTransferFrom",
      "outputs": [],
      "stateMutability": "nonpayable",
      "type": "function"
    },
    {
      "inputs": [
        {
          "internalType": "address",
          "name": "from",
          "type": "address"
        },
        {
          "internalType": "address",
          "name": "to",
          "type": "address"
        },
        {
          "internalType": "uint256",
          "name": "tokenId",
          "type": "uint256"
        },
        {
          "internalType": "bytes",
          "name": "_data",
          "type": "bytes"
        }
      ],
      "name": "safeTransferFrom",
      "outputs": [],
      "stateMutability": "nonpayable",
      "type": "function"
    },
    {
      "inputs": [
        {
          "internalType": "address",
          "name": "operator",
          "type": "address"
        },
        {
          "internalType": "bool",
          "name": "approved",
          "type": "bool"
        }
      ],
      "name": "setApprovalForAll",
      "outputs": [],
      "stateMutability": "nonpayable",
      "type": "function"
    },
    {
      "inputs": [
        {
          "internalType": "bytes4",
          "name": "interfaceId",
          "type": "bytes4"
        }
      ],
      "name": "supportsInterface",
      "outputs": [
        {
          "internalType": "bool",
          "name": "",
          "type": "bool"
        }
      ],
      "stateMutability": "view",
      "type": "function"
    },
    {
      "inputs": [],
      "name": "symbol",
      "outputs": [
        {
          "internalType": "string",
          "name": "",
          "type": "string"
        }
      ],
      "stateMutability": "view",
      "type": "function"
    },
    {
      "inputs": [
        {
          "internalType": "uint256",
          "name": "index",
          "type": "uint256"
        }
      ],
      "name": "tokenByIndex",
      "outputs": [
        {
          "internalType": "uint256",
          "name": "",
          "type": "uint256"
        }
      ],
      "stateMutability": "view",
      "type": "function"
    },
    {
      "inputs": [
        {
          "internalType": "address",
          "name": "owner",
          "type": "address"
        },
        {
          "internalType": "uint256",
          "name": "index",
          "type": "uint256"
        }
      ],
      "name": "tokenOfOwnerByIndex",
      "outputs": [
        {
          "internalType": "uint256",
          "name": "",
          "type": "uint256"
        }
      ],
      "stateMutability": "view",
      "type": "function"
    },
    {
      "inputs": [
        {
          "internalType": "uint256",
          "name": "tokenId",
          "type": "uint256"
        }
      ],
      "name": "tokenURI",
      "outputs": [
        {
          "internalType": "string",
          "name": "",
          "type": "string"
        }
      ],
      "stateMutability": "view",
      "type": "function"
    },
    {
      "inputs": [],
      "name": "totalSupply",
      "outputs": [
        {
          "internalType": "uint256",
          "name": "",
          "type": "uint256"
        }
      ],
      "stateMutability": "view",
      "type": "function"
    },
    {
      "inputs": [
        {
          "internalType": "address",
          "name": "from",
          "type": "address"
        },
        {
          "internalType": "address",
          "name": "to",
          "type": "address"
        },
        {
          "internalType": "uint256",
          "name": "tokenId",
          "type": "uint256"
        }
      ],
      "name": "transferFrom",
      "outputs": [],
      "stateMutability": "nonpayable",
      "type": "function"
    },
    {
      "inputs": [
        {
          "internalType": "address",
          "name": "to",
          "type": "address"
        },
        {
          "internalType": "string",
          "name": "name",
          "type": "string"
        },
        {
          "internalType": "string",
          "name": "imageUrl",
          "type": "string"
        },
        {
          "internalType": "enum Cards.Rareness",
          "name": "rareness",
          "type": "uint8"
        },
        {
          "internalType": "string",
          "name": "description",
          "type": "string"
        },
        {
          "internalType": "bool",
          "name": "isForSelling",
          "type": "bool"
        },
        {
          "internalType": "string",
          "name": "nationality",
          "type": "string"
        },
        {
          "internalType": "string",
          "name": "league",
          "type": "string"
        },
        {
          "internalType": "string",
          "name": "team",
          "type": "string"
        },
        {
          "internalType": "uint256",
          "name": "amountMinted",
          "type": "uint256"
        },
        {
          "internalType": "uint256",
          "name": "price",
          "type": "uint256"
        }
      ],
      "name": "mint",
      "outputs": [],
      "stateMutability": "nonpayable",
      "type": "function"
    }
  ],
  "bytecode": "0x60806040523480156200001157600080fd5b506040518060400160405280600581526020017f43617264730000000000000000000000000000000000000000000000000000008152506040518060400160405280600381526020017f4352440000000000000000000000000000000000000000000000000000000000815250816000908051906020019062000096929190620000f9565b508060019080519060200190620000af929190620000f9565b50505033600b60006101000a81548173ffffffffffffffffffffffffffffffffffffffff021916908373ffffffffffffffffffffffffffffffffffffffff1602179055506200020e565b8280546200010790620001a9565b90600052602060002090601f0160209004810192826200012b576000855562000177565b82601f106200014657805160ff191683800117855562000177565b8280016001018555821562000177579182015b828111156200017657825182559160200191906001019062000159565b5b5090506200018691906200018a565b5090565b5b80821115620001a55760008160009055506001016200018b565b5090565b60006002820490506001821680620001c257607f821691505b60208210811415620001d957620001d8620001df565b5b50919050565b7f4e487b7100000000000000000000000000000000000000000000000000000000600052602260045260246000fd5b613cfd806200021e6000396000f3fe608060405234801561001057600080fd5b50600436106101375760003560e01c80634f6ccce7116100b857806395d89b411161007c57806395d89b4114610391578063a22cb465146103af578063b88d4fde146103cb578063c87b56dd146103e7578063e985e9c514610417578063f851a4401461044757610137565b80634f6ccce7146102a85780636352211e146102d857806370a082311461030857806375794a3c14610338578063827e3f8b1461035657610137565b806318160ddd116100ff57806318160ddd146101f257806323b872dd146102105780632f745c591461022c57806342842e0e1461025c578063429b62e51461027857610137565b806301ffc9a71461013c57806306ccb1271461016c57806306fdde0314610188578063081812fc146101a6578063095ea7b3146101d6575b600080fd5b61015660048036038101906101519190612cc6565b610465565b60405161016391906135bd565b60405180910390f35b61018660048036038101906101819190612b0a565b6104df565b005b610190610a24565b60405161019d91906135d8565b60405180910390f35b6101c060048036038101906101bb9190612d18565b610ab6565b6040516101cd9190613472565b60405180910390f35b6101f060048036038101906101eb9190612c8a565b610b3b565b005b6101fa610c53565b604051610207919061381a565b60405180910390f35b61022a60048036038101906102259190612a04565b610c60565b005b61024660048036038101906102419190612c8a565b610cc0565b604051610253919061381a565b60405180910390f35b61027660048036038101906102719190612a04565b610d65565b005b610292600480360381019061028d919061299f565b610d85565b60405161029f91906135bd565b60405180910390f35b6102c260048036038101906102bd9190612d18565b610da5565b6040516102cf919061381a565b60405180910390f35b6102f260048036038101906102ed9190612d18565b610e3c565b6040516102ff9190613472565b60405180910390f35b610322600480360381019061031d919061299f565b610eee565b60405161032f919061381a565b60405180910390f35b610340610fa6565b60405161034d919061381a565b60405180910390f35b610370600480360381019061036b9190612c8a565b610fac565b6040516103889c9b9a999897969594939291906134d9565b60405180910390f35b610399611383565b6040516103a691906135d8565b60405180910390f35b6103c960048036038101906103c49190612ace565b611415565b005b6103e560048036038101906103e09190612a53565b611596565b005b61040160048036038101906103fc9190612d18565b6115f8565b60405161040e91906135d8565b60405180910390f35b610431600480360381019061042c91906129c8565b61169f565b60405161043e91906135bd565b60405180910390f35b61044f611733565b60405161045c9190613472565b60405180910390f35b60007f780e9d63000000000000000000000000000000000000000000000000000000007bffffffffffffffffffffffffffffffffffffffffffffffffffffffff1916827bffffffffffffffffffffffffffffffffffffffffffffffffffffffff191614806104d857506104d782611759565b5b9050919050565b600b60009054906101000a900473ffffffffffffffffffffffffffffffffffffffff1673ffffffffffffffffffffffffffffffffffffffff163373ffffffffffffffffffffffffffffffffffffffff1614806105845750600c60003373ffffffffffffffffffffffffffffffffffffffff1673ffffffffffffffffffffffffffffffffffffffff16815260200190815260200160002060009054906101000a900460ff165b6105c3576040517f08c379a00000000000000000000000000000000000000000000000000000000081526004016105ba9061369a565b60405180910390fd5b6105cf8b600a5461183b565b60006040518061018001604052803373ffffffffffffffffffffffffffffffffffffffff1681526020018c81526020018b81526020014281526020018981526020018a600381111561064a577f4e487b7100000000000000000000000000000000000000000000000000000000600052602160045260246000fd5b8152602001881515815260200187815260200186815260200185815260200184815260200183815250905080600d60003373ffffffffffffffffffffffffffffffffffffffff1673ffffffffffffffffffffffffffffffffffffffff1681526020019081526020016000206000600a54815260200190815260200160002060008201518160000160006101000a81548173ffffffffffffffffffffffffffffffffffffffff021916908373ffffffffffffffffffffffffffffffffffffffff160217905550602082015181600101908051906020019061072b9291906127ae565b5060408201518160020190805190602001906107489291906127ae565b5060608201518160030155608082015181600401908051906020019061076f9291906127ae565b5060a08201518160050160006101000a81548160ff021916908360038111156107c1577f4e487b7100000000000000000000000000000000000000000000000000000000600052602160045260246000fd5b021790555060c08201518160050160016101000a81548160ff02191690831515021790555060e08201518160060190805190602001906108029291906127ae565b506101008201518160070190805190602001906108209291906127ae565b5061012082015181600801908051906020019061083e9291906127ae565b50610140820151816009015561016082015181600a015590505080600e6000600a54815260200190815260200160002060008201518160000160006101000a81548173ffffffffffffffffffffffffffffffffffffffff021916908373ffffffffffffffffffffffffffffffffffffffff16021790555060208201518160010190805190602001906108d19291906127ae565b5060408201518160020190805190602001906108ee9291906127ae565b506060820151816003015560808201518160040190805190602001906109159291906127ae565b5060a08201518160050160006101000a81548160ff02191690836003811115610967577f4e487b7100000000000000000000000000000000000000000000000000000000600052602160045260246000fd5b021790555060c08201518160050160016101000a81548160ff02191690831515021790555060e08201518160060190805190602001906109a89291906127ae565b506101008201518160070190805190602001906109c69291906127ae565b506101208201518160080190805190602001906109e49291906127ae565b50610140820151816009015561016082015181600a0155905050600a6000815480929190610a1190613ad1565b9190505550505050505050505050505050565b606060008054610a3390613a9f565b80601f0160208091040260200160405190810160405280929190818152602001828054610a5f90613a9f565b8015610aac5780601f10610a8157610100808354040283529160200191610aac565b820191906000526020600020905b815481529060010190602001808311610a8f57829003601f168201915b5050505050905090565b6000610ac182611859565b610b00576040517f08c379a0000000000000000000000000000000000000000000000000000000008152600401610af79061375a565b60405180910390fd5b6004600083815260200190815260200160002060009054906101000a900473ffffffffffffffffffffffffffffffffffffffff169050919050565b6000610b4682610e3c565b90508073ffffffffffffffffffffffffffffffffffffffff168373ffffffffffffffffffffffffffffffffffffffff161415610bb7576040517f08c379a0000000000000000000000000000000000000000000000000000000008152600401610bae906137ba565b60405180910390fd5b8073ffffffffffffffffffffffffffffffffffffffff16610bd66118c5565b73ffffffffffffffffffffffffffffffffffffffff161480610c055750610c0481610bff6118c5565b61169f565b5b610c44576040517f08c379a0000000000000000000000000000000000000000000000000000000008152600401610c3b906136da565b60405180910390fd5b610c4e83836118cd565b505050565b6000600880549050905090565b610c71610c6b6118c5565b82611986565b610cb0576040517f08c379a0000000000000000000000000000000000000000000000000000000008152600401610ca7906137da565b60405180910390fd5b610cbb838383611a64565b505050565b6000610ccb83610eee565b8210610d0c576040517f08c379a0000000000000000000000000000000000000000000000000000000008152600401610d03906135fa565b60405180910390fd5b600660008473ffffffffffffffffffffffffffffffffffffffff1673ffffffffffffffffffffffffffffffffffffffff168152602001908152602001600020600083815260200190815260200160002054905092915050565b610d8083838360405180602001604052806000815250611596565b505050565b600c6020528060005260406000206000915054906101000a900460ff1681565b6000610daf610c53565b8210610df0576040517f08c379a0000000000000000000000000000000000000000000000000000000008152600401610de7906137fa565b60405180910390fd5b60088281548110610e2a577f4e487b7100000000000000000000000000000000000000000000000000000000600052603260045260246000fd5b90600052602060002001549050919050565b6000806002600084815260200190815260200160002060009054906101000a900473ffffffffffffffffffffffffffffffffffffffff169050600073ffffffffffffffffffffffffffffffffffffffff168173ffffffffffffffffffffffffffffffffffffffff161415610ee5576040517f08c379a0000000000000000000000000000000000000000000000000000000008152600401610edc9061371a565b60405180910390fd5b80915050919050565b60008073ffffffffffffffffffffffffffffffffffffffff168273ffffffffffffffffffffffffffffffffffffffff161415610f5f576040517f08c379a0000000000000000000000000000000000000000000000000000000008152600401610f56906136fa565b60405180910390fd5b600360008373ffffffffffffffffffffffffffffffffffffffff1673ffffffffffffffffffffffffffffffffffffffff168152602001908152602001600020549050919050565b600a5481565b600d602052816000526040600020602052806000526040600020600091509150508060000160009054906101000a900473ffffffffffffffffffffffffffffffffffffffff169080600101805461100290613a9f565b80601f016020809104026020016040519081016040528092919081815260200182805461102e90613a9f565b801561107b5780601f106110505761010080835404028352916020019161107b565b820191906000526020600020905b81548152906001019060200180831161105e57829003601f168201915b50505050509080600201805461109090613a9f565b80601f01602080910402602001604051908101604052809291908181526020018280546110bc90613a9f565b80156111095780601f106110de57610100808354040283529160200191611109565b820191906000526020600020905b8154815290600101906020018083116110ec57829003601f168201915b50505050509080600301549080600401805461112490613a9f565b80601f016020809104026020016040519081016040528092919081815260200182805461115090613a9f565b801561119d5780601f106111725761010080835404028352916020019161119d565b820191906000526020600020905b81548152906001019060200180831161118057829003601f168201915b5050505050908060050160009054906101000a900460ff16908060050160019054906101000a900460ff16908060060180546111d890613a9f565b80601f016020809104026020016040519081016040528092919081815260200182805461120490613a9f565b80156112515780601f1061122657610100808354040283529160200191611251565b820191906000526020600020905b81548152906001019060200180831161123457829003601f168201915b50505050509080600701805461126690613a9f565b80601f016020809104026020016040519081016040528092919081815260200182805461129290613a9f565b80156112df5780601f106112b4576101008083540402835291602001916112df565b820191906000526020600020905b8154815290600101906020018083116112c257829003601f168201915b5050505050908060080180546112f490613a9f565b80601f016020809104026020016040519081016040528092919081815260200182805461132090613a9f565b801561136d5780601f106113425761010080835404028352916020019161136d565b820191906000526020600020905b81548152906001019060200180831161135057829003601f168201915b50505050509080600901549080600a015490508c565b60606001805461139290613a9f565b80601f01602080910402602001604051908101604052809291908181526020018280546113be90613a9f565b801561140b5780601f106113e05761010080835404028352916020019161140b565b820191906000526020600020905b8154815290600101906020018083116113ee57829003601f168201915b5050505050905090565b61141d6118c5565b73ffffffffffffffffffffffffffffffffffffffff168273ffffffffffffffffffffffffffffffffffffffff16141561148b576040517f08c379a00000000000000000000000000000000000000000000000000000000081526004016114829061367a565b60405180910390fd5b80600560006114986118c5565b73ffffffffffffffffffffffffffffffffffffffff1673ffffffffffffffffffffffffffffffffffffffff16815260200190815260200160002060008473ffffffffffffffffffffffffffffffffffffffff1673ffffffffffffffffffffffffffffffffffffffff16815260200190815260200160002060006101000a81548160ff0219169083151502179055508173ffffffffffffffffffffffffffffffffffffffff166115456118c5565b73ffffffffffffffffffffffffffffffffffffffff167f17307eab39ab6107e8899845ad3d59bd9653f200f220920489ca2b5937696c318360405161158a91906135bd565b60405180910390a35050565b6115a76115a16118c5565b83611986565b6115e6576040517f08c379a00000000000000000000000000000000000000000000000000000000081526004016115dd906137da565b60405180910390fd5b6115f284848484611cc0565b50505050565b606061160382611859565b611642576040517f08c379a00000000000000000000000000000000000000000000000000000000081526004016116399061379a565b60405180910390fd5b600061164c611d1c565b9050600081511161166c5760405180602001604052806000815250611697565b8061167684611d33565b60405160200161168792919061344e565b6040516020818303038152906040525b915050919050565b6000600560008473ffffffffffffffffffffffffffffffffffffffff1673ffffffffffffffffffffffffffffffffffffffff16815260200190815260200160002060008373ffffffffffffffffffffffffffffffffffffffff1673ffffffffffffffffffffffffffffffffffffffff16815260200190815260200160002060009054906101000a900460ff16905092915050565b600b60009054906101000a900473ffffffffffffffffffffffffffffffffffffffff1681565b60007f80ac58cd000000000000000000000000000000000000000000000000000000007bffffffffffffffffffffffffffffffffffffffffffffffffffffffff1916827bffffffffffffffffffffffffffffffffffffffffffffffffffffffff1916148061182457507f5b5e139f000000000000000000000000000000000000000000000000000000007bffffffffffffffffffffffffffffffffffffffffffffffffffffffff1916827bffffffffffffffffffffffffffffffffffffffffffffffffffffffff1916145b80611834575061183382611ee0565b5b9050919050565b611855828260405180602001604052806000815250611f4a565b5050565b60008073ffffffffffffffffffffffffffffffffffffffff166002600084815260200190815260200160002060009054906101000a900473ffffffffffffffffffffffffffffffffffffffff1673ffffffffffffffffffffffffffffffffffffffff1614159050919050565b600033905090565b816004600083815260200190815260200160002060006101000a81548173ffffffffffffffffffffffffffffffffffffffff021916908373ffffffffffffffffffffffffffffffffffffffff160217905550808273ffffffffffffffffffffffffffffffffffffffff1661194083610e3c565b73ffffffffffffffffffffffffffffffffffffffff167f8c5be1e5ebec7d5bd14f71427d1e84f3dd0314c0f7b2291e5b200ac8c7c3b92560405160405180910390a45050565b600061199182611859565b6119d0576040517f08c379a00000000000000000000000000000000000000000000000000000000081526004016119c7906136ba565b60405180910390fd5b60006119db83610e3c565b90508073ffffffffffffffffffffffffffffffffffffffff168473ffffffffffffffffffffffffffffffffffffffff161480611a4a57508373ffffffffffffffffffffffffffffffffffffffff16611a3284610ab6565b73ffffffffffffffffffffffffffffffffffffffff16145b80611a5b5750611a5a818561169f565b5b91505092915050565b8273ffffffffffffffffffffffffffffffffffffffff16611a8482610e3c565b73ffffffffffffffffffffffffffffffffffffffff1614611ada576040517f08c379a0000000000000000000000000000000000000000000000000000000008152600401611ad19061377a565b60405180910390fd5b600073ffffffffffffffffffffffffffffffffffffffff168273ffffffffffffffffffffffffffffffffffffffff161415611b4a576040517f08c379a0000000000000000000000000000000000000000000000000000000008152600401611b419061365a565b60405180910390fd5b611b55838383611fa5565b611b606000826118cd565b6001600360008573ffffffffffffffffffffffffffffffffffffffff1673ffffffffffffffffffffffffffffffffffffffff1681526020019081526020016000206000828254611bb09190613990565b925050819055506001600360008473ffffffffffffffffffffffffffffffffffffffff1673ffffffffffffffffffffffffffffffffffffffff1681526020019081526020016000206000828254611c079190613909565b92505081905550816002600083815260200190815260200160002060006101000a81548173ffffffffffffffffffffffffffffffffffffffff021916908373ffffffffffffffffffffffffffffffffffffffff160217905550808273ffffffffffffffffffffffffffffffffffffffff168473ffffffffffffffffffffffffffffffffffffffff167fddf252ad1be2c89b69c2b068fc378daa952ba7f163c4a11628f55a4df523b3ef60405160405180910390a4505050565b611ccb848484611a64565b611cd7848484846120b9565b611d16576040517f08c379a0000000000000000000000000000000000000000000000000000000008152600401611d0d9061361a565b60405180910390fd5b50505050565b606060405180602001604052806000815250905090565b60606000821415611d7b576040518060400160405280600181526020017f30000000000000000000000000000000000000000000000000000000000000008152509050611edb565b600082905060005b60008214611dad578080611d9690613ad1565b915050600a82611da6919061395f565b9150611d83565b60008167ffffffffffffffff811115611def577f4e487b7100000000000000000000000000000000000000000000000000000000600052604160045260246000fd5b6040519080825280601f01601f191660200182016040528015611e215781602001600182028036833780820191505090505b5090505b60008514611ed457600182611e3a9190613990565b9150600a85611e499190613b1a565b6030611e559190613909565b60f81b818381518110611e91577f4e487b7100000000000000000000000000000000000000000000000000000000600052603260045260246000fd5b60200101907effffffffffffffffffffffffffffffffffffffffffffffffffffffffffffff1916908160001a905350600a85611ecd919061395f565b9450611e25565b8093505050505b919050565b60007f01ffc9a7000000000000000000000000000000000000000000000000000000007bffffffffffffffffffffffffffffffffffffffffffffffffffffffff1916827bffffffffffffffffffffffffffffffffffffffffffffffffffffffff1916149050919050565b611f548383612250565b611f6160008484846120b9565b611fa0576040517f08c379a0000000000000000000000000000000000000000000000000000000008152600401611f979061361a565b60405180910390fd5b505050565b611fb083838361241e565b600073ffffffffffffffffffffffffffffffffffffffff168373ffffffffffffffffffffffffffffffffffffffff161415611ff357611fee81612423565b612032565b8173ffffffffffffffffffffffffffffffffffffffff168373ffffffffffffffffffffffffffffffffffffffff161461203157612030838261246c565b5b5b600073ffffffffffffffffffffffffffffffffffffffff168273ffffffffffffffffffffffffffffffffffffffff16141561207557612070816125d9565b6120b4565b8273ffffffffffffffffffffffffffffffffffffffff168273ffffffffffffffffffffffffffffffffffffffff16146120b3576120b2828261271c565b5b5b505050565b60006120da8473ffffffffffffffffffffffffffffffffffffffff1661279b565b15612243578373ffffffffffffffffffffffffffffffffffffffff1663150b7a026121036118c5565b8786866040518563ffffffff1660e01b8152600401612125949392919061348d565b602060405180830381600087803b15801561213f57600080fd5b505af192505050801561217057506040513d601f19601f8201168201806040525081019061216d9190612cef565b60015b6121f3573d80600081146121a0576040519150601f19603f3d011682016040523d82523d6000602084013e6121a5565b606091505b506000815114156121eb576040517f08c379a00000000000000000000000000000000000000000000000000000000081526004016121e29061361a565b60405180910390fd5b805181602001fd5b63150b7a0260e01b7bffffffffffffffffffffffffffffffffffffffffffffffffffffffff1916817bffffffffffffffffffffffffffffffffffffffffffffffffffffffff191614915050612248565b600190505b949350505050565b600073ffffffffffffffffffffffffffffffffffffffff168273ffffffffffffffffffffffffffffffffffffffff1614156122c0576040517f08c379a00000000000000000000000000000000000000000000000000000000081526004016122b79061373a565b60405180910390fd5b6122c981611859565b15612309576040517f08c379a00000000000000000000000000000000000000000000000000000000081526004016123009061363a565b60405180910390fd5b61231560008383611fa5565b6001600360008473ffffffffffffffffffffffffffffffffffffffff1673ffffffffffffffffffffffffffffffffffffffff16815260200190815260200160002060008282546123659190613909565b92505081905550816002600083815260200190815260200160002060006101000a81548173ffffffffffffffffffffffffffffffffffffffff021916908373ffffffffffffffffffffffffffffffffffffffff160217905550808273ffffffffffffffffffffffffffffffffffffffff16600073ffffffffffffffffffffffffffffffffffffffff167fddf252ad1be2c89b69c2b068fc378daa952ba7f163c4a11628f55a4df523b3ef60405160405180910390a45050565b505050565b6008805490506009600083815260200190815260200160002081905550600881908060018154018082558091505060019003906000526020600020016000909190919091505550565b6000600161247984610eee565b6124839190613990565b9050600060076000848152602001908152602001600020549050818114612568576000600660008673ffffffffffffffffffffffffffffffffffffffff1673ffffffffffffffffffffffffffffffffffffffff168152602001908152602001600020600084815260200190815260200160002054905080600660008773ffffffffffffffffffffffffffffffffffffffff1673ffffffffffffffffffffffffffffffffffffffff168152602001908152602001600020600084815260200190815260200160002081905550816007600083815260200190815260200160002081905550505b6007600084815260200190815260200160002060009055600660008573ffffffffffffffffffffffffffffffffffffffff1673ffffffffffffffffffffffffffffffffffffffff16815260200190815260200160002060008381526020019081526020016000206000905550505050565b600060016008805490506125ed9190613990565b9050600060096000848152602001908152602001600020549050600060088381548110612643577f4e487b7100000000000000000000000000000000000000000000000000000000600052603260045260246000fd5b90600052602060002001549050806008838154811061268b577f4e487b7100000000000000000000000000000000000000000000000000000000600052603260045260246000fd5b906000526020600020018190555081600960008381526020019081526020016000208190555060096000858152602001908152602001600020600090556008805480612700577f4e487b7100000000000000000000000000000000000000000000000000000000600052603160045260246000fd5b6001900381819060005260206000200160009055905550505050565b600061272783610eee565b905081600660008573ffffffffffffffffffffffffffffffffffffffff1673ffffffffffffffffffffffffffffffffffffffff168152602001908152602001600020600083815260200190815260200160002081905550806007600084815260200190815260200160002081905550505050565b600080823b905060008111915050919050565b8280546127ba90613a9f565b90600052602060002090601f0160209004810192826127dc5760008555612823565b82601f106127f557805160ff1916838001178555612823565b82800160010185558215612823579182015b82811115612822578251825591602001919060010190612807565b5b5090506128309190612834565b5090565b5b8082111561284d576000816000905550600101612835565b5090565b600061286461285f84613866565b613835565b90508281526020810184848401111561287c57600080fd5b612887848285613a5d565b509392505050565b60006128a261289d84613896565b613835565b9050828152602081018484840111156128ba57600080fd5b6128c5848285613a5d565b509392505050565b6000813590506128dc81613c5b565b92915050565b6000813590506128f181613c72565b92915050565b60008135905061290681613c89565b92915050565b60008151905061291b81613c89565b92915050565b600082601f83011261293257600080fd5b8135612942848260208601612851565b91505092915050565b60008135905061295a81613ca0565b92915050565b600082601f83011261297157600080fd5b813561298184826020860161288f565b91505092915050565b60008135905061299981613cb0565b92915050565b6000602082840312156129b157600080fd5b60006129bf848285016128cd565b91505092915050565b600080604083850312156129db57600080fd5b60006129e9858286016128cd565b92505060206129fa858286016128cd565b9150509250929050565b600080600060608486031215612a1957600080fd5b6000612a27868287016128cd565b9350506020612a38868287016128cd565b9250506040612a498682870161298a565b9150509250925092565b60008060008060808587031215612a6957600080fd5b6000612a77878288016128cd565b9450506020612a88878288016128cd565b9350506040612a998782880161298a565b925050606085013567ffffffffffffffff811115612ab657600080fd5b612ac287828801612921565b91505092959194509250565b60008060408385031215612ae157600080fd5b6000612aef858286016128cd565b9250506020612b00858286016128e2565b9150509250929050565b60008060008060008060008060008060006101608c8e031215612b2c57600080fd5b6000612b3a8e828f016128cd565b9b505060208c013567ffffffffffffffff811115612b5757600080fd5b612b638e828f01612960565b9a505060408c013567ffffffffffffffff811115612b8057600080fd5b612b8c8e828f01612960565b9950506060612b9d8e828f0161294b565b98505060808c013567ffffffffffffffff811115612bba57600080fd5b612bc68e828f01612960565b97505060a0612bd78e828f016128e2565b96505060c08c013567ffffffffffffffff811115612bf457600080fd5b612c008e828f01612960565b95505060e08c013567ffffffffffffffff811115612c1d57600080fd5b612c298e828f01612960565b9450506101008c013567ffffffffffffffff811115612c4757600080fd5b612c538e828f01612960565b935050610120612c658e828f0161298a565b925050610140612c778e828f0161298a565b9150509295989b509295989b9093969950565b60008060408385031215612c9d57600080fd5b6000612cab858286016128cd565b9250506020612cbc8582860161298a565b9150509250929050565b600060208284031215612cd857600080fd5b6000612ce6848285016128f7565b91505092915050565b600060208284031215612d0157600080fd5b6000612d0f8482850161290c565b91505092915050565b600060208284031215612d2a57600080fd5b6000612d388482850161298a565b91505092915050565b612d4a816139c4565b82525050565b612d59816139d6565b82525050565b6000612d6a826138c6565b612d7481856138dc565b9350612d84818560208601613a6c565b612d8d81613c36565b840191505092915050565b612da181613a4b565b82525050565b6000612db2826138d1565b612dbc81856138ed565b9350612dcc818560208601613a6c565b612dd581613c36565b840191505092915050565b6000612deb826138d1565b612df581856138fe565b9350612e05818560208601613a6c565b80840191505092915050565b6000612e1e602b836138ed565b91507f455243373231456e756d657261626c653a206f776e657220696e646578206f7560008301527f74206f6620626f756e64730000000000000000000000000000000000000000006020830152604082019050919050565b6000612e846032836138ed565b91507f4552433732313a207472616e7366657220746f206e6f6e20455243373231526560008301527f63656976657220696d706c656d656e74657200000000000000000000000000006020830152604082019050919050565b6000612eea601c836138ed565b91507f4552433732313a20746f6b656e20616c7265616479206d696e746564000000006000830152602082019050919050565b6000612f2a6024836138ed565b91507f4552433732313a207472616e7366657220746f20746865207a65726f2061646460008301527f72657373000000000000000000000000000000000000000000000000000000006020830152604082019050919050565b6000612f906019836138ed565b91507f4552433732313a20617070726f766520746f2063616c6c6572000000000000006000830152602082019050919050565b6000612fd0600a836138ed565b91507f6f6e6c792061646d696e000000000000000000000000000000000000000000006000830152602082019050919050565b6000613010602c836138ed565b91507f4552433732313a206f70657261746f7220717565727920666f72206e6f6e657860008301527f697374656e7420746f6b656e00000000000000000000000000000000000000006020830152604082019050919050565b60006130766038836138ed565b91507f4552433732313a20617070726f76652063616c6c6572206973206e6f74206f7760008301527f6e6572206e6f7220617070726f76656420666f7220616c6c00000000000000006020830152604082019050919050565b60006130dc602a836138ed565b91507f4552433732313a2062616c616e636520717565727920666f7220746865207a6560008301527f726f2061646472657373000000000000000000000000000000000000000000006020830152604082019050919050565b60006131426029836138ed565b91507f4552433732313a206f776e657220717565727920666f72206e6f6e657869737460008301527f656e7420746f6b656e00000000000000000000000000000000000000000000006020830152604082019050919050565b60006131a86020836138ed565b91507f4552433732313a206d696e7420746f20746865207a65726f20616464726573736000830152602082019050919050565b60006131e8602c836138ed565b91507f4552433732313a20617070726f76656420717565727920666f72206e6f6e657860008301527f697374656e7420746f6b656e00000000000000000000000000000000000000006020830152604082019050919050565b600061324e6029836138ed565b91507f4552433732313a207472616e73666572206f6620746f6b656e2074686174206960008301527f73206e6f74206f776e00000000000000000000000000000000000000000000006020830152604082019050919050565b60006132b4602f836138ed565b91507f4552433732314d657461646174613a2055524920717565727920666f72206e6f60008301527f6e6578697374656e7420746f6b656e00000000000000000000000000000000006020830152604082019050919050565b600061331a6021836138ed565b91507f4552433732313a20617070726f76616c20746f2063757272656e74206f776e6560008301527f72000000000000000000000000000000000000000000000000000000000000006020830152604082019050919050565b60006133806031836138ed565b91507f4552433732313a207472616e736665722063616c6c6572206973206e6f74206f60008301527f776e6572206e6f7220617070726f7665640000000000000000000000000000006020830152604082019050919050565b60006133e6602c836138ed565b91507f455243373231456e756d657261626c653a20676c6f62616c20696e646578206f60008301527f7574206f6620626f756e647300000000000000000000000000000000000000006020830152604082019050919050565b61344881613a41565b82525050565b600061345a8285612de0565b91506134668284612de0565b91508190509392505050565b60006020820190506134876000830184612d41565b92915050565b60006080820190506134a26000830187612d41565b6134af6020830186612d41565b6134bc604083018561343f565b81810360608301526134ce8184612d5f565b905095945050505050565b6000610180820190506134ef600083018f612d41565b8181036020830152613501818e612da7565b90508181036040830152613515818d612da7565b9050613524606083018c61343f565b8181036080830152613536818b612da7565b905061354560a083018a612d98565b61355260c0830189612d50565b81810360e08301526135648188612da7565b90508181036101008301526135798187612da7565b905081810361012083015261358e8186612da7565b905061359e61014083018561343f565b6135ac61016083018461343f565b9d9c50505050505050505050505050565b60006020820190506135d26000830184612d50565b92915050565b600060208201905081810360008301526135f28184612da7565b905092915050565b6000602082019050818103600083015261361381612e11565b9050919050565b6000602082019050818103600083015261363381612e77565b9050919050565b6000602082019050818103600083015261365381612edd565b9050919050565b6000602082019050818103600083015261367381612f1d565b9050919050565b6000602082019050818103600083015261369381612f83565b9050919050565b600060208201905081810360008301526136b381612fc3565b9050919050565b600060208201905081810360008301526136d381613003565b9050919050565b600060208201905081810360008301526136f381613069565b9050919050565b60006020820190508181036000830152613713816130cf565b9050919050565b6000602082019050818103600083015261373381613135565b9050919050565b600060208201905081810360008301526137538161319b565b9050919050565b60006020820190508181036000830152613773816131db565b9050919050565b6000602082019050818103600083015261379381613241565b9050919050565b600060208201905081810360008301526137b3816132a7565b9050919050565b600060208201905081810360008301526137d38161330d565b9050919050565b600060208201905081810360008301526137f381613373565b9050919050565b60006020820190508181036000830152613813816133d9565b9050919050565b600060208201905061382f600083018461343f565b92915050565b6000604051905081810181811067ffffffffffffffff8211171561385c5761385b613c07565b5b8060405250919050565b600067ffffffffffffffff82111561388157613880613c07565b5b601f19601f8301169050602081019050919050565b600067ffffffffffffffff8211156138b1576138b0613c07565b5b601f19601f8301169050602081019050919050565b600081519050919050565b600081519050919050565b600082825260208201905092915050565b600082825260208201905092915050565b600081905092915050565b600061391482613a41565b915061391f83613a41565b9250827fffffffffffffffffffffffffffffffffffffffffffffffffffffffffffffffff0382111561395457613953613b4b565b5b828201905092915050565b600061396a82613a41565b915061397583613a41565b92508261398557613984613b7a565b5b828204905092915050565b600061399b82613a41565b91506139a683613a41565b9250828210156139b9576139b8613b4b565b5b828203905092915050565b60006139cf82613a21565b9050919050565b60008115159050919050565b60007fffffffff0000000000000000000000000000000000000000000000000000000082169050919050565b6000819050613a1c82613c47565b919050565b600073ffffffffffffffffffffffffffffffffffffffff82169050919050565b6000819050919050565b6000613a5682613a0e565b9050919050565b82818337600083830152505050565b60005b83811015613a8a578082015181840152602081019050613a6f565b83811115613a99576000848401525b50505050565b60006002820490506001821680613ab757607f821691505b60208210811415613acb57613aca613bd8565b5b50919050565b6000613adc82613a41565b91507fffffffffffffffffffffffffffffffffffffffffffffffffffffffffffffffff821415613b0f57613b0e613b4b565b5b600182019050919050565b6000613b2582613a41565b9150613b3083613a41565b925082613b4057613b3f613b7a565b5b828206905092915050565b7f4e487b7100000000000000000000000000000000000000000000000000000000600052601160045260246000fd5b7f4e487b7100000000000000000000000000000000000000000000000000000000600052601260045260246000fd5b7f4e487b7100000000000000000000000000000000000000000000000000000000600052602160045260246000fd5b7f4e487b7100000000000000000000000000000000000000000000000000000000600052602260045260246000fd5b7f4e487b7100000000000000000000000000000000000000000000000000000000600052604160045260246000fd5b6000601f19601f8301169050919050565b60048110613c5857613c57613ba9565b5b50565b613c64816139c4565b8114613c6f57600080fd5b50565b613c7b816139d6565b8114613c8657600080fd5b50565b613c92816139e2565b8114613c9d57600080fd5b50565b60048110613cad57600080fd5b50565b613cb981613a41565b8114613cc457600080fd5b5056fea264697066735822122080a38cf9280d12f5748760164769b873f6f67263848c087f6b24c3609f29bbdb64736f6c63430008000033",
  "immutableReferences": {},
  "source": "// SPDX-License-Identifier: MIT\npragma solidity >=0.4.22 <0.9.0;\n\nimport \"../node_modules/@openzeppelin/contracts/token/ERC721/extensions/ERC721Enumerable.sol\";\nimport \"../node_modules/@openzeppelin/contracts/token/ERC721/ERC721.sol\";\n\ncontract Cards is ERC721Enumerable{\n    uint256 public nextTokenId;\n    address public admin;\n\n    constructor() ERC721(\"Cards\", \"CRD\"){\n        admin = msg.sender;\n    }\n\n    enum Rareness {\n        Normal,\n        Rare,\n        Festive,\n        Relic\n    }\n\n    struct Card {\n        address owner;\n        string name;\n        string urlPic;\n        uint256 date;\n        string description;\n        Rareness rareness;\n        bool isForSelling;\n        string nationality;\n        string league;\n        string team;\n        uint amountMinted;\n        uint price;\n    }\n\n    mapping(address => bool) public admins;\n    mapping(address => mapping(uint=>Card)) public myRepository;\n    mapping(uint => Card) market;\n//     // mapping(address => mapping(string=>bool)) public adminsForClub;\n\n    // function getyMyCards(uint256 i)\n    //     external\n    //     view\n    //     returns (Card memory)\n    // {\n    //     return myRepository[msg.sender][i];\n    // }\n\n//     function getCardMarket(uint256 i) external view returns (Card memory) {\n//         return market[i];\n//     }\n\n//     function allowAdmin(address addr) external {\n//       require(msg.sender == admin, 'only admin');\n//       admins[addr] = true;\n//     }\n\n//     function removeAdmin(address addr) external{\n//       require(msg.sender == admin, 'only admin');\n//       admins[addr] = false;\n//     }\n    \n\n  function mint(\n        address to,\n        string memory name,\n        string memory imageUrl,\n        Rareness rareness,\n        string memory description,\n        bool isForSelling,\n        string memory nationality,\n        string memory league,\n        string memory team,\n        uint amountMinted,\n        uint price\n\n    ) external  {\n        require(msg.sender == admin || admins[msg.sender], \"only admin\");\n        _safeMint(to, nextTokenId);\n\n         \n        Card memory card = Card({\n            owner: msg.sender, \n            name: name,\n            urlPic: imageUrl,\n            date: block.timestamp,\n            description: description,\n            rareness: rareness,\n            isForSelling: isForSelling,\n\n            nationality: nationality,\n            league: league,\n            team: team,\n            amountMinted: amountMinted,\n            price: price\n        });\n\n    \n\n        myRepository[msg.sender][nextTokenId] = card;\n        market[nextTokenId] = card;\n        nextTokenId++;\n    }\n\n\n//     function setCardForSelling(uint cardId) external {\n//         //check if owns card, \n//         //check if quantity is >= 1\n//         //check if is selling\n//         require(market[cardId].owner == msg.sender, \"you are not the owner of this card\");\n//         require(myRepository[msg.sender][cardId].isForSelling, 'Card is already for selling!');\n//         require(!myRepository[msg.sender][cardId].isForSelling, 'Card is already for selling!');\n\n//     }\n\n\n\n\n\n\n\n\n// function _baseURI() internal pure override returns (string memory) {\n//     return \"\";\n// }\n\n\n\n\n\n\n\n}\n",
  "sourcePath": "/Volumes/APPLE HDD/reactprojects/next-mongodb/contracts/Cards.sol",
  "compiler": {
    "name": "solc",
    "version": "0.8.0+commit.c7dfd78e.Emscripten.clang"
  },
  "schemaVersion": "3.4.3",
  "updatedAt": "2021-09-11T01:33:07.205Z",
  "devdoc": {
    "kind": "dev",
    "methods": {
      "approve(address,uint256)": {
        "details": "See {IERC721-approve}."
      },
      "balanceOf(address)": {
        "details": "See {IERC721-balanceOf}."
      },
      "getApproved(uint256)": {
        "details": "See {IERC721-getApproved}."
      },
      "isApprovedForAll(address,address)": {
        "details": "See {IERC721-isApprovedForAll}."
      },
      "name()": {
        "details": "See {IERC721Metadata-name}."
      },
      "ownerOf(uint256)": {
        "details": "See {IERC721-ownerOf}."
      },
      "safeTransferFrom(address,address,uint256)": {
        "details": "See {IERC721-safeTransferFrom}."
      },
      "safeTransferFrom(address,address,uint256,bytes)": {
        "details": "See {IERC721-safeTransferFrom}."
      },
      "setApprovalForAll(address,bool)": {
        "details": "See {IERC721-setApprovalForAll}."
      },
      "supportsInterface(bytes4)": {
        "details": "See {IERC165-supportsInterface}."
      },
      "symbol()": {
        "details": "See {IERC721Metadata-symbol}."
      },
      "tokenByIndex(uint256)": {
        "details": "See {IERC721Enumerable-tokenByIndex}."
      },
      "tokenOfOwnerByIndex(address,uint256)": {
        "details": "See {IERC721Enumerable-tokenOfOwnerByIndex}."
      },
      "tokenURI(uint256)": {
        "details": "See {IERC721Metadata-tokenURI}."
      },
      "totalSupply()": {
        "details": "See {IERC721Enumerable-totalSupply}."
      },
      "transferFrom(address,address,uint256)": {
        "details": "See {IERC721-transferFrom}."
      }
    },
    "version": 1
  },
  "userdoc": {
    "kind": "user",
    "methods": {},
    "version": 1
  }
}