{
  "contractName": "Cards",
  "abi": [
    {
      "inputs": [],
      "stateMutability": "nonpayable",
      "type": "constructor"
    },
    {
      "anonymous": false,
      "inputs": [
        {
          "indexed": true,
          "internalType": "address",
          "name": "owner",
          "type": "address"
        },
        {
          "indexed": true,
          "internalType": "address",
          "name": "approved",
          "type": "address"
        },
        {
          "indexed": true,
          "internalType": "uint256",
          "name": "tokenId",
          "type": "uint256"
        }
      ],
      "name": "Approval",
      "type": "event"
    },
    {
      "anonymous": false,
      "inputs": [
        {
          "indexed": true,
          "internalType": "address",
          "name": "owner",
          "type": "address"
        },
        {
          "indexed": true,
          "internalType": "address",
          "name": "operator",
          "type": "address"
        },
        {
          "indexed": false,
          "internalType": "bool",
          "name": "approved",
          "type": "bool"
        }
      ],
      "name": "ApprovalForAll",
      "type": "event"
    },
    {
      "anonymous": false,
      "inputs": [
        {
          "indexed": true,
          "internalType": "address",
          "name": "from",
          "type": "address"
        },
        {
          "indexed": true,
          "internalType": "address",
          "name": "to",
          "type": "address"
        },
        {
          "indexed": true,
          "internalType": "uint256",
          "name": "tokenId",
          "type": "uint256"
        }
      ],
      "name": "Transfer",
      "type": "event"
    },
    {
      "inputs": [],
      "name": "admin",
      "outputs": [
        {
          "internalType": "address",
          "name": "",
          "type": "address"
        }
      ],
      "stateMutability": "view",
      "type": "function",
      "constant": true
    },
    {
      "inputs": [
        {
          "internalType": "address",
          "name": "",
          "type": "address"
        }
      ],
      "name": "admins",
      "outputs": [
        {
          "internalType": "bool",
          "name": "",
          "type": "bool"
        }
      ],
      "stateMutability": "view",
      "type": "function",
      "constant": true
    },
    {
      "inputs": [
        {
          "internalType": "address",
          "name": "to",
          "type": "address"
        },
        {
          "internalType": "uint256",
          "name": "tokenId",
          "type": "uint256"
        }
      ],
      "name": "approve",
      "outputs": [],
      "stateMutability": "nonpayable",
      "type": "function"
    },
    {
      "inputs": [
        {
          "internalType": "address",
          "name": "owner",
          "type": "address"
        }
      ],
      "name": "balanceOf",
      "outputs": [
        {
          "internalType": "uint256",
          "name": "",
          "type": "uint256"
        }
      ],
      "stateMutability": "view",
      "type": "function",
      "constant": true
    },
    {
      "inputs": [
        {
          "internalType": "uint256",
          "name": "tokenId",
          "type": "uint256"
        }
      ],
      "name": "getApproved",
      "outputs": [
        {
          "internalType": "address",
          "name": "",
          "type": "address"
        }
      ],
      "stateMutability": "view",
      "type": "function",
      "constant": true
    },
    {
      "inputs": [
        {
          "internalType": "address",
          "name": "owner",
          "type": "address"
        },
        {
          "internalType": "address",
          "name": "operator",
          "type": "address"
        }
      ],
      "name": "isApprovedForAll",
      "outputs": [
        {
          "internalType": "bool",
          "name": "",
          "type": "bool"
        }
      ],
      "stateMutability": "view",
      "type": "function",
      "constant": true
    },
    {
      "inputs": [
        {
          "internalType": "address",
          "name": "",
          "type": "address"
        },
        {
          "internalType": "uint256",
          "name": "",
          "type": "uint256"
        }
      ],
      "name": "myRepository",
      "outputs": [
        {
          "internalType": "address",
          "name": "owner",
          "type": "address"
        },
        {
          "internalType": "string",
          "name": "name",
          "type": "string"
        },
        {
          "internalType": "string",
          "name": "urlPic",
          "type": "string"
        },
        {
          "internalType": "uint256",
          "name": "date",
          "type": "uint256"
        },
        {
          "internalType": "string",
          "name": "description",
          "type": "string"
        },
        {
          "internalType": "enum Cards.Rareness",
          "name": "rareness",
          "type": "uint8"
        },
        {
          "internalType": "bool",
          "name": "isForSelling",
          "type": "bool"
        },
        {
          "internalType": "string",
          "name": "nationality",
          "type": "string"
        },
        {
          "internalType": "string",
          "name": "league",
          "type": "string"
        },
        {
          "internalType": "string",
          "name": "team",
          "type": "string"
        },
        {
          "internalType": "uint256",
          "name": "amountMinted",
          "type": "uint256"
        },
        {
          "internalType": "uint256",
          "name": "price",
          "type": "uint256"
        }
      ],
      "stateMutability": "view",
      "type": "function",
      "constant": true
    },
    {
      "inputs": [],
      "name": "name",
      "outputs": [
        {
          "internalType": "string",
          "name": "",
          "type": "string"
        }
      ],
      "stateMutability": "view",
      "type": "function",
      "constant": true
    },
    {
      "inputs": [],
      "name": "nextTokenId",
      "outputs": [
        {
          "internalType": "uint256",
          "name": "",
          "type": "uint256"
        }
      ],
      "stateMutability": "view",
      "type": "function",
      "constant": true
    },
    {
      "inputs": [
        {
          "internalType": "uint256",
          "name": "tokenId",
          "type": "uint256"
        }
      ],
      "name": "ownerOf",
      "outputs": [
        {
          "internalType": "address",
          "name": "",
          "type": "address"
        }
      ],
      "stateMutability": "view",
      "type": "function",
      "constant": true
    },
    {
      "inputs": [
        {
          "internalType": "address",
          "name": "from",
          "type": "address"
        },
        {
          "internalType": "address",
          "name": "to",
          "type": "address"
        },
        {
          "internalType": "uint256",
          "name": "tokenId",
          "type": "uint256"
        }
      ],
      "name": "safeTransferFrom",
      "outputs": [],
      "stateMutability": "nonpayable",
      "type": "function"
    },
    {
      "inputs": [
        {
          "internalType": "address",
          "name": "from",
          "type": "address"
        },
        {
          "internalType": "address",
          "name": "to",
          "type": "address"
        },
        {
          "internalType": "uint256",
          "name": "tokenId",
          "type": "uint256"
        },
        {
          "internalType": "bytes",
          "name": "_data",
          "type": "bytes"
        }
      ],
      "name": "safeTransferFrom",
      "outputs": [],
      "stateMutability": "nonpayable",
      "type": "function"
    },
    {
      "inputs": [
        {
          "internalType": "address",
          "name": "operator",
          "type": "address"
        },
        {
          "internalType": "bool",
          "name": "approved",
          "type": "bool"
        }
      ],
      "name": "setApprovalForAll",
      "outputs": [],
      "stateMutability": "nonpayable",
      "type": "function"
    },
    {
      "inputs": [
        {
          "internalType": "bytes4",
          "name": "interfaceId",
          "type": "bytes4"
        }
      ],
      "name": "supportsInterface",
      "outputs": [
        {
          "internalType": "bool",
          "name": "",
          "type": "bool"
        }
      ],
      "stateMutability": "view",
      "type": "function",
      "constant": true
    },
    {
      "inputs": [],
      "name": "symbol",
      "outputs": [
        {
          "internalType": "string",
          "name": "",
          "type": "string"
        }
      ],
      "stateMutability": "view",
      "type": "function",
      "constant": true
    },
    {
      "inputs": [
        {
          "internalType": "uint256",
          "name": "index",
          "type": "uint256"
        }
      ],
      "name": "tokenByIndex",
      "outputs": [
        {
          "internalType": "uint256",
          "name": "",
          "type": "uint256"
        }
      ],
      "stateMutability": "view",
      "type": "function",
      "constant": true
    },
    {
      "inputs": [
        {
          "internalType": "address",
          "name": "owner",
          "type": "address"
        },
        {
          "internalType": "uint256",
          "name": "index",
          "type": "uint256"
        }
      ],
      "name": "tokenOfOwnerByIndex",
      "outputs": [
        {
          "internalType": "uint256",
          "name": "",
          "type": "uint256"
        }
      ],
      "stateMutability": "view",
      "type": "function",
      "constant": true
    },
    {
      "inputs": [
        {
          "internalType": "uint256",
          "name": "tokenId",
          "type": "uint256"
        }
      ],
      "name": "tokenURI",
      "outputs": [
        {
          "internalType": "string",
          "name": "",
          "type": "string"
        }
      ],
      "stateMutability": "view",
      "type": "function",
      "constant": true
    },
    {
      "inputs": [],
      "name": "totalSupply",
      "outputs": [
        {
          "internalType": "uint256",
          "name": "",
          "type": "uint256"
        }
      ],
      "stateMutability": "view",
      "type": "function",
      "constant": true
    },
    {
      "inputs": [
        {
          "internalType": "address",
          "name": "from",
          "type": "address"
        },
        {
          "internalType": "address",
          "name": "to",
          "type": "address"
        },
        {
          "internalType": "uint256",
          "name": "tokenId",
          "type": "uint256"
        }
      ],
      "name": "transferFrom",
      "outputs": [],
      "stateMutability": "nonpayable",
      "type": "function"
    },
    {
      "inputs": [
        {
          "internalType": "uint256",
          "name": "i",
          "type": "uint256"
        }
      ],
      "name": "getyMyCards",
      "outputs": [
        {
          "components": [
            {
              "internalType": "address",
              "name": "owner",
              "type": "address"
            },
            {
              "internalType": "string",
              "name": "name",
              "type": "string"
            },
            {
              "internalType": "string",
              "name": "urlPic",
              "type": "string"
            },
            {
              "internalType": "uint256",
              "name": "date",
              "type": "uint256"
            },
            {
              "internalType": "string",
              "name": "description",
              "type": "string"
            },
            {
              "internalType": "enum Cards.Rareness",
              "name": "rareness",
              "type": "uint8"
            },
            {
              "internalType": "bool",
              "name": "isForSelling",
              "type": "bool"
            },
            {
              "internalType": "string",
              "name": "nationality",
              "type": "string"
            },
            {
              "internalType": "string",
              "name": "league",
              "type": "string"
            },
            {
              "internalType": "string",
              "name": "team",
              "type": "string"
            },
            {
              "internalType": "uint256",
              "name": "amountMinted",
              "type": "uint256"
            },
            {
              "internalType": "uint256",
              "name": "price",
              "type": "uint256"
            }
          ],
          "internalType": "struct Cards.Card",
          "name": "",
          "type": "tuple"
        }
      ],
      "stateMutability": "view",
      "type": "function",
      "constant": true
    },
    {
      "inputs": [
        {
          "internalType": "uint256",
          "name": "i",
          "type": "uint256"
        }
      ],
      "name": "getCardMarket",
      "outputs": [
        {
          "components": [
            {
              "internalType": "address",
              "name": "owner",
              "type": "address"
            },
            {
              "internalType": "string",
              "name": "name",
              "type": "string"
            },
            {
              "internalType": "string",
              "name": "urlPic",
              "type": "string"
            },
            {
              "internalType": "uint256",
              "name": "date",
              "type": "uint256"
            },
            {
              "internalType": "string",
              "name": "description",
              "type": "string"
            },
            {
              "internalType": "enum Cards.Rareness",
              "name": "rareness",
              "type": "uint8"
            },
            {
              "internalType": "bool",
              "name": "isForSelling",
              "type": "bool"
            },
            {
              "internalType": "string",
              "name": "nationality",
              "type": "string"
            },
            {
              "internalType": "string",
              "name": "league",
              "type": "string"
            },
            {
              "internalType": "string",
              "name": "team",
              "type": "string"
            },
            {
              "internalType": "uint256",
              "name": "amountMinted",
              "type": "uint256"
            },
            {
              "internalType": "uint256",
              "name": "price",
              "type": "uint256"
            }
          ],
          "internalType": "struct Cards.Card",
          "name": "",
          "type": "tuple"
        }
      ],
      "stateMutability": "view",
      "type": "function",
      "constant": true
    },
    {
      "inputs": [
        {
          "internalType": "address",
          "name": "addr",
          "type": "address"
        }
      ],
      "name": "allowAdmin",
      "outputs": [],
      "stateMutability": "nonpayable",
      "type": "function"
    },
    {
      "inputs": [
        {
          "internalType": "address",
          "name": "addr",
          "type": "address"
        }
      ],
      "name": "removeAdmin",
      "outputs": [],
      "stateMutability": "nonpayable",
      "type": "function"
    },
    {
      "inputs": [
        {
          "internalType": "address",
          "name": "to",
          "type": "address"
        },
        {
          "internalType": "string",
          "name": "name",
          "type": "string"
        },
        {
          "internalType": "string",
          "name": "imageUrl",
          "type": "string"
        },
        {
          "internalType": "enum Cards.Rareness",
          "name": "rareness",
          "type": "uint8"
        },
        {
          "internalType": "string",
          "name": "description",
          "type": "string"
        },
        {
          "internalType": "string",
          "name": "nationality",
          "type": "string"
        },
        {
          "internalType": "string",
          "name": "league",
          "type": "string"
        },
        {
          "internalType": "string",
          "name": "team",
          "type": "string"
        },
        {
          "internalType": "uint256",
          "name": "amountMinted",
          "type": "uint256"
        },
        {
          "internalType": "uint256",
          "name": "price",
          "type": "uint256"
        }
      ],
      "name": "mint",
      "outputs": [
        {
          "components": [
            {
              "internalType": "address",
              "name": "owner",
              "type": "address"
            },
            {
              "internalType": "string",
              "name": "name",
              "type": "string"
            },
            {
              "internalType": "string",
              "name": "urlPic",
              "type": "string"
            },
            {
              "internalType": "uint256",
              "name": "date",
              "type": "uint256"
            },
            {
              "internalType": "string",
              "name": "description",
              "type": "string"
            },
            {
              "internalType": "enum Cards.Rareness",
              "name": "rareness",
              "type": "uint8"
            },
            {
              "internalType": "bool",
              "name": "isForSelling",
              "type": "bool"
            },
            {
              "internalType": "string",
              "name": "nationality",
              "type": "string"
            },
            {
              "internalType": "string",
              "name": "league",
              "type": "string"
            },
            {
              "internalType": "string",
              "name": "team",
              "type": "string"
            },
            {
              "internalType": "uint256",
              "name": "amountMinted",
              "type": "uint256"
            },
            {
              "internalType": "uint256",
              "name": "price",
              "type": "uint256"
            }
          ],
          "internalType": "struct Cards.Card",
          "name": "",
          "type": "tuple"
        }
      ],
      "stateMutability": "nonpayable",
      "type": "function"
    }
  ],
  "bytecode": "0x60806040523480156200001157600080fd5b506040518060400160405280600581526020017f43617264730000000000000000000000000000000000000000000000000000008152506040518060400160405280600381526020017f4352440000000000000000000000000000000000000000000000000000000000815250816000908051906020019062000096929190620000f9565b508060019080519060200190620000af929190620000f9565b50505033600b60006101000a81548173ffffffffffffffffffffffffffffffffffffffff021916908373ffffffffffffffffffffffffffffffffffffffff1602179055506200020e565b8280546200010790620001a9565b90600052602060002090601f0160209004810192826200012b576000855562000177565b82601f106200014657805160ff191683800117855562000177565b8280016001018555821562000177579182015b828111156200017657825182559160200191906001019062000159565b5b5090506200018691906200018a565b5090565b5b80821115620001a55760008160009055506001016200018b565b5090565b60006002820490506001821680620001c257607f821691505b60208210811415620001d957620001d8620001df565b5b50919050565b7f4e487b7100000000000000000000000000000000000000000000000000000000600052602260045260246000fd5b614bd0806200021e6000396000f3fe608060405234801561001057600080fd5b50600436106101735760003560e01c80636352211e116100de578063a43e119c11610097578063b88d4fde11610071578063b88d4fde146104b3578063c87b56dd146104cf578063e985e9c5146104ff578063f851a4401461052f57610173565b8063a43e119c14610423578063a80c024814610453578063b07899241461048357610173565b80636352211e1461033057806370a082311461036057806375794a3c14610390578063827e3f8b146103ae57806395d89b41146103e9578063a22cb4651461040757610173565b806323b872dd1161013057806323b872dd1461024c5780632f745c591461026857806342842e0e14610298578063429b62e5146102b45780634f6ccce7146102e45780635d01569c1461031457610173565b806301ffc9a71461017857806306fdde03146101a8578063081812fc146101c6578063095ea7b3146101f65780631785f53c1461021257806318160ddd1461022e575b600080fd5b610192600480360381019061018d91906139ca565b61054d565b60405161019f919061445d565b60405180910390f35b6101b06105c7565b6040516101bd9190614478565b60405180910390f35b6101e060048036038101906101db9190613a1c565b610659565b6040516101ed9190614312565b60405180910390f35b610210600480360381019061020b919061398e565b6106de565b005b61022c600480360381019061022791906136b8565b6107f6565b005b6102366108e1565b60405161024391906146dc565b60405180910390f35b6102666004803603810190610261919061371d565b6108ee565b005b610282600480360381019061027d919061398e565b61094e565b60405161028f91906146dc565b60405180910390f35b6102b260048036038101906102ad919061371d565b6109f3565b005b6102ce60048036038101906102c991906136b8565b610a13565b6040516102db919061445d565b60405180910390f35b6102fe60048036038101906102f99190613a1c565b610a33565b60405161030b91906146dc565b60405180910390f35b61032e600480360381019061032991906136b8565b610aca565b005b61034a60048036038101906103459190613a1c565b610bb5565b6040516103579190614312565b60405180910390f35b61037a600480360381019061037591906136b8565b610c67565b60405161038791906146dc565b60405180910390f35b610398610d1f565b6040516103a591906146dc565b60405180910390f35b6103c860048036038101906103c3919061398e565b610d25565b6040516103e09c9b9a99989796959493929190614379565b60405180910390f35b6103f16110fc565b6040516103fe9190614478565b60405180910390f35b610421600480360381019061041c91906137e7565b61118e565b005b61043d60048036038101906104389190613a1c565b61130f565b60405161044a91906146ba565b60405180910390f35b61046d60048036038101906104689190613a1c565b6117fc565b60405161047a91906146ba565b60405180910390f35b61049d60048036038101906104989190613823565b611cac565b6040516104aa91906146ba565b60405180910390f35b6104cd60048036038101906104c8919061376c565b6121fe565b005b6104e960048036038101906104e49190613a1c565b612260565b6040516104f69190614478565b60405180910390f35b610519600480360381019061051491906136e1565b612307565b604051610526919061445d565b60405180910390f35b61053761239b565b6040516105449190614312565b60405180910390f35b60007f780e9d63000000000000000000000000000000000000000000000000000000007bffffffffffffffffffffffffffffffffffffffffffffffffffffffff1916827bffffffffffffffffffffffffffffffffffffffffffffffffffffffff191614806105c057506105bf826123c1565b5b9050919050565b6060600080546105d690614972565b80601f016020809104026020016040519081016040528092919081815260200182805461060290614972565b801561064f5780601f106106245761010080835404028352916020019161064f565b820191906000526020600020905b81548152906001019060200180831161063257829003601f168201915b5050505050905090565b6000610664826124a3565b6106a3576040517f08c379a000000000000000000000000000000000000000000000000000000000815260040161069a906145fa565b60405180910390fd5b6004600083815260200190815260200160002060009054906101000a900473ffffffffffffffffffffffffffffffffffffffff169050919050565b60006106e982610bb5565b90508073ffffffffffffffffffffffffffffffffffffffff168373ffffffffffffffffffffffffffffffffffffffff16141561075a576040517f08c379a00000000000000000000000000000000000000000000000000000000081526004016107519061465a565b60405180910390fd5b8073ffffffffffffffffffffffffffffffffffffffff1661077961250f565b73ffffffffffffffffffffffffffffffffffffffff1614806107a857506107a7816107a261250f565b612307565b5b6107e7576040517f08c379a00000000000000000000000000000000000000000000000000000000081526004016107de9061457a565b60405180910390fd5b6107f18383612517565b505050565b600b60009054906101000a900473ffffffffffffffffffffffffffffffffffffffff1673ffffffffffffffffffffffffffffffffffffffff163373ffffffffffffffffffffffffffffffffffffffff1614610886576040517f08c379a000000000000000000000000000000000000000000000000000000000815260040161087d9061453a565b60405180910390fd5b6000600c60008373ffffffffffffffffffffffffffffffffffffffff1673ffffffffffffffffffffffffffffffffffffffff16815260200190815260200160002060006101000a81548160ff02191690831515021790555050565b6000600880549050905090565b6108ff6108f961250f565b826125d0565b61093e576040517f08c379a00000000000000000000000000000000000000000000000000000000081526004016109359061467a565b60405180910390fd5b6109498383836126ae565b505050565b600061095983610c67565b821061099a576040517f08c379a00000000000000000000000000000000000000000000000000000000081526004016109919061449a565b60405180910390fd5b600660008473ffffffffffffffffffffffffffffffffffffffff1673ffffffffffffffffffffffffffffffffffffffff168152602001908152602001600020600083815260200190815260200160002054905092915050565b610a0e838383604051806020016040528060008152506121fe565b505050565b600c6020528060005260406000206000915054906101000a900460ff1681565b6000610a3d6108e1565b8210610a7e576040517f08c379a0000000000000000000000000000000000000000000000000000000008152600401610a759061469a565b60405180910390fd5b60088281548110610ab8577f4e487b7100000000000000000000000000000000000000000000000000000000600052603260045260246000fd5b90600052602060002001549050919050565b600b60009054906101000a900473ffffffffffffffffffffffffffffffffffffffff1673ffffffffffffffffffffffffffffffffffffffff163373ffffffffffffffffffffffffffffffffffffffff1614610b5a576040517f08c379a0000000000000000000000000000000000000000000000000000000008152600401610b519061453a565b60405180910390fd5b6001600c60008373ffffffffffffffffffffffffffffffffffffffff1673ffffffffffffffffffffffffffffffffffffffff16815260200190815260200160002060006101000a81548160ff02191690831515021790555050565b6000806002600084815260200190815260200160002060009054906101000a900473ffffffffffffffffffffffffffffffffffffffff169050600073ffffffffffffffffffffffffffffffffffffffff168173ffffffffffffffffffffffffffffffffffffffff161415610c5e576040517f08c379a0000000000000000000000000000000000000000000000000000000008152600401610c55906145ba565b60405180910390fd5b80915050919050565b60008073ffffffffffffffffffffffffffffffffffffffff168273ffffffffffffffffffffffffffffffffffffffff161415610cd8576040517f08c379a0000000000000000000000000000000000000000000000000000000008152600401610ccf9061459a565b60405180910390fd5b600360008373ffffffffffffffffffffffffffffffffffffffff1673ffffffffffffffffffffffffffffffffffffffff168152602001908152602001600020549050919050565b600a5481565b600d602052816000526040600020602052806000526040600020600091509150508060000160009054906101000a900473ffffffffffffffffffffffffffffffffffffffff1690806001018054610d7b90614972565b80601f0160208091040260200160405190810160405280929190818152602001828054610da790614972565b8015610df45780601f10610dc957610100808354040283529160200191610df4565b820191906000526020600020905b815481529060010190602001808311610dd757829003601f168201915b505050505090806002018054610e0990614972565b80601f0160208091040260200160405190810160405280929190818152602001828054610e3590614972565b8015610e825780601f10610e5757610100808354040283529160200191610e82565b820191906000526020600020905b815481529060010190602001808311610e6557829003601f168201915b505050505090806003015490806004018054610e9d90614972565b80601f0160208091040260200160405190810160405280929190818152602001828054610ec990614972565b8015610f165780601f10610eeb57610100808354040283529160200191610f16565b820191906000526020600020905b815481529060010190602001808311610ef957829003601f168201915b5050505050908060050160009054906101000a900460ff16908060050160019054906101000a900460ff1690806006018054610f5190614972565b80601f0160208091040260200160405190810160405280929190818152602001828054610f7d90614972565b8015610fca5780601f10610f9f57610100808354040283529160200191610fca565b820191906000526020600020905b815481529060010190602001808311610fad57829003601f168201915b505050505090806007018054610fdf90614972565b80601f016020809104026020016040519081016040528092919081815260200182805461100b90614972565b80156110585780601f1061102d57610100808354040283529160200191611058565b820191906000526020600020905b81548152906001019060200180831161103b57829003601f168201915b50505050509080600801805461106d90614972565b80601f016020809104026020016040519081016040528092919081815260200182805461109990614972565b80156110e65780601f106110bb576101008083540402835291602001916110e6565b820191906000526020600020905b8154815290600101906020018083116110c957829003601f168201915b50505050509080600901549080600a015490508c565b60606001805461110b90614972565b80601f016020809104026020016040519081016040528092919081815260200182805461113790614972565b80156111845780601f1061115957610100808354040283529160200191611184565b820191906000526020600020905b81548152906001019060200180831161116757829003601f168201915b5050505050905090565b61119661250f565b73ffffffffffffffffffffffffffffffffffffffff168273ffffffffffffffffffffffffffffffffffffffff161415611204576040517f08c379a00000000000000000000000000000000000000000000000000000000081526004016111fb9061451a565b60405180910390fd5b806005600061121161250f565b73ffffffffffffffffffffffffffffffffffffffff1673ffffffffffffffffffffffffffffffffffffffff16815260200190815260200160002060008473ffffffffffffffffffffffffffffffffffffffff1673ffffffffffffffffffffffffffffffffffffffff16815260200190815260200160002060006101000a81548160ff0219169083151502179055508173ffffffffffffffffffffffffffffffffffffffff166112be61250f565b73ffffffffffffffffffffffffffffffffffffffff167f17307eab39ab6107e8899845ad3d59bd9653f200f220920489ca2b5937696c3183604051611303919061445d565b60405180910390a35050565b611317613416565b600d60003373ffffffffffffffffffffffffffffffffffffffff1673ffffffffffffffffffffffffffffffffffffffff1681526020019081526020016000206000838152602001908152602001600020604051806101800160405290816000820160009054906101000a900473ffffffffffffffffffffffffffffffffffffffff1673ffffffffffffffffffffffffffffffffffffffff1673ffffffffffffffffffffffffffffffffffffffff1681526020016001820180546113d990614972565b80601f016020809104026020016040519081016040528092919081815260200182805461140590614972565b80156114525780601f1061142757610100808354040283529160200191611452565b820191906000526020600020905b81548152906001019060200180831161143557829003601f168201915b5050505050815260200160028201805461146b90614972565b80601f016020809104026020016040519081016040528092919081815260200182805461149790614972565b80156114e45780601f106114b9576101008083540402835291602001916114e4565b820191906000526020600020905b8154815290600101906020018083116114c757829003601f168201915b505050505081526020016003820154815260200160048201805461150790614972565b80601f016020809104026020016040519081016040528092919081815260200182805461153390614972565b80156115805780601f1061155557610100808354040283529160200191611580565b820191906000526020600020905b81548152906001019060200180831161156357829003601f168201915b505050505081526020016005820160009054906101000a900460ff1660038111156115d4577f4e487b7100000000000000000000000000000000000000000000000000000000600052602160045260246000fd5b600381111561160c577f4e487b7100000000000000000000000000000000000000000000000000000000600052602160045260246000fd5b81526020016005820160019054906101000a900460ff1615151515815260200160068201805461163b90614972565b80601f016020809104026020016040519081016040528092919081815260200182805461166790614972565b80156116b45780601f10611689576101008083540402835291602001916116b4565b820191906000526020600020905b81548152906001019060200180831161169757829003601f168201915b505050505081526020016007820180546116cd90614972565b80601f01602080910402602001604051908101604052809291908181526020018280546116f990614972565b80156117465780601f1061171b57610100808354040283529160200191611746565b820191906000526020600020905b81548152906001019060200180831161172957829003601f168201915b5050505050815260200160088201805461175f90614972565b80601f016020809104026020016040519081016040528092919081815260200182805461178b90614972565b80156117d85780601f106117ad576101008083540402835291602001916117d8565b820191906000526020600020905b8154815290600101906020018083116117bb57829003601f168201915b5050505050815260200160098201548152602001600a820154815250509050919050565b611804613416565b600e6000838152602001908152602001600020604051806101800160405290816000820160009054906101000a900473ffffffffffffffffffffffffffffffffffffffff1673ffffffffffffffffffffffffffffffffffffffff1673ffffffffffffffffffffffffffffffffffffffff16815260200160018201805461188990614972565b80601f01602080910402602001604051908101604052809291908181526020018280546118b590614972565b80156119025780601f106118d757610100808354040283529160200191611902565b820191906000526020600020905b8154815290600101906020018083116118e557829003601f168201915b5050505050815260200160028201805461191b90614972565b80601f016020809104026020016040519081016040528092919081815260200182805461194790614972565b80156119945780601f1061196957610100808354040283529160200191611994565b820191906000526020600020905b81548152906001019060200180831161197757829003601f168201915b50505050508152602001600382015481526020016004820180546119b790614972565b80601f01602080910402602001604051908101604052809291908181526020018280546119e390614972565b8015611a305780601f10611a0557610100808354040283529160200191611a30565b820191906000526020600020905b815481529060010190602001808311611a1357829003601f168201915b505050505081526020016005820160009054906101000a900460ff166003811115611a84577f4e487b7100000000000000000000000000000000000000000000000000000000600052602160045260246000fd5b6003811115611abc577f4e487b7100000000000000000000000000000000000000000000000000000000600052602160045260246000fd5b81526020016005820160019054906101000a900460ff16151515158152602001600682018054611aeb90614972565b80601f0160208091040260200160405190810160405280929190818152602001828054611b1790614972565b8015611b645780601f10611b3957610100808354040283529160200191611b64565b820191906000526020600020905b815481529060010190602001808311611b4757829003601f168201915b50505050508152602001600782018054611b7d90614972565b80601f0160208091040260200160405190810160405280929190818152602001828054611ba990614972565b8015611bf65780601f10611bcb57610100808354040283529160200191611bf6565b820191906000526020600020905b815481529060010190602001808311611bd957829003601f168201915b50505050508152602001600882018054611c0f90614972565b80601f0160208091040260200160405190810160405280929190818152602001828054611c3b90614972565b8015611c885780601f10611c5d57610100808354040283529160200191611c88565b820191906000526020600020905b815481529060010190602001808311611c6b57829003601f168201915b5050505050815260200160098201548152602001600a820154815250509050919050565b611cb4613416565b600b60009054906101000a900473ffffffffffffffffffffffffffffffffffffffff1673ffffffffffffffffffffffffffffffffffffffff163373ffffffffffffffffffffffffffffffffffffffff161480611d595750600c60003373ffffffffffffffffffffffffffffffffffffffff1673ffffffffffffffffffffffffffffffffffffffff16815260200190815260200160002060009054906101000a900460ff165b611d98576040517f08c379a0000000000000000000000000000000000000000000000000000000008152600401611d8f9061453a565b60405180910390fd5b611da48b600a5461290a565b60006040518061018001604052803073ffffffffffffffffffffffffffffffffffffffff1681526020018c81526020018b81526020014281526020018981526020018a6003811115611e1f577f4e487b7100000000000000000000000000000000000000000000000000000000600052602160045260246000fd5b815260200160011515815260200188815260200187815260200186815260200185815260200184815250905080600d60003073ffffffffffffffffffffffffffffffffffffffff1673ffffffffffffffffffffffffffffffffffffffff1681526020019081526020016000206000600a54815260200190815260200160002060008201518160000160006101000a81548173ffffffffffffffffffffffffffffffffffffffff021916908373ffffffffffffffffffffffffffffffffffffffff1602179055506020820151816001019080519060200190611f019291906134c7565b506040820151816002019080519060200190611f1e9291906134c7565b50606082015181600301556080820151816004019080519060200190611f459291906134c7565b5060a08201518160050160006101000a81548160ff02191690836003811115611f97577f4e487b7100000000000000000000000000000000000000000000000000000000600052602160045260246000fd5b021790555060c08201518160050160016101000a81548160ff02191690831515021790555060e0820151816006019080519060200190611fd89291906134c7565b50610100820151816007019080519060200190611ff69291906134c7565b506101208201518160080190805190602001906120149291906134c7565b50610140820151816009015561016082015181600a015590505080600e6000600a54815260200190815260200160002060008201518160000160006101000a81548173ffffffffffffffffffffffffffffffffffffffff021916908373ffffffffffffffffffffffffffffffffffffffff16021790555060208201518160010190805190602001906120a79291906134c7565b5060408201518160020190805190602001906120c49291906134c7565b506060820151816003015560808201518160040190805190602001906120eb9291906134c7565b5060a08201518160050160006101000a81548160ff0219169083600381111561213d577f4e487b7100000000000000000000000000000000000000000000000000000000600052602160045260246000fd5b021790555060c08201518160050160016101000a81548160ff02191690831515021790555060e082015181600601908051906020019061217e9291906134c7565b5061010082015181600701908051906020019061219c9291906134c7565b506101208201518160080190805190602001906121ba9291906134c7565b50610140820151816009015561016082015181600a0155905050600a60008154809291906121e7906149a4565b9190505550809150509a9950505050505050505050565b61220f61220961250f565b836125d0565b61224e576040517f08c379a00000000000000000000000000000000000000000000000000000000081526004016122459061467a565b60405180910390fd5b61225a84848484612928565b50505050565b606061226b826124a3565b6122aa576040517f08c379a00000000000000000000000000000000000000000000000000000000081526004016122a19061463a565b60405180910390fd5b60006122b4612984565b905060008151116122d457604051806020016040528060008152506122ff565b806122de8461299b565b6040516020016122ef9291906142ee565b6040516020818303038152906040525b915050919050565b6000600560008473ffffffffffffffffffffffffffffffffffffffff1673ffffffffffffffffffffffffffffffffffffffff16815260200190815260200160002060008373ffffffffffffffffffffffffffffffffffffffff1673ffffffffffffffffffffffffffffffffffffffff16815260200190815260200160002060009054906101000a900460ff16905092915050565b600b60009054906101000a900473ffffffffffffffffffffffffffffffffffffffff1681565b60007f80ac58cd000000000000000000000000000000000000000000000000000000007bffffffffffffffffffffffffffffffffffffffffffffffffffffffff1916827bffffffffffffffffffffffffffffffffffffffffffffffffffffffff1916148061248c57507f5b5e139f000000000000000000000000000000000000000000000000000000007bffffffffffffffffffffffffffffffffffffffffffffffffffffffff1916827bffffffffffffffffffffffffffffffffffffffffffffffffffffffff1916145b8061249c575061249b82612b48565b5b9050919050565b60008073ffffffffffffffffffffffffffffffffffffffff166002600084815260200190815260200160002060009054906101000a900473ffffffffffffffffffffffffffffffffffffffff1673ffffffffffffffffffffffffffffffffffffffff1614159050919050565b600033905090565b816004600083815260200190815260200160002060006101000a81548173ffffffffffffffffffffffffffffffffffffffff021916908373ffffffffffffffffffffffffffffffffffffffff160217905550808273ffffffffffffffffffffffffffffffffffffffff1661258a83610bb5565b73ffffffffffffffffffffffffffffffffffffffff167f8c5be1e5ebec7d5bd14f71427d1e84f3dd0314c0f7b2291e5b200ac8c7c3b92560405160405180910390a45050565b60006125db826124a3565b61261a576040517f08c379a00000000000000000000000000000000000000000000000000000000081526004016126119061455a565b60405180910390fd5b600061262583610bb5565b90508073ffffffffffffffffffffffffffffffffffffffff168473ffffffffffffffffffffffffffffffffffffffff16148061269457508373ffffffffffffffffffffffffffffffffffffffff1661267c84610659565b73ffffffffffffffffffffffffffffffffffffffff16145b806126a557506126a48185612307565b5b91505092915050565b8273ffffffffffffffffffffffffffffffffffffffff166126ce82610bb5565b73ffffffffffffffffffffffffffffffffffffffff1614612724576040517f08c379a000000000000000000000000000000000000000000000000000000000815260040161271b9061461a565b60405180910390fd5b600073ffffffffffffffffffffffffffffffffffffffff168273ffffffffffffffffffffffffffffffffffffffff161415612794576040517f08c379a000000000000000000000000000000000000000000000000000000000815260040161278b906144fa565b60405180910390fd5b61279f838383612bb2565b6127aa600082612517565b6001600360008573ffffffffffffffffffffffffffffffffffffffff1673ffffffffffffffffffffffffffffffffffffffff16815260200190815260200160002060008282546127fa9190614863565b925050819055506001600360008473ffffffffffffffffffffffffffffffffffffffff1673ffffffffffffffffffffffffffffffffffffffff168152602001908152602001600020600082825461285191906147dc565b92505081905550816002600083815260200190815260200160002060006101000a81548173ffffffffffffffffffffffffffffffffffffffff021916908373ffffffffffffffffffffffffffffffffffffffff160217905550808273ffffffffffffffffffffffffffffffffffffffff168473ffffffffffffffffffffffffffffffffffffffff167fddf252ad1be2c89b69c2b068fc378daa952ba7f163c4a11628f55a4df523b3ef60405160405180910390a4505050565b612924828260405180602001604052806000815250612cc6565b5050565b6129338484846126ae565b61293f84848484612d21565b61297e576040517f08c379a0000000000000000000000000000000000000000000000000000000008152600401612975906144ba565b60405180910390fd5b50505050565b606060405180602001604052806000815250905090565b606060008214156129e3576040518060400160405280600181526020017f30000000000000000000000000000000000000000000000000000000000000008152509050612b43565b600082905060005b60008214612a155780806129fe906149a4565b915050600a82612a0e9190614832565b91506129eb565b60008167ffffffffffffffff811115612a57577f4e487b7100000000000000000000000000000000000000000000000000000000600052604160045260246000fd5b6040519080825280601f01601f191660200182016040528015612a895781602001600182028036833780820191505090505b5090505b60008514612b3c57600182612aa29190614863565b9150600a85612ab191906149ed565b6030612abd91906147dc565b60f81b818381518110612af9577f4e487b7100000000000000000000000000000000000000000000000000000000600052603260045260246000fd5b60200101907effffffffffffffffffffffffffffffffffffffffffffffffffffffffffffff1916908160001a905350600a85612b359190614832565b9450612a8d565b8093505050505b919050565b60007f01ffc9a7000000000000000000000000000000000000000000000000000000007bffffffffffffffffffffffffffffffffffffffffffffffffffffffff1916827bffffffffffffffffffffffffffffffffffffffffffffffffffffffff1916149050919050565b612bbd838383612eb8565b600073ffffffffffffffffffffffffffffffffffffffff168373ffffffffffffffffffffffffffffffffffffffff161415612c0057612bfb81612ebd565b612c3f565b8173ffffffffffffffffffffffffffffffffffffffff168373ffffffffffffffffffffffffffffffffffffffff1614612c3e57612c3d8382612f06565b5b5b600073ffffffffffffffffffffffffffffffffffffffff168273ffffffffffffffffffffffffffffffffffffffff161415612c8257612c7d81613073565b612cc1565b8273ffffffffffffffffffffffffffffffffffffffff168273ffffffffffffffffffffffffffffffffffffffff1614612cc057612cbf82826131b6565b5b5b505050565b612cd08383613235565b612cdd6000848484612d21565b612d1c576040517f08c379a0000000000000000000000000000000000000000000000000000000008152600401612d13906144ba565b60405180910390fd5b505050565b6000612d428473ffffffffffffffffffffffffffffffffffffffff16613403565b15612eab578373ffffffffffffffffffffffffffffffffffffffff1663150b7a02612d6b61250f565b8786866040518563ffffffff1660e01b8152600401612d8d949392919061432d565b602060405180830381600087803b158015612da757600080fd5b505af1925050508015612dd857506040513d601f19601f82011682018060405250810190612dd591906139f3565b60015b612e5b573d8060008114612e08576040519150601f19603f3d011682016040523d82523d6000602084013e612e0d565b606091505b50600081511415612e53576040517f08c379a0000000000000000000000000000000000000000000000000000000008152600401612e4a906144ba565b60405180910390fd5b805181602001fd5b63150b7a0260e01b7bffffffffffffffffffffffffffffffffffffffffffffffffffffffff1916817bffffffffffffffffffffffffffffffffffffffffffffffffffffffff191614915050612eb0565b600190505b949350505050565b505050565b6008805490506009600083815260200190815260200160002081905550600881908060018154018082558091505060019003906000526020600020016000909190919091505550565b60006001612f1384610c67565b612f1d9190614863565b9050600060076000848152602001908152602001600020549050818114613002576000600660008673ffffffffffffffffffffffffffffffffffffffff1673ffffffffffffffffffffffffffffffffffffffff168152602001908152602001600020600084815260200190815260200160002054905080600660008773ffffffffffffffffffffffffffffffffffffffff1673ffffffffffffffffffffffffffffffffffffffff168152602001908152602001600020600084815260200190815260200160002081905550816007600083815260200190815260200160002081905550505b6007600084815260200190815260200160002060009055600660008573ffffffffffffffffffffffffffffffffffffffff1673ffffffffffffffffffffffffffffffffffffffff16815260200190815260200160002060008381526020019081526020016000206000905550505050565b600060016008805490506130879190614863565b90506000600960008481526020019081526020016000205490506000600883815481106130dd577f4e487b7100000000000000000000000000000000000000000000000000000000600052603260045260246000fd5b906000526020600020015490508060088381548110613125577f4e487b7100000000000000000000000000000000000000000000000000000000600052603260045260246000fd5b90600052602060002001819055508160096000838152602001908152602001600020819055506009600085815260200190815260200160002060009055600880548061319a577f4e487b7100000000000000000000000000000000000000000000000000000000600052603160045260246000fd5b6001900381819060005260206000200160009055905550505050565b60006131c183610c67565b905081600660008573ffffffffffffffffffffffffffffffffffffffff1673ffffffffffffffffffffffffffffffffffffffff168152602001908152602001600020600083815260200190815260200160002081905550806007600084815260200190815260200160002081905550505050565b600073ffffffffffffffffffffffffffffffffffffffff168273ffffffffffffffffffffffffffffffffffffffff1614156132a5576040517f08c379a000000000000000000000000000000000000000000000000000000000815260040161329c906145da565b60405180910390fd5b6132ae816124a3565b156132ee576040517f08c379a00000000000000000000000000000000000000000000000000000000081526004016132e5906144da565b60405180910390fd5b6132fa60008383612bb2565b6001600360008473ffffffffffffffffffffffffffffffffffffffff1673ffffffffffffffffffffffffffffffffffffffff168152602001908152602001600020600082825461334a91906147dc565b92505081905550816002600083815260200190815260200160002060006101000a81548173ffffffffffffffffffffffffffffffffffffffff021916908373ffffffffffffffffffffffffffffffffffffffff160217905550808273ffffffffffffffffffffffffffffffffffffffff16600073ffffffffffffffffffffffffffffffffffffffff167fddf252ad1be2c89b69c2b068fc378daa952ba7f163c4a11628f55a4df523b3ef60405160405180910390a45050565b600080823b905060008111915050919050565b604051806101800160405280600073ffffffffffffffffffffffffffffffffffffffff1681526020016060815260200160608152602001600081526020016060815260200160006003811115613495577f4e487b7100000000000000000000000000000000000000000000000000000000600052602160045260246000fd5b815260200160001515815260200160608152602001606081526020016060815260200160008152602001600081525090565b8280546134d390614972565b90600052602060002090601f0160209004810192826134f5576000855561353c565b82601f1061350e57805160ff191683800117855561353c565b8280016001018555821561353c579182015b8281111561353b578251825591602001919060010190613520565b5b509050613549919061354d565b5090565b5b8082111561356657600081600090555060010161354e565b5090565b600061357d61357884614728565b6146f7565b90508281526020810184848401111561359557600080fd5b6135a0848285614930565b509392505050565b60006135bb6135b684614758565b6146f7565b9050828152602081018484840111156135d357600080fd5b6135de848285614930565b509392505050565b6000813590506135f581614b2e565b92915050565b60008135905061360a81614b45565b92915050565b60008135905061361f81614b5c565b92915050565b60008151905061363481614b5c565b92915050565b600082601f83011261364b57600080fd5b813561365b84826020860161356a565b91505092915050565b60008135905061367381614b73565b92915050565b600082601f83011261368a57600080fd5b813561369a8482602086016135a8565b91505092915050565b6000813590506136b281614b83565b92915050565b6000602082840312156136ca57600080fd5b60006136d8848285016135e6565b91505092915050565b600080604083850312156136f457600080fd5b6000613702858286016135e6565b9250506020613713858286016135e6565b9150509250929050565b60008060006060848603121561373257600080fd5b6000613740868287016135e6565b9350506020613751868287016135e6565b9250506040613762868287016136a3565b9150509250925092565b6000806000806080858703121561378257600080fd5b6000613790878288016135e6565b94505060206137a1878288016135e6565b93505060406137b2878288016136a3565b925050606085013567ffffffffffffffff8111156137cf57600080fd5b6137db8782880161363a565b91505092959194509250565b600080604083850312156137fa57600080fd5b6000613808858286016135e6565b9250506020613819858286016135fb565b9150509250929050565b6000806000806000806000806000806101408b8d03121561384357600080fd5b60006138518d828e016135e6565b9a505060208b013567ffffffffffffffff81111561386e57600080fd5b61387a8d828e01613679565b99505060408b013567ffffffffffffffff81111561389757600080fd5b6138a38d828e01613679565b98505060606138b48d828e01613664565b97505060808b013567ffffffffffffffff8111156138d157600080fd5b6138dd8d828e01613679565b96505060a08b013567ffffffffffffffff8111156138fa57600080fd5b6139068d828e01613679565b95505060c08b013567ffffffffffffffff81111561392357600080fd5b61392f8d828e01613679565b94505060e08b013567ffffffffffffffff81111561394c57600080fd5b6139588d828e01613679565b93505061010061396a8d828e016136a3565b92505061012061397c8d828e016136a3565b9150509295989b9194979a5092959850565b600080604083850312156139a157600080fd5b60006139af858286016135e6565b92505060206139c0858286016136a3565b9150509250929050565b6000602082840312156139dc57600080fd5b60006139ea84828501613610565b91505092915050565b600060208284031215613a0557600080fd5b6000613a1384828501613625565b91505092915050565b600060208284031215613a2e57600080fd5b6000613a3c848285016136a3565b91505092915050565b613a4e81614897565b82525050565b613a5d81614897565b82525050565b613a6c816148a9565b82525050565b613a7b816148a9565b82525050565b6000613a8c82614788565b613a96818561479e565b9350613aa681856020860161493f565b613aaf81614b09565b840191505092915050565b613ac38161491e565b82525050565b613ad28161491e565b82525050565b6000613ae382614793565b613aed81856147af565b9350613afd81856020860161493f565b613b0681614b09565b840191505092915050565b6000613b1c82614793565b613b2681856147c0565b9350613b3681856020860161493f565b613b3f81614b09565b840191505092915050565b6000613b5582614793565b613b5f81856147d1565b9350613b6f81856020860161493f565b80840191505092915050565b6000613b88602b836147c0565b91507f455243373231456e756d657261626c653a206f776e657220696e646578206f7560008301527f74206f6620626f756e64730000000000000000000000000000000000000000006020830152604082019050919050565b6000613bee6032836147c0565b91507f4552433732313a207472616e7366657220746f206e6f6e20455243373231526560008301527f63656976657220696d706c656d656e74657200000000000000000000000000006020830152604082019050919050565b6000613c54601c836147c0565b91507f4552433732313a20746f6b656e20616c7265616479206d696e746564000000006000830152602082019050919050565b6000613c946024836147c0565b91507f4552433732313a207472616e7366657220746f20746865207a65726f2061646460008301527f72657373000000000000000000000000000000000000000000000000000000006020830152604082019050919050565b6000613cfa6019836147c0565b91507f4552433732313a20617070726f766520746f2063616c6c6572000000000000006000830152602082019050919050565b6000613d3a600a836147c0565b91507f6f6e6c792061646d696e000000000000000000000000000000000000000000006000830152602082019050919050565b6000613d7a602c836147c0565b91507f4552433732313a206f70657261746f7220717565727920666f72206e6f6e657860008301527f697374656e7420746f6b656e00000000000000000000000000000000000000006020830152604082019050919050565b6000613de06038836147c0565b91507f4552433732313a20617070726f76652063616c6c6572206973206e6f74206f7760008301527f6e6572206e6f7220617070726f76656420666f7220616c6c00000000000000006020830152604082019050919050565b6000613e46602a836147c0565b91507f4552433732313a2062616c616e636520717565727920666f7220746865207a6560008301527f726f2061646472657373000000000000000000000000000000000000000000006020830152604082019050919050565b6000613eac6029836147c0565b91507f4552433732313a206f776e657220717565727920666f72206e6f6e657869737460008301527f656e7420746f6b656e00000000000000000000000000000000000000000000006020830152604082019050919050565b6000613f126020836147c0565b91507f4552433732313a206d696e7420746f20746865207a65726f20616464726573736000830152602082019050919050565b6000613f52602c836147c0565b91507f4552433732313a20617070726f76656420717565727920666f72206e6f6e657860008301527f697374656e7420746f6b656e00000000000000000000000000000000000000006020830152604082019050919050565b6000613fb86029836147c0565b91507f4552433732313a207472616e73666572206f6620746f6b656e2074686174206960008301527f73206e6f74206f776e00000000000000000000000000000000000000000000006020830152604082019050919050565b600061401e602f836147c0565b91507f4552433732314d657461646174613a2055524920717565727920666f72206e6f60008301527f6e6578697374656e7420746f6b656e00000000000000000000000000000000006020830152604082019050919050565b60006140846021836147c0565b91507f4552433732313a20617070726f76616c20746f2063757272656e74206f776e6560008301527f72000000000000000000000000000000000000000000000000000000000000006020830152604082019050919050565b60006140ea6031836147c0565b91507f4552433732313a207472616e736665722063616c6c6572206973206e6f74206f60008301527f776e6572206e6f7220617070726f7665640000000000000000000000000000006020830152604082019050919050565b6000614150602c836147c0565b91507f455243373231456e756d657261626c653a20676c6f62616c20696e646578206f60008301527f7574206f6620626f756e647300000000000000000000000000000000000000006020830152604082019050919050565b6000610180830160008301516141c26000860182613a45565b50602083015184820360208601526141da8282613ad8565b915050604083015184820360408601526141f48282613ad8565b915050606083015161420960608601826142d0565b50608083015184820360808601526142218282613ad8565b91505060a083015161423660a0860182613aba565b5060c083015161424960c0860182613a63565b5060e083015184820360e08601526142618282613ad8565b91505061010083015184820361010086015261427d8282613ad8565b9150506101208301518482036101208601526142998282613ad8565b9150506101408301516142b06101408601826142d0565b506101608301516142c56101608601826142d0565b508091505092915050565b6142d981614914565b82525050565b6142e881614914565b82525050565b60006142fa8285613b4a565b91506143068284613b4a565b91508190509392505050565b60006020820190506143276000830184613a54565b92915050565b60006080820190506143426000830187613a54565b61434f6020830186613a54565b61435c60408301856142df565b818103606083015261436e8184613a81565b905095945050505050565b60006101808201905061438f600083018f613a54565b81810360208301526143a1818e613b11565b905081810360408301526143b5818d613b11565b90506143c4606083018c6142df565b81810360808301526143d6818b613b11565b90506143e560a083018a613ac9565b6143f260c0830189613a72565b81810360e08301526144048188613b11565b90508181036101008301526144198187613b11565b905081810361012083015261442e8186613b11565b905061443e6101408301856142df565b61444c6101608301846142df565b9d9c50505050505050505050505050565b60006020820190506144726000830184613a72565b92915050565b600060208201905081810360008301526144928184613b11565b905092915050565b600060208201905081810360008301526144b381613b7b565b9050919050565b600060208201905081810360008301526144d381613be1565b9050919050565b600060208201905081810360008301526144f381613c47565b9050919050565b6000602082019050818103600083015261451381613c87565b9050919050565b6000602082019050818103600083015261453381613ced565b9050919050565b6000602082019050818103600083015261455381613d2d565b9050919050565b6000602082019050818103600083015261457381613d6d565b9050919050565b6000602082019050818103600083015261459381613dd3565b9050919050565b600060208201905081810360008301526145b381613e39565b9050919050565b600060208201905081810360008301526145d381613e9f565b9050919050565b600060208201905081810360008301526145f381613f05565b9050919050565b6000602082019050818103600083015261461381613f45565b9050919050565b6000602082019050818103600083015261463381613fab565b9050919050565b6000602082019050818103600083015261465381614011565b9050919050565b6000602082019050818103600083015261467381614077565b9050919050565b60006020820190508181036000830152614693816140dd565b9050919050565b600060208201905081810360008301526146b381614143565b9050919050565b600060208201905081810360008301526146d481846141a9565b905092915050565b60006020820190506146f160008301846142df565b92915050565b6000604051905081810181811067ffffffffffffffff8211171561471e5761471d614ada565b5b8060405250919050565b600067ffffffffffffffff82111561474357614742614ada565b5b601f19601f8301169050602081019050919050565b600067ffffffffffffffff82111561477357614772614ada565b5b601f19601f8301169050602081019050919050565b600081519050919050565b600081519050919050565b600082825260208201905092915050565b600082825260208201905092915050565b600082825260208201905092915050565b600081905092915050565b60006147e782614914565b91506147f283614914565b9250827fffffffffffffffffffffffffffffffffffffffffffffffffffffffffffffffff0382111561482757614826614a1e565b5b828201905092915050565b600061483d82614914565b915061484883614914565b92508261485857614857614a4d565b5b828204905092915050565b600061486e82614914565b915061487983614914565b92508282101561488c5761488b614a1e565b5b828203905092915050565b60006148a2826148f4565b9050919050565b60008115159050919050565b60007fffffffff0000000000000000000000000000000000000000000000000000000082169050919050565b60008190506148ef82614b1a565b919050565b600073ffffffffffffffffffffffffffffffffffffffff82169050919050565b6000819050919050565b6000614929826148e1565b9050919050565b82818337600083830152505050565b60005b8381101561495d578082015181840152602081019050614942565b8381111561496c576000848401525b50505050565b6000600282049050600182168061498a57607f821691505b6020821081141561499e5761499d614aab565b5b50919050565b60006149af82614914565b91507fffffffffffffffffffffffffffffffffffffffffffffffffffffffffffffffff8214156149e2576149e1614a1e565b5b600182019050919050565b60006149f882614914565b9150614a0383614914565b925082614a1357614a12614a4d565b5b828206905092915050565b7f4e487b7100000000000000000000000000000000000000000000000000000000600052601160045260246000fd5b7f4e487b7100000000000000000000000000000000000000000000000000000000600052601260045260246000fd5b7f4e487b7100000000000000000000000000000000000000000000000000000000600052602160045260246000fd5b7f4e487b7100000000000000000000000000000000000000000000000000000000600052602260045260246000fd5b7f4e487b7100000000000000000000000000000000000000000000000000000000600052604160045260246000fd5b6000601f19601f8301169050919050565b60048110614b2b57614b2a614a7c565b5b50565b614b3781614897565b8114614b4257600080fd5b50565b614b4e816148a9565b8114614b5957600080fd5b50565b614b65816148b5565b8114614b7057600080fd5b50565b60048110614b8057600080fd5b50565b614b8c81614914565b8114614b9757600080fd5b5056fea2646970667358221220b6dde6052db31aad8d57aff5e1a80a89491858d9e1840ff61630b0071079545464736f6c63430008000033",
  "immutableReferences": {},
  "source": "// SPDX-License-Identifier: MIT\npragma solidity >=0.4.22 <0.9.0;\n\nimport \"../node_modules/@openzeppelin/contracts/token/ERC721/extensions/ERC721Enumerable.sol\";\nimport \"../node_modules/@openzeppelin/contracts/token/ERC721/ERC721.sol\";\n\ncontract Cards is ERC721Enumerable{\n    uint256 public nextTokenId;\n    address public admin;\n\n    constructor() ERC721(\"Cards\", \"CRD\"){\n        admin = msg.sender;\n    }\n\n    enum Rareness {\n        Normal,\n        Rare,\n        Festive,\n        Relic\n    }\n\n    struct Card {\n        address owner;\n        string name;\n        string urlPic;\n        uint256 date;\n        string description;\n        Rareness rareness;\n        bool isForSelling;\n        string nationality;\n        string league;\n        string team;\n        uint amountMinted;\n        uint price;\n    }\n\n    mapping(address => bool) public admins;\n    mapping(address => mapping(uint=>Card)) public myRepository;\n    mapping(uint => Card) market;\n//     // mapping(address => mapping(string=>bool)) public adminsForClub;\n\n    function getyMyCards(uint256 i)\n        external\n        view\n        returns (Card memory)\n    {\n        return myRepository[msg.sender][i];\n    }\n\n    function getCardMarket(uint256 i) external view returns (Card memory) {\n        return market[i];\n    }\n\n    function allowAdmin(address addr) external {\n      require(msg.sender == admin, 'only admin');\n      admins[addr] = true;\n    }\n\n    function removeAdmin(address addr) external{\n      require(msg.sender == admin, 'only admin');\n      admins[addr] = false;\n    }\n    \n\n  function mint(\n        address to,\n        string memory name,\n        string memory imageUrl,\n        Rareness rareness,\n        string memory description,\n        string memory nationality,\n        string memory league,\n        string memory team,\n        uint amountMinted,\n        uint price\n\n    ) external  returns(Card memory){\n        require(msg.sender == admin || admins[msg.sender], \"only admin\");\n        _safeMint(to, nextTokenId);\n\n        Card memory card = Card({\n            owner: address(this), \n            name: name,\n            urlPic: imageUrl,\n            date: block.timestamp,\n            description: description,\n            rareness: rareness,\n            isForSelling: true,\n            nationality: nationality,\n            league: league,\n            team: team,\n            amountMinted: amountMinted,\n            price: price\n        });\n\n        myRepository[address(this)][nextTokenId] = card;\n        market[nextTokenId] = card;\n        nextTokenId++;\n\n        return card;\n    }\n\n\n\n//     function setCardForSelling(uint cardId) external {\n//         //check if owns card, \n//         //check if quantity is >= 1\n//         //check if is selling\n//         require(market[cardId].owner == msg.sender, \"you are not the owner of this card\");\n//         require(myRepository[msg.sender][cardId].isForSelling, 'Card is already for selling!');\n//         require(!myRepository[msg.sender][cardId].isForSelling, 'Card is already for selling!');\n\n//     }\n\n\n\n\n\n\n\n\n// function _baseURI() internal pure override returns (string memory) {\n//     return \"\";\n// }\n\n\n\n\n\n\n\n}\n",
  "sourcePath": "/Volumes/APPLE HDD/reactprojects/next-mongodb/contracts/Cards.sol",
  "compiler": {
    "name": "solc",
    "version": "0.8.0+commit.c7dfd78e.Emscripten.clang"
  },
  "schemaVersion": "3.4.3",
  "updatedAt": "2021-09-11T02:50:08.720Z",
  "networkType": "ethereum",
  "devdoc": {
    "kind": "dev",
    "methods": {
      "approve(address,uint256)": {
        "details": "See {IERC721-approve}."
      },
      "balanceOf(address)": {
        "details": "See {IERC721-balanceOf}."
      },
      "getApproved(uint256)": {
        "details": "See {IERC721-getApproved}."
      },
      "isApprovedForAll(address,address)": {
        "details": "See {IERC721-isApprovedForAll}."
      },
      "name()": {
        "details": "See {IERC721Metadata-name}."
      },
      "ownerOf(uint256)": {
        "details": "See {IERC721-ownerOf}."
      },
      "safeTransferFrom(address,address,uint256)": {
        "details": "See {IERC721-safeTransferFrom}."
      },
      "safeTransferFrom(address,address,uint256,bytes)": {
        "details": "See {IERC721-safeTransferFrom}."
      },
      "setApprovalForAll(address,bool)": {
        "details": "See {IERC721-setApprovalForAll}."
      },
      "supportsInterface(bytes4)": {
        "details": "See {IERC165-supportsInterface}."
      },
      "symbol()": {
        "details": "See {IERC721Metadata-symbol}."
      },
      "tokenByIndex(uint256)": {
        "details": "See {IERC721Enumerable-tokenByIndex}."
      },
      "tokenOfOwnerByIndex(address,uint256)": {
        "details": "See {IERC721Enumerable-tokenOfOwnerByIndex}."
      },
      "tokenURI(uint256)": {
        "details": "See {IERC721Metadata-tokenURI}."
      },
      "totalSupply()": {
        "details": "See {IERC721Enumerable-totalSupply}."
      },
      "transferFrom(address,address,uint256)": {
        "details": "See {IERC721-transferFrom}."
      }
    },
    "version": 1
  },
  "userdoc": {
    "kind": "user",
    "methods": {},
    "version": 1
  }
}